:100200007AC50000A2C50000A0C500000C94F21041
:100210009CC500009AC5000098C5000096C5000066
:100220000C94331192C5000090C500008EC50000EB
:100230008CC500008AC5000088C5000086C5000086
:1002400084C5000082C5000080C500007EC5000096
:100250007CC500007AC5000078C5000076C50000A6
:1002600074C5000072C500000C944F116EC50000EB
:100270006CC500006AC5000068C500000C94F91048
:1002800064C5000062C5000060C500000C94211127
:100290005CC500005AC5000058C5000056C50000E6
:1002A00054C5000052C5000050C500004EC50000F6
:1002B0004CC500004AC5000048C5000046C5000006
:1002C00044C5000042C5000040C500003EC5000016
:1002D0003CC500000C9485100C9480100C948A107E
:1002E00034C5000032C5000030C500002EC5000036
:1002F0002CC500004E414E494E495459494E46CDF9
:10030000CCCC3D0AD7233C17B7D13877CC2B3295CC
:1003100095E6241FB14F0A000020410000C84200AA
:10032000401C4620BCBE4CCA1B0E5AAEC59D744A2A
:10033000534F4E20466F726D6174204F6666004ABF
:10034000534F4E20466F726D6174206F6E0052469F
:10035000206F6666005246206F6E0070756C736584
:1003600020706572696F64203D200070756C736544
:1003700073203D2000646174616C6F67203D200034
:10038000694C656164006943616C007643616C206F
:100390003D200043616C6962726174696F6E3A005E
:1003A0002064426D002C20002C204E6F64652000DC
:1003B000204D487A2C2047726F7570200042616E84
:1003C00064200053657474696E67733A004E6F2041
:1003D000454550524F4D20636F6E666967004C6F04
:1003E0006164656420454550524F4D20636F6E66D1
:1003F00069670064697361626C6564006D73002CE9
:10040000206D696E20706572696F643A2000656EB8
:1004100061626C65640050756C7365206F6E20615D
:100420006E616C6F673A20005265666572656E6337
:100430006520766F6C746167652063616C696272B8
:100440006174696F6E3A20002000204E6F64653A37
:1004500020002047726F75703A20003931354D48C1
:100460007A003836384D487A003433334D487A00B4
:1004700020467265713A200052464D363943572066
:10048000004F70656E456E657267794D6F6E697469
:100490006F722E6F726700656D6F6E5478355F44B2
:1004A000425F3643545F3170686173652056000ABD
:1004B00000202868696464656E292E0020627974C2
:1004C0006573002C20446174612073697A653A2059
:1004D00000205369676E61747572653A20004E6F33
:1004E000206461746120626C6F636B20666F756E4F
:1004F00064202D20454550524F4D2061707065613C
:10050000727320746F20626520666F726D617474FF
:10051000656420746F204F454D205374616E646193
:1005200072642062757420756E757365642E000A9E
:10053000002062797465732C206E6F7420666F7270
:100540006D617474656420746F204F454D20537441
:10055000616E646172640053697A653A2000446F89
:100560006E652E204E657720636F6E666967207317
:100570006176656420746F20454550524F4D00539D
:100580006176696E672E2E2E00536B65746368204A
:1005900077696C6C206E6F7720726573746172740A
:1005A000207573696E672064656661756C7420637D
:1005B0006F6E6669672E00526573657474696E6745
:1005C0002E2E2E0020000A417661696C61626C65F6
:1005D00020636F6D6D616E64733A0A6C09092D209A
:1005E0006C697374207468652073657474696E67D0
:1005F000730A7209092D20726573746F7265207316
:100600006B657463682064656661756C74730A73E6
:1006100009092D20736176652073657474696E67AE
:100620007320746F20454550524F4D0A7609092DAD
:100630002073686F77206669726D776172652076C6
:10064000657273696F6E0A7A09092D207A65726F77
:1006500020656E657267792076616C7565730A78BE
:1006600009092D20657869742C206C6F636B2061FB
:100670006E6420636F6E74696E75650A3F09092D9B
:100680002073686F772074686973207465787420AC
:10069000616761696E0A0A773C783E09092D20740A
:1006A00075726E2052464D20576972656C65737382
:1006B0002064617461206F66663A2078203D2030A6
:1006C000206F72206F6E3A2078203D20310A623C04
:1006D0006E3E09092D2073657420722E662E2062ED
:1006E000616E64206E203D20612073696E676C65C9
:1006F000206E756D6572616C3A2034203D20343374
:10070000334D487A2C2038203D203836384D487AF1
:100710002C2039203D203931354D487A20286D6113
:10072000792072657175697265206861726477619C
:100730007265206368616E6765290A703C6E6E3E63
:1007400009092D207365742074686520722E662E49
:1007500020706F7765722E206E6E202D20616E20C6
:10076000696E74656765722030202D2033312072E8
:100770006570726573656E74696E67202D313820FF
:1007800064426D20746F202B31332064426D2E2023
:1007900044656661756C743A20323520282B372009
:1007A00064426D290A673C6E6E6E3E092D207365AA
:1007B00074204E6574776F726B2047726F7570206E
:1007C000206E6E6E202D20616E20696E74656765E7
:1007D0007220284F454D2064656661756C74203D1C
:1007E00020323130290A6E3C6E6E3E09092D20738D
:1007F0006574206E6F6465204944206E3D20616EF3
:1008000020696E746567657220287374616E646117
:100810007264206E6F646520696473206172652064
:10082000312E2E3630290A0A643C78782E783E091B
:100830002D2078782E78203D206120666C6F6174C1
:10084000696E6720706F696E74206E756D62657277
:1008500020666F722074686520646174616C6F67D4
:1008600067696E6720706572696F640A633C6E3EEB
:1008700009092D206E203D203020666F72204F46E2
:10088000462C206E203D203120666F72204F4E2C6A
:1008900020656E61626C6520766F6C746167652C93
:1008A0002063757272656E74202620706F77657292
:1008B00020666163746F722076616C756573207455
:1008C0006F2073657269616C206F75747075742028
:1008D000666F722063616C6962726174696F6E2EFB
:1008E000200A6A3C6E3E09092D207475726E204AFA
:1008F000534F4E2053657269616C20666F726D6153
:1009000074206F6E20283129206F72206F66662058
:100910002830292E0A663C78783E09092D207878FF
:10092000203D20746865206C696E65206672657173
:1009300075656E637920696E20487A3A206E6F7211
:100940006D616C6C79206569746865722035302042
:100950006F722036300A6B3C783E203C79792E79D4
:100960003E203C7A7A2E7A3E0A09092D2043616C9A
:1009700069627261746520616E20616E616C6F677F
:10098000756520696E707574206368616E6E656C44
:100990003A0A0909202078203D20612073696E679A
:1009A0006C65206E756D6572616C3A2030203D205B
:1009B000766F6C746167652063616C6962726174E3
:1009C000696F6E2C2031203D206374312063616C8F
:1009D0006962726174696F6E2C2032203D206374ED
:1009E000322063616C6962726174696F6E2C20657C
:1009F00074630A0909202079792E79203D2061202D
:100A0000666C6F6174696E6720706F696E74206EBA
:100A1000756D62657220666F722074686520766FEE
:100A20006C746167652F63757272656E74206361A3
:100A30006C6962726174696F6E20636F6E7374614A
:100A40006E740A090920207A7A2E7A203D206120CE
:100A5000666C6F6174696E6720706F696E74206E6A
:100A6000756D62657220666F7220746865207068AB
:100A70006173652063616C6962726174696F6E2075
:100A8000666F72207468697320632E742E20287A32
:100A9000206973206E6F74206E65656465642C2018
:100AA0006F722069676E6F72656420696620737566
:100AB00070706C6965642C207768656E2078203DC5
:100AC0002030290A09092020652E672E206B30204E
:100AD0003235362E380A0909202020202020206BAC
:100AE000312039302E3920322E30300A613C78786E
:100AF0002E783E092D2078782E78203D20612066C2
:100B00006C6F6174696E6720706F696E74206E75AA
:100B10006D62657220666F72207468652061737300
:100B2000756D656420766F6C7461676520696620F9
:100B30006E6F20612E632E20697320646574656377
:100B40007465640A6D3C783E203C79793E092D201D
:100B50006D657465722070756C736520636F756E5A
:100B600074696E673A0A090920202078203D2030F8
:100B700020666F72204F46462C2078203D20312081
:100B8000666F72204F4E2C203C79793E203D2061CB
:100B90006E20696E746567657220666F7220746876
:100BA000652070756C7365206D696E696D756D205B
:100BB000706572696F6420696E206D732E202879CC
:100BC000206973206E6F74206E65656465642C20E7
:100BD0006F722069676E6F726564207768656E203A
:100BE00078203D2030290A00456E657267792076AD
:100BF000616C7565732073657420746F207A6572FB
:100C00006F00436F6E74696E75696E672E2E2E00CD
:100C10005246206F6666005246206F6E00656D6F0B
:100C20006E5478355F44425F3643545F317068617B
:100C300073652056002064426D0070203D20004EF8
:100C40006F6465200064697361626C6564006D7334
:100C5000002C206D696E20706572696F643A200007
:100C6000656E61626C65640050756C7365206F6EB3
:100C700020616E616C6F673A2000200020004361A4
:100C80006C3A206B0047726F757020004672657178
:100C90003A2000207300646174616C6F6720706596
:100CA00072696F643A2000204D487A002C7066000B
:100CB0002C49002C70756C73653A002C45002C5043
:100CC000002C56004D53473A007D002C2270756C65
:100CD0007365223A002C2245002C2250002C22560B
:100CE000007B224D5347223A000A0000080A400CBC
:100CF000FFC000C0A11511241FBECFEFCDBFDFE79D
:100D0000DEBF11E4A0E0B0E4ECE7F5E600E00BBFE5
:100D100002C007900D92A233B107D9F72EE5A2E3E6
:100D2000B1E401C01D92A538B207E1F716E0CBE7A8
:100D3000D6E004C02197FE010E949032CA37D10745
:100D4000C9F70E94E3160C94BC325ACA80917E5EA9
:100D50008D3011F42D9A0895873011F40F9A08956B
:100D6000813109F44B9A089500009091825E9111AF
:100D700009C0809344098091430987FFFCCF80918B
:100D800044090895809364098091630987FFFCCF2B
:100D900080916409089580917E5E8D3011F42D98C4
:100DA0000895873011F40F980895813109F44B9814
:100DB0000895CF93DF93D82FC62FEDDF8D2F806856
:100DC000D3DF8C2FD1DFDF91CF91C0CFCF93C82F4E
:100DD000E2DF8C2FC9DF80E0C7DFC82FB7DF8C2FA1
:100DE000CF910895CF9390918C57981791F0C82F79
:100DF00081E0ECDF837E682F6C2B81E0DADF80916D
:100E00008C57811104C087E2E1DF87FFF8CFC093E0
:100E10008C57CF9108950F931F93CF93DF93EC01DD
:100E200084E0E0DF2097D9F088818823C1F0B3DF28
:100E30008EEB9ADF8E01005F1F4F899195DFC017FF
:100E4000D107D9F783DFC1E08DE3C0DF8E7F682F44
:100E50006C2B8DE3DF91CF911F910F91AACFC0E052
:100E6000F3CF10924B571092495710924A57109255
:100E7000475710924857109246571092455788E2AC
:100E8000A5DF82FF06C08DE3A1DF682F64608DE3DC
:100E900090DF80E1A7CFAF92BF92CF92DF92EF9227
:100EA000FF920F931F93CF93DF936C017B018B0114
:100EB000040F151FEB015E01AE18BF08C017D10764
:100EC00059F06991D601ED91FC910190F081E02DEE
:100ED000C6010995892B79F7C501DF91CF911F9143
:100EE0000F91FF90EF90DF90CF90BF90AF9008955B
:100EF000FC0155894689252F30E0842F90E0821B24
:100F0000930B541710F0CF96089501970895FC01A4
:100F100093898489981761F0A489AE0FBF2FB11D02
:100F200057968C9194899F5F9F73948B90E008955E
:100F30008FEF9FEF0895FC0193898489981731F012
:100F40008489E80FF11D878990E008958FEF9FEF66
:100F50000895FC0193892489892F90E0805C9F4F3C
:100F6000821B91098F7399270895CF93DF93EC012A
:100F7000E881F9810680F781E02D0995EC85FD85F2
:100F8000868116828581158280E484838C898B8B8F
:100F90001A8ADF91CF9108958F929F92AF92BF925C
:100FA000FF920F931F93CF93DF938C014A015B0154
:100FB000D22FC32FDC0152968C91529780FF07C02D
:100FC000ED91FC910288F389E02DC8010995D111BA
:100FD00001C0D3E0FD2EE894F2F8DC2FD095D07C50
:100FE000B1E68B16B3EE9B06B6E1AB06B10428F072
:100FF000D260B694A7949794879460E078ED88EBDC
:1010000095E0A50194010E946B30C901203431059F
:1010100010F480E490E03C2F3B72D7FD30684D2FF8
:10102000487C30FD41605FB7F894D8011C96ED9183
:10103000FC911682F7828087918735FF8FC04F77AA
:1010400081E084878FEF85873F7D3583D683F801E4
:101050002189C08986859785FC0133E0239FE00DB7
:10106000F11D1124659174912C1708F059C0272F98
:1010700046FF76C0793288F430E0F901EF5AFF4B31
:10108000A081AF3F51F026583F4BF901308120E25B
:10109000329FF0011124FC5FA18347FF2AC021E0A9
:1010A000270F293230F530E0F901EF5AFF4BD0819C
:1010B000DF3FF9F0F901E658FF4BA081F0E2AF9F66
:1010C000D0011124BC5F2D553F4BF9011081F0E098
:1010D000E0E0183030F49D01205F3F4FF901E10F4F
:1010E000F11D3FB7F8941296DC932081286020838D
:1010F0003FBF40FF15C023E0270F293288F430E0BE
:10110000F901EF5AFF4B40814F3F51F026583F4BBA
:10111000D901EC91B0E2EB9FF0011124FC5F418317
:10112000FC0123E0C29FE00DF11D112431962591B1
:101130003491F901FF27EE51FA4F9081832F80956A
:101140008923682B60835FBFDF91CF911F910F913F
:10115000FF90BF90AF909F908F900895148674CFAA
:10116000342F307509F499CF793208F096CF30E0FA
:10117000F901EF5AFF4BD081DF3F09F48ECFF9011F
:10118000E658FF4BA081E0E2AE9FD0011124BC5F86
:101190002D553F4BF9011081F0E0E0E0183030F4BC
:1011A0009D01205F3F4FF901E10FF11D3FB7F8941A
:1011B0001296DC932081286020833FBF6ECFFC0114
:1011C0000FB607FE04C0809111018823A1F0A48509
:1011D000B58514968C91149785FF0DC095898689E5
:1011E000981739F015968C9115978F7D15968C93DD
:1011F0000895E8949AC708950F931F93CF93DF93B0
:10120000EC018A89982F91609A8B2D899E892913E8
:101210000AC0EC85FD85948195FF05C081FD0DC058
:1012200080E4848312C0062F1D891F5F1F738E897F
:10123000811315C0CE01C3DFFACF85818F7780641B
:1012400090E49483EC85FD858583EC85FD85628340
:1012500081E090E0DF91CF911F910F910895ED898A
:10126000EC0FFD2FF11DE95AFF4F00831D8BEC851C
:10127000FD858A8981FF09C085818F77806690E42A
:101280009483EC85FD858583E3CF85818062FBCFE8
:101290000F931F93CF93DF938C01D0E0C0E0F80150
:1012A000EC0FFD1F6491662339F08DE897E5A4DF0C
:1012B000892B11F02196F3CFCE01DF91CF911F91B1
:1012C0000F910895682F8DE897E596CFCF93DF9320
:1012D000EC018A8980FF0BC0EC85FD85858185FD49
:1012E00003C0848186FD03C0CE0169DFF5CFDF91A5
:1012F000CF91089581E008950F98079A20E533EC87
:1013000093E0179A44E1F9013197F1F74150D9F789
:10131000482F179AF9013197F1F7179A59E0F90117
:101320003197F1F75150D9F7415099F7915049F75A
:10133000E7CF9FB7F894E0912A0BF0912B0B8091A7
:10134000260B2091F4563091F5564091F656509167
:10135000F7569FBF80FF08C0EC3E8CE2F80720F4F0
:101360002F5F3F4F4F4F5F4F0F0116940794169416
:1013700007941694079416940794F0011694079412
:10138000E00DF11D16940794102C16940118169474
:10139000010C169401181694010C16940118169459
:1013A0001694010C1124E019F109A8EEB3E00E9493
:1013B0005B306E0F7F1F811D911D08958F929F924C
:1013C000AF92BF92CF92DF92EF92FF926B017C01BE
:1013D000B0DF4B015C01C114D104E104F104B1F0B0
:1013E000A8DF681979098A099B09683E734081055D
:1013F000910588F321E0C21AD108E108F10888EECE
:10140000880E83E0981EA11CB11CE5CFFF90EF90E1
:10141000DF90CF90BF90AF909F908F9008952FB79F
:10142000F8946091F4567091F5568091F65690912B
:10143000F7562FBF08958F929F92AF92BF92CF928F
:10144000DF92EF92FF920F93CF936B017C0120E02C
:1014500030E040E05FE30E94232F87FF05C0C12CEE
:10146000D12CE12C8FE3F82EC0920540D09206409B
:10147000E0920740F0920840809005579090065700
:10148000C091075720E836E948E15BE4C701B6019F
:101490000E94882F6B017C01B12CA12CC501B401E5
:1014A0000E94272F9B01AC01C701B6010E940131A8
:1014B0000E946E316B017C0160E876E988E990E07A
:1014C000A50194010E946B30CA01B90100914A4004
:1014D000202F30E050E040E00E946B304427552739
:1014E000C701B601621B730B840B950B2C2F30E0E8
:1014F00050E040E00E946B302093F8563093F9564C
:101500004093FA565093FB56CF910F91FF90EF9076
:10151000DF90CF90BF90AF909F908F900895DC01A7
:10152000ED91FC91F170FC5E80810895CF92DF9285
:10153000EF92FF920F931F93CF93DF9300D0CDB71D
:10154000DEB76C017C0103E010E009831A83CE0151
:101550000196E5DFF70181937F010F5F1F4F073091
:10156000110599F7C6010F900F90DF91CF911F9150
:101570000F91FF90EF90DF90CF9008950F931F93FE
:10158000CF93DF9300D000D0CDB7DEB78C011982A6
:101590001A82CE010196C3DF8F34F9F481E090E026
:1015A00089839A83CE010196BADF8534B1F482E053
:1015B00090E089839A83CE010196B1DF8D3469F47E
:1015C00081E00115110551F0CE010196AFDF81E0F8
:1015D0002B813C812017310709F080E02496CDBF94
:1015E000DEBFDF91CF911F910F9108951F93CF938D
:1015F000DF93EC01162F93DF8117B1F09FB7809135
:101600000210282F227081FDFACFF8948DE984BF53
:101610002093001023E184BF20930010E881F9811A
:10162000F170FC5E10839FBFCE01DF91CF911F91BF
:101630000895CF92DF92EF92FF920F931F93CF9373
:10164000DF9300D0CDB7DEB76C017C0103E010E082
:1016500009831A83F70161917F01CE010196C6DFEC
:101660000F5F1F4F0730110599F7C6010F900F90BC
:10167000DF91CF911F910F91FF90EF90DF90CF906E
:1016800008950F931F93CF93DF9300D0CDB7DEB7AC
:101690000091325E1091335E8091345E9091355EA0
:1016A000081719079CF4C801957189839A836FEF15
:1016B000CE0101969BDF10922E5E10922F5E8091DC
:1016C0002C5E90912D5E080F191FE6CF0F900F90A2
:1016D000DF91CF911F910F910895DC01ED91FC9165
:1016E0000088F189E02D23E030E00994FC010190AD
:1016F0000020E9F73197AF01481B590BBC018DE879
:1017000097E5C9CB86EE90E4F1CFCF93DF93C0DDB0
:10171000EC01F8DF8C0F9D1FDF91CF9108950097AA
:1017200009F0E4CF90E080E008958F929F92AF920D
:10173000BF920F931F93CF93DF93CDB7DEB7A197DF
:10174000CDBFDEBF19A2423008F44AE08E010F5D22
:101750001F4F842E912CB12CA12CA50194010E9425
:101760006B30E62FB901CA01EA30B4F4E05DD8016C
:10177000EE938D01232B242B252B79F7CD01CFDF81
:10178000A196CDBFDEBFDF91CF911F910F91BF908A
:10179000AF909F908F900895E95CE9CFC0CFCF9232
:1017A000DF92EF92FF92CF93DF9397FF17C06B0109
:1017B0007C018DE287DDEC0166277727CB016C1970
:1017C0007D098E099F094AE0B0DF8C0F9D1FDF91D4
:1017D000CF91FF90EF90DF90CF9008954AE0DF9196
:1017E000CF91FF90EF90DF90CF909FCFBC01990FEA
:1017F000880B990BD4CFCF93DF93F8DFEC0182DF16
:101800008C0F9D1FDF91CF9108954F925F926F9241
:101810007F928F929F92AF92BF92CF92DF92EF9280
:10182000FF920F931F93CF936B017C01742EAC0139
:101830009B010E948532882391F089EE90E4CF913C
:101840001F910F91FF90EF90DF90CF90BF90AF90DE
:101850009F908F907F906F905F904F9047CF460101
:101860005701E894B7F82FEF3FEF4FE75FE7C50167
:10187000B4010E94853281110DC02FEF3FEF4FE779
:101880005FE7C501B4010E94232F18161CF48DEEEA
:1018900090E4D5CF2FEF3FEF4FE75FE4C701B601EC
:1018A0000E943F3218161CF481EF90E4C8CF2FEF4E
:1018B0003FEF4FE75FECC701B6010E94232F87FD82
:1018C000F3CF20E030E0A901C701B6010E94232F29
:1018D00010E000E087FF07C08DE2F4DC8C01F7FA2E
:1018E000F094F7F8F094C0E060E070E080E09FE3EF
:1018F0007C1641F020E030E040E251E40E940131EA
:10190000CF5FF6CFA70196010E949D302B013C01CD
:101910000E946E314B015C014AE007DF7C01E00E62
:10192000F11ECC23A9F1C501B4010E94272F9B0110
:10193000AC01C301B2010E949C304B015C0185EFF8
:1019400090E4D4DEE80EF91EC15010F120E030E042
:1019500040E251E4C501B4010E94882F2B013C01F3
:101960000E946E314B01B12CA12C4AE0C501B4019B
:10197000DCDEE80EF91EC501B4010E94272F9B0191
:10198000AC01C301B2010E949C304B015C01DCCF71
:10199000C701CF911F910F91FF90EF90DF90CF90F3
:1019A000BF90AF909F908F907F906F905F904F907F
:1019B0000895CF93DF9329DFEC01A4DE8C0F9D1FE8
:1019C000DF91CF910895AF92BF92CF92DF92EF92C5
:1019D000FF920F931F93CF93DF9300D0CDB7DEB765
:1019E0006C015B0110E000E00A151B057CF5780135
:1019F000EC0CFD1C85E1F822E982FA82CE01019609
:101A00008EDD803110F480E35DDC0F5F1F4FE982D3
:101A1000FA82CE01019683DD682F70E090E080E0CD
:101A200040E183DE89EF90E4B9DEC8018770992731
:101A3000892B19F489EF90E4B1DEC8018F709927E2
:101A4000892B91F689EE9CE023DCCECF0F900F908E
:101A5000DF91CF911F910F91FF90EF90DF90CF908A
:101A6000BF90AF9008950F931F93CF93DF93809112
:101A70008C57803109F062C088E2A8D982FF3BC050
:101A800084E0B0D988D980E06FD980E06DD9D82FB3
:101A9000C82F833408F0C2E4C093465780E064D96D
:101AA000082F80E061D9182F80E05ED9282F30E020
:101AB000A90196E0440F551F9A95E1F7442753700A
:101AC000402B4093475750934857322F22272227C5
:101AD0003370212B2093495730934A5790917C5E65
:101AE0009417150611F0452B11F4D330A0F4109281
:101AF00046572CD9B6D980918C578031F9F4809112
:101B000046578823E1F084E06DD981E0DF91CF91E1
:101B10001F910F910895C350C0934B5780788093C5
:101B20004557D0E0DC1720F480E01ED9DF5FFACF04
:101B30000DD980E157D984E249D9DDCF92D980E02F
:101B4000E5CF0F931F93CF93DF9383EC93E0DDDD1D
:101B50008DEB93E09DDB8091365E8B3209F48FC074
:101B6000863509F48FC08B3509F48FC090E080E092
:101B70003DDE80EB93E08CDB6091375E70E090E0BF
:101B800080E04AE0D2DD88EA93E082DB8091385E33
:101B90008F7390E02BDE85EA93E07ADB80913A5EEA
:101BA0008251990B23DE80EA93E0AFDD83E993E075
:101BB000ACDD8BE893E06CDB60913B5E70913C5E4A
:101BC00080913D5E90913E5E42E050E0F2DE03E4A3
:101BD0001EE5C1E0D0E086E893E05ADBCE0106DEE8
:101BE00087EF90E4DBDDF801619171918191919132
:101BF0008F0142E050E0DDDE80E893E049DBCE017A
:101C0000F5DD87EF90E4CADDF8016489758986897E
:101C1000978942E050E0CDDE2196C730D105D9F654
:101C200085E793E035DB6091735E7091745E80911F
:101C3000755E9091765E42E050E0BBDE8BE693E00D
:101C400027DB8091775E90E0D6DD8BE593E020DBAB
:101C50008091785E9091795ECEDD8091395E8111C0
:101C600017C08EE493E051DD80917B5E811113C03B
:101C70008FE293E0DF91CF911F910F9146CD81EBE1
:101C800091E076CF84E693E073CF83E993E070CF61
:101C900085E593E0E8CF8FE393E0ECCF94E081110A
:101CA0001BC0909346049091400492FD0AC09FB7D8
:101CB000F894811114C080915204877F809352045C
:101CC0009FBF8091E6058770823029F48091010AD8
:101CD0008B7F8093010A089590934504E4CF80910F
:101CE00052048860EBCF0F931F93CF93DF93CDB750
:101CF000DEB72C97CDBFDEBF681BF1F0062F10E0DA
:101D0000682F70E0645B784AA801CE0101960E94BA
:101D1000AD32E1E0F0E0EC0FFD1FE00FF11F1082AB
:101D2000CE0101960E94892D2C96CDBFDEBFDF919A
:101D3000CF911F910F91089590E080E0F5CF0F9320
:101D40001F93CF93DF93CDB7DEB72C97CDBFDEBF08
:101D5000681BF1F0062F10E0682F70E0645B784A92
:101D6000A801CE0101960E94AD32E1E0F0E0EC0F57
:101D7000FD1FE00FF11F1082CE0101960E94862DFB
:101D80002C96CDBFDEBFDF91CF911F910F910895AB
:101D900060E070E0CB01F4CF2F923F924F925F92C0
:101DA0006F927F928F929F92AF92BF92CF92DF926B
:101DB000EF92FF920F931F93CF93DF93CDB7DEB7D0
:101DC0002A97CDBFDEBF89879A87162F7A01222EE8
:101DD000312CB101032C000C880B990B0E94292F88
:101DE0004B015C01612F70E090E080E00E94292FA0
:101DF00020E030E044EB53E40E94882F2B013C01AB
:101E0000B70190E080E00E94272F9B01AC01C30145
:101E1000B2010E94882FA50194010E94882F20E81A
:101E200036E948E15BE40E9401312B013C01E98580
:101E3000FA8505818081081B110B21813281438144
:101E4000548166817781808591850E949C30A301B1
:101E500092010E9401316B017C01B801012E000C3E
:101E6000880B990B0E94292FA50194010E94013132
:101E70009B01AC01C701B6010E949D306D837E833A
:101E80008F8398870E94DC3169837A838B839C835C
:101E900020E030E040E85FE30E949D306B017C0170
:101EA00020E030E0A90169817A818B819C810E94C8
:101EB0003F3287FDA2C0A7019601C501B4010E946F
:101EC000882F0E946931E985FA85628773871686B3
:101ED0001786E985FA8526853785020F131F068741
:101EE0001787020D131D0487158720E030E044EBAF
:101EF00053E4C301B2010E9401312BED3FE049ECF4
:101F000050E40E94882F6B017C0129813A814B812A
:101F10005C816D817E818F8198850E949C30A301B8
:101F200092010E94882F20E030E044EB53E40E94AD
:101F300001312BED3FE049EC50E40E94882F4B012A
:101F40005C01A70196010E9401312B013C01E9854A
:101F5000FA85448A558A668A778AA5019401C50163
:101F6000B4010E94882F20E030E040E05FE30E944F
:101F7000882F9B01AC0160E070E080E89FE30E9445
:101F80009C304B015C01A7019601C701B6010E947C
:101F9000882F20E030E040E05FE30E94882F9B0123
:101FA000AC0160E070E080E89FE30E949C30A301F8
:101FB00092010E94882F9B01AC01C501B4010E94CF
:101FC0009C30E985FA85608B718B828B938B2A9686
:101FD000CDBFDEBFDF91CF911F910F91FF90EF90AA
:101FE000DF90CF90BF90AF909F908F907F906F9039
:101FF0005F904F903F902F900895E985FA85128663
:102000001386C701B6019058A50194010E94882F3C
:102010000E946931E985FA85668777875ACFCF9222
:10202000DF92FF920F931F93CF93DF930FE5089FEB
:10203000F0011124EF01C45AD74AAA81BB811F962F
:102040002C911F972A8B16964D915D916D917C91E5
:1020500019974B8B5C8B6D8B7E8BA881B9811F96FA
:102060002C911F972F8B16964D915D916D917C91C0
:102070001997488F598F6A8F7B8F20910757C0908F
:102080000557D0900657F0904A408F01A6016F2D5A
:10209000CF018259974A80DEEC81FD818A819B8144
:1020A0008E179F0729F187858AA786819781A0854A
:1020B000B1858BA79CA7ADA7BEA7E881F9818785CD
:1020C0008FA786819781A085B18588AB99ABAAAB94
:1020D000BBAB20910757A6016F2DC8018A57974ABD
:1020E000DF91CF911F910F91FF90DF90CF9054CE51
:1020F000DF91CF911F910F91FF90DF90CF900895C6
:10210000EF93FF93EDE8F7E508C0EF93FF93EDE859
:10211000F7E531C0EF93E0E652C02F932FB72F932E
:102120008F939F93AF93BF936894CF93DF9320E0F7
:10213000C485D8E09689DF01A90FB21FA95ABF4F05
:102140008C9120E42C838A839F5F9F738D812589E6
:10215000291302C08F7D8D83968BDF91CF910EF076
:102160004AC8BF91AF919F918F912F912FBF2F910F
:10217000FF91EF9118952F932FB72F938F939F93E4
:10218000CF93DF93C485D8E08981988181FD0DC00C
:10219000C38981E08C0F8F732489281731F0CE0F0B
:1021A000DF2F20E0D21F9F8B838BDF91CF919F91F8
:1021B0008F912F912FBF2F91FF91EF911895FF9342
:1021C0008F938FB78F93F8E08081848187FFFCCF56
:1021D00085818F7B806885838F918FBF8F91FF91E1
:1021E000EF9118951F920F920FB60F92112484E071
:1021F00083D81F920F920FB60F9211248F939F9343
:10220000AF93BF938091F4569091F556A091F656F6
:10221000B091F7560196A11DB11D8093F45690938D
:10222000F556A093F656B093F75681E08093260BAF
:10223000BF91AF919F918F910F900FBE0F901F9004
:1022400018951F920F920FB60F9211248F9388E06A
:102250008093A90481E0809302578F910F900FBE65
:102260000F901F9018951F920F920FB60F92112486
:102270008F939F93809109048093090486FF03C084
:1022800091E09093045787FF03C081E08093035748
:102290009F918F910F900FBE0F901F9018951F92D6
:1022A0000F920FB60F9211240BB60F922F923F92FE
:1022B0004F925F926F927F928F929F92AF92BF9256
:1022C000CF92DF92EF92FF920F931F932F933F9342
:1022D0004F935F936F937F938F939F93AF93BF932E
:1022E000EF93FF93CF93DF93CDB7DEB72A97CDBFA0
:1022F000DEBF81E080930D0680911006909111065B
:102300008D839E838091F3568E5F90910757891736
:1023100018F090910757891B90E0FC01EE0FFF1F0A
:10232000E80FF91FE75EFF4B8081809308068D81DF
:102330009E81209126583091275836952795821BEB
:10234000930B8D839E838D819E81E091F156F09158
:10235000F256EE0FFF1FEF50F14B808391831982ED
:102360001A821B821C822D813E810D811E812224B6
:102370001302B001029FA00112037209500D611DEA
:10238000721D30037209500D611D721D11244983A5
:102390005A836B837C8389809A80AB80BC80A091B8
:1023A0000140B0910240E091F35608E0E09FF00157
:1023B0001124EA0FFB1FE058FF4F2080318042803C
:1023C000538064807580068117819401A50160E0C7
:1023D00070E080E090E05101620173010E94993247
:1023E00020833183428353836483758386839783F9
:1023F0004D815E81E091F35618E0E19FF0011124D8
:10240000EA0FFB1FA084B184C284D384E484F584E2
:1024100006851785952F990F990B9A01492F592FEA
:10242000692F792F892F0E9499322087318742871F
:1024300053876487758786879787E091F3568E2F39
:1024400090E0FC01EE0FFF1FE80FF91FE75EFF4B66
:1024500080818111CFC08091EF4E9091F04E9C0110
:102460003695279536952795AC01421B530B9A015B
:102470008D819E81181619060CF478C08D819E817D
:10248000919581959109820F931F8093EF4E9093C0
:10249000F04E21E040912458509125584817590793
:1024A00008F020E02093E15D8D819E8118161906C9
:1024B0000CF05FC081E090E08093ED4E9093EE4E83
:1024C0002091ED4E3091EE4E8091E94E9091EA4E82
:1024D0002817390709F452C08091E64E8F5F809328
:1024E000E64E8091E64E882351F01092E64E8091A0
:1024F000ED4E9091EE4E8093EB4E9093EC4E80918A
:10250000EB4E9091EC4E019709F016C38091E94E85
:102510009091EA4E019709F465C08091E74E909141
:10252000E84E01968093E74E9093E84E2091044048
:10253000222339F1209103402817190609F008F5E4
:10254000109204401092E74E1092E84E14961D929D
:102550001D921D921C921797CD0188529D4FFD012F
:10256000E817F90771F010823196FACF8D819E81BC
:102570008ACF1092ED4E1092EE4EA2CF1092E64E00
:10258000B0CF14964D915D916D917C9117974F5FEF
:102590005F4F6F4F7F4F14964D935D936D937C9378
:1025A00017970D911D912D913C9113974091F856DD
:1025B0005091F9566091FA567091FB560417150721
:1025C0002607370778F080914B4090914C40A093BC
:1025D0004B40B0934C40809301409093024081E087
:1025E00080930A578091EB4E9091EC4E8093E94E88
:1025F0009093EA4E9091F35680910957981708F4FA
:1026000045C28090F1569090F256E091F3568E2F8D
:1026100090E0FC01EE0FFF1FE80FF91FE75EFF4B94
:102620000180F281E02D848D958D881A990A53E0FE
:102630009522E091F156F091F256A091F3568A2F2F
:1026400090E0DC01AA0FBB1FA80FB91FA75EBF4B0C
:1026500011960D90BC91A02D5E968D919C91E81BDA
:10266000F90BF3702091F1563091F256A091F35688
:102670008A2F90E0DC01AA0FBB1FA80FB91FA75E2D
:10268000BF4B11960D90BC91A02D90968D919C9171
:10269000281B390BD901B370AF83B887880C991CFC
:1026A00084010F50114B4801D8016D917C91EE0FC0
:1026B000FF1FEF50F14B40815181222457029001BE
:1026C000469F800156033209100D211D321D7403EF
:1026D0003209100D211D321D112428013901E0910C
:1026E0000140F0910240A091F35618E0A19FD00163
:1026F0001124AE0FBF1FA850BF4FAC901196BC90D5
:10270000119712962C90129713963C90139714964B
:102710000C911497098715961C9115971A87169690
:102720000C91169717961C91179773016201FF0C75
:10273000CC08DC2C76019201A3016C2D7C2D8C2D14
:102740009C2D6101E984FA840E9499322C931196A0
:102750003C93119712964C93129713965C93139790
:1027600014966C93149715967C93159716968C93E4
:10277000169717969C93D4016D917C91AF81B88583
:10278000AA0FBB1FAF50B14B4D915C912224570251
:102790009001469F800156033209100D211D321D04
:1027A00074033209100D211D321D112448015901F5
:1027B000A091F35618E0A19FD0011124AE0FBF1FC6
:1027C000A059BE4F2C9011963C9011971296CC9028
:1027D00012971396DC9013971496EC901497159615
:1027E000FC90159716960C91169717961C911797B3
:1027F00024013501770C4408542C32019401A501C1
:10280000642D742D842D942D51010E9499322C93A6
:1028100011963C93119712964C93129713965C93D2
:10282000139714966C93149715967C931597169698
:102830008C93169717969C93A091F3568091F3561C
:102840002A2F30E0D901AA0FBB1FA20FB31FA75E2A
:10285000BF4B11962D913C9190E0DC01AA0FBB1F5C
:10286000A80FB91FA75EBF4B11968D919C91D901FE
:1028700012962D913C91DC0114968D919C91281714
:10288000390709F403C18090F1569090F256A09157
:10289000F3568A2F90E0DC01AA0FBB1FA80FB91FC7
:1028A000A75EBF4B11960D90BC91A02DD4968D9133
:1028B0009C91881A990AB3E09B222091F15630919D
:1028C000F2568091F35690E0DC01AA0FBB1FA80FCF
:1028D000B91FA75EBF4B11960D90BC91A02DD69647
:1028E0008D919C91D901A81BB90BBD0173704091CA
:1028F000F1565091F2568091F356282F30E0C901DD
:10290000880F991F820F931F875E9F4BDC011196E2
:102910008D919C91DC01D8968D919C91481B590B0F
:10292000DA01B370AF83B887880C991C84010F500B
:10293000114B4801D8018D919C91DB01AA0FBB1F5F
:10294000AF50B14B4D915C91BC01222457029001D4
:10295000469F800156033209100D211D321D74035C
:102960003209100D211D321D112428013901A091B9
:10297000F35678E0A79FD0011124AE0FBF1FA851D6
:10298000BE4FAC901196BC90119712962C90129756
:1029900013963C90139714960C91149709871596EB
:1029A0001C9115971A8716960C91169717961C91DD
:1029B000179779016201FF0CCC08DC2C760192019B
:1029C000A3016C2D7C2D8C2D9C2D6101E984FA8452
:1029D0000E9499322C9311963C93119712964C9326
:1029E000129713965C93139714966C9314971596FD
:1029F0007C93159716968C93169717969C93D401F3
:102A00006D917C91AF81B885AA0FBB1FAF50B14BC0
:102A10004D915C91222457029001469F80015603FC
:102A20003209100D211D321D74033209100D211DB4
:102A3000321D1124280139018091F35618E0819F3D
:102A4000C0011124E80FF91FE05AFD4FB081A181A8
:102A5000C280D380E480F580068117815301420152
:102A6000BB0C8808982C54019201A301682D782D85
:102A7000882D982DAB2EBA2E0E9499322083318357
:102A80004283538364837583868397838091F3564F
:102A90008F5F8093F3568091F1569091F256019694
:102AA0008093F1569093F2569091F3568091075788
:102AB000981788F01092F356E0910140F09102408F
:102AC00080819181A281B3810196A11DB11D808376
:102AD0009183A283B3838091F1569091F2569370C3
:102AE0008093F1569093F2562A96CDBFDEBFDF91C8
:102AF000CF91FF91EF91BF91AF919F918F917F9176
:102B00006F915F914F913F912F911F910F91FF9086
:102B1000EF90DF90CF90BF90AF909F908F907F907D
:102B20006F905F904F903F902F900F900BBE0F9043
:102B30000FBE0F901F9018958091E94E9091EA4E2C
:102B400051CDEF92FF920F931F93CF93DF9300D05D
:102B5000CDB7DEB710928F571092905788EE93E062
:102B6000A0E0B0E08093915790939257A093935731
:102B7000B093945780ED90E480938D5790938E5747
:102B800080E698E08093995790939A578BEE9CE05B
:102B900080939B5790939C5782E080939D5710920F
:102BA0009E5710929F5780E090E0A8ECB2E480938B
:102BB000CD5D9093CE5DA093CF5DB093D05D10922C
:102BC000E05D1092E15D8093E35D9093E45DA093FE
:102BD000E55DB093E65D1092F65D1092F75D80932F
:102BE000F95D9093FA5DA093FB5DB093FC5D10924C
:102BF0000C5E10920D5EE0EDFCE581839283A38371
:102C0000B483148A75962DE5EC3CF207B1F78CE598
:102C100098E5FC01E25AFF4F1082815A9F4F4CE524
:102C2000803D9407B1F7ECE2F8E524E130E092E072
:102C300081E020833183928313821482158216826D
:102C400017821086118682871386709648E5EC35C8
:102C5000F40779F7109228581092295810922A58A0
:102C600080E090E1809326589093275880E091E08F
:102C700080932458909325588EEF90E08093305E97
:102C80009093315E8DE190E080932C5E90932D5E69
:102C90008DE090E080932A5E90932B5E84E890E034
:102CA0008093325E9093335E8DEF91E08093345E3B
:102CB0009093355E10922E5E10922F5E04E810E025
:102CC00009831A83CE0101960E948F0A78019DE143
:102CD000E90EF11C8F3F09F46EC000932E5E109335
:102CE0002F5E2DEFE21621E0F2065CF4E982FA8213
:102CF000CE0101960E948F0A8F3F09F458C00E94AE
:102D0000410B8AE080937E5E8BE080937F5E8CE057
:102D10008093805E8DE08093815E1092825E8BE274
:102D20008093365E82ED8093375E8BE18093385ED0
:102D300081E08093395E99E190933A5E4AE959E9DE
:102D40006AEC72E440933B5E50933C5E60933D5E60
:102D500070933E5E40E050E068E472E440933F5E72
:102D60005093405E6093415E7093425E4DEC5CEC2C
:102D70006CE171E44093735E5093745E6093755E92
:102D80007093765E8093775E84E690E08093785EC1
:102D90009093795E10927A5E10927B5E0F900F9006
:102DA000DF91CF911F910F91FF90EF9008954DE12A
:102DB000E40EF11C96CF87018DEFE81681E0F8064E
:102DC00009F07ECF9ECFCF93DF93CDB7DEB7C65746
:102DD000D109CDBFDEBF88ED21E030E084BF209374
:102DE000620091E084BF909363009DE284BF909362
:102DF000800093E084BF9093600080E090E2209197
:102E0000650020FD10C221E02093030A8EEF80931D
:102E1000260A8093270A9BE09093000A32E03093C1
:102E2000E6052093430A8093660A8093670A90938D
:102E3000400A9093E705E0E0FBE027E09EEF85E0A5
:102E400021839487158680837096E0340BE0F00729
:102E5000B9F72FEF3FE02093AA0B3093AB0B90E82C
:102E60009093820B1092810B2EEF30E02093AE0BEB
:102E70003093AF0B98ED24E194BF2093680091E16B
:102E80009093800B809302069EE09093050690E657
:102E900090930306809300068091B000887F856040
:102EA0008093B0008091B200887F85608093B200EB
:102EB0008FED9EE280932C0B90932D0B81E08093FD
:102EC000250B1092210B83E08093200B789484E0F3
:102ED0008093410481E00E944E0E40E052EC61E09C
:102EE00070E08DE897E50E946D0B87E994E00E9401
:102EF00048098BEF90E40E948F0B81E894E00E94D8
:102F0000850B03E41EE50BAB1CAB8BE59EE5F801DE
:102F100000E010E020EA31E44DEC5CEC6CE470E49D
:102F20000193119321933193448B558B668B778B4F
:102F30008E179F07A9F780E190E00E94BE0A8823C0
:102F400041F1CE0101960E94960A09811A8117FD6E
:102F500020C0680123E0C20ED11C96E3E92E9EE555
:102F6000F92E87E090E05C013FEFA31AB30A8FA728
:102F700098ABCE018F960E948F0AD7018D937D0169
:102F8000C501AC14BD0478F38EED93E00430110557
:102F900011F48DEC93E00E94850B0E94A10D8091AD
:102FA000395E882309F442C088E794E00E9448090A
:102FB00080E794E00E9448098091365E8B3221F4CC
:102FC00089E694E00E9448098091365E863521F4B6
:102FD00082E694E00E9448098091365E8B3521F4A8
:102FE0008BE594E00E94480982E594E00E9448093C
:102FF0006091375E70E090E080E04AE00E94950BBF
:103000008AE494E00E9448096091385E70E090E0A4
:1030100080E04AE00E94950B88E494E00E94850BD2
:1030200083E091E40E94760B0E94820B8091395ECE
:10303000882309F449C187E080937E5E84E0809311
:103040007F5E85E08093805E86E08093815E109253
:10305000825E1091375E8091385E80937C5E109224
:103060007D5E80E88093010480E1809301049FB736
:10307000F89480E28093020480911504877F809306
:1030800015049FBF2091815E822F90E0293280F449
:10309000FC01EF5AFF4B20812F3F51F086589F4B88
:1030A000DC01EC91B0E2EB9FF0011124FC5F218385
:1030B0000E94A6068091825E8111BBC08091E405CA
:1030C0008C7F8093E405809141098460809341095D
:1030D000809140098162809340090E940F0A6B0130
:1030E0007C016AEA8FE20E94D9068FE20E94E6061E
:1030F0008A3A59F00E940F0A6C197D098E099F09BE
:10310000623371058105910560F30E940F0A6C1905
:103110007D098E099F09623371058105910508F0CB
:10312000B9C00E940F0A6B017C0165E58FE20E9425
:10313000D9068FE20E94E606853559F00E940F0AF3
:103140006C197D098E099F0962337105810591050E
:1031500060F30E940F0A6C197D098E099F09623382
:1031600071058105910508F095C0FE0133968BE24B
:10317000DF011D928A95E9F781E0898384E08A83E3
:1031800022E02B8393E09D832E838F8380E48887C6
:1031900025E029879A8796E09B8793E39C8797E0B1
:1031A0009D8728E02F8729E0298B29E12B8B32E4AA
:1031B0003C8B25E22D8B8E8B26E22F8B988F98E20D
:1031C000998F20E12A8F99E29B8F9CED9C8F9EE244
:1031D0009D8F98E89E8F9FE29F8F9DE298A390E33A
:1031E00099A347E34BA340E94CA348E34DA33EA377
:1031F0003CE33FA33FE838A73DE339A72AA72FE6E2
:103200002BA79CA79CE69E87888B1AA38E010F5F35
:103210001F4FF80180818823E1F061810E94D90667
:103220000E5F1F4FF6CF019709F0E9CD83E00E94B2
:103230007C098091E405837F8093E4058091610996
:103240008460809361098091600981628093600944
:1032500044CF90E080E00E940B0769E981E10E9481
:10326000D90684E00E94F2060E940F0A6B017C01DD
:1032700087E20E94E60687FD0BC00E940F0A6C19C8
:103280007D098E099F09623371058105910580F3DF
:103290000E940F0A8DE191E40E940B078091385E35
:1032A000F4E18F9FC00111246C01092E000CEE087F
:1032B000FF08892B09F484C10E94312DA7019601D2
:1032C0000E943F300E94DE098EE0809305068091C7
:1032D0000306809303061092B00086E080930206F6
:1032E00081E080930006809100068093000687E0CD
:1032F0008093080660E070E0CB0150E040E0E1E040
:10330000E0930A0620910D0620FFFCCF4A305105BC
:1033100044F02091100630911106620F731F811D39
:10332000911D4F5F5F4F4A3107E2500749F70E94F6
:10333000272F20E030E44CE156E40E94013120E0E8
:1033400030EF4FE755E40E9401319B01AC0166E686
:1033500076E686E69FE30E9401316B017C0188E2FC
:1033600094E00E94480944E050E0C701B6010E9481
:10337000D90C40903B5E50903C5E60903D5E7090FA
:103380003E5E1092CC5D8090464090904740A09069
:103390004840B09049408FAA98AEA9AEBAAE6091AD
:1033A00026587091275890E080E00E94272F4B010B
:1033B0005C0123EA33E240E051E4C301B2010E9420
:1033C000882F2FA938AD49AD5AAD0E94882FA5018D
:1033D00094010E9401316093CD5D7093CE5D809326
:1033E000CF5D9093D05D1092D15D8AE097EDA3E21E
:1033F000BEE38093D25D9093D35DA093D45DB093F0
:10340000D55D1092D65D1092D75D1092D85D109266
:10341000D95D1092DA5D00ED1CE520E0ABA9BCA9F6
:1034200058962D903D904D905C905B976D917D915D
:103430008D919D91ABABBCAB77247394720EF80168
:10344000208320E030E040E450E40E94882F2FA940
:1034500038AD49AD5AAD0E94882FA50194010E9454
:103460000131D80111966D937D938D939C931497A0
:1034700015961C921597F801268237824086518650
:1034800012861B961D921D921D921C921E970B5E1A
:103490001F4F272D263011F680910857ABE0B7E576
:1034A00020ED3CE590E01FE54CEC5DE571E0682F18
:1034B000690F9F5F169FF0011124E45AF74A208399
:1034C00031834283538344835583E25AFF4F708391
:1034D0006D932B5E3F4F963051F78A5F809308576C
:1034E00082E380934A408AE0809303406091735E58
:1034F0007091745E8091755E9091765E0E941B0A59
:10350000C0924640D0924740E0924840F0924940F5
:1035100086E194E00E9448098091775E882309F44F
:1035200053C08EE094E00E9448098FEF93E00E9420
:1035300048098091785E9091795E0E94F60B8CEF3D
:1035400093E00E94850B8091775E80935558882385
:10355000F1F189E08093B3048091785E9091795E77
:1035600080934C5890934D5882E080934E5881E060
:1035700080935658C0902E5ED0902F5EC114D10417
:1035800009F480C186010F5F1F4F8EE0E82E8EE5A3
:10359000F82E80912C5E90912D5E8C0D9D1D08174C
:1035A0001907C4F4C801957189839A83CE010196E5
:1035B0000E948F0AF70181937F010F5F1F4FE9CFB0
:1035C00060E070E0CB017ECE83EF93E0BACF109243
:1035D000B304C2CF40900E5E50900F5E6090105EBC
:1035E0007090115E8090125E9090135EA090145EB9
:1035F000B090155EC090165ED090175EE090185E99
:10360000F090195E00911A5E10911B5E20911C5E75
:1036100030911D5E40911E5E50911F5E6091205E54
:103620007091215E8091225E9091235EA091245E34
:10363000B091255E8BAB9CABADABBEAB8091265EF3
:103640009091275EA091285EB091295E409253B779
:10365000509254B7609255B7709256B78092B25854
:103660009092B358A092B458B092B558C0921159E4
:10367000D0921259E0921359F09214590093705954
:103680001093715920937259309373594093CF59C5
:103690005093D0596093D1597093D2592BA83CA81C
:1036A0004DA85EA820922E5A30922F5A4092305A3E
:1036B0005092315A80932F5890933058A09331589C
:1036C000B093325885E18093005788E090E0809372
:1036D000FE569093FF5688EE91E0809305579093A5
:1036E00006571092FD5690910957ECE5F8E580E0F9
:1036F00041E0DF01A25ABF4F2C91222309F451C0AF
:10370000282F30E0D901AA0FBB1FA20FB31FBD01A4
:10371000675E7F4BDB012C912F3FC1F42281338107
:10372000D90154965C915497511110C01F968C93F7
:103730001F9754964C9354972C9130E0275F3F4B42
:10374000D9012C91DB012C938F5F9F5F2481358100
:10375000628173812617370721F1A82FB0E0BD01E0
:10376000660F771FA60FB71FBD01675E7F4BDB019A
:103770005C915F3FB1F4D90154965C91549751111B
:1037800010C01F968C931F9754964C9354972C916E
:1037900030E0275F3F4BD9012C918F5FDB012C93E9
:1037A0009F5FE15AFF4FBCE5E03DFB0709F0A1CF69
:1037B000909309578093FD569091FC562CE538E57F
:1037C00061E0D901A25ABF4F4C91442359F1A82F6F
:1037D000B0E0AD01440F551FA40FB51F8D01075E6A
:1037E0001F4BD8014C914F3FE9F4D9014D915C91A9
:1037F000DA0154967C915497711114C01F968C93E2
:103800001F9754966C9354974C9150E0445F5F4BD4
:10381000DA014C91D8014C938F5F11962D933C9314
:1038200012979F5F215A3F4FE217F30751F680939B
:10383000FD569093FC56909128589923A9F08093B7
:103840002B582091184091E0980F9093FD5690E0EE
:10385000FC01EE0FFF1FE80FF91FE75EFF4B20830F
:103860001092295810922A588091FD56809307573C
:1038700010E0809108571817E0F4812F0E940F1074
:103880001F5FF7CF80E090E0DC011BAA1CAA1DAAF5
:103890001EAA40E050E0BA0100E010E09801C12CFF
:1038A000D12C7601812C912C5401412C512C3201C8
:1038B000CDCE1091075720E836E948E15BE46091EE
:1038C00005407091064080910740909108400E9409
:1038D000882F20E030E044EF53E40E9401310E9441
:1038E0006E316B017C0120914A4030E050E040E0B5
:1038F0006BE070E580E090E00E946B30C701B6019C
:10390000621B730B840B950B212F30E050E040E0DD
:103910000E946B302093F8563093F9564093FA5634
:103920005093FB5610920A5781E08093044095E132
:103930009093050690910306909303061092B000B1
:103940009091FE5690930206809300069091000697
:10395000909300069091000692609093000610925A
:10396000080690910C06916090930C0680930A06CD
:103970007894109217571092185710921957109266
:103980001A5760E070E080E090E40E941B0A8E010C
:10399000015D1F4F09AB1AAB8DE897E50E94A9079F
:1039A000892B09F496C08DE897E50E948707F0906F
:1039B00001578A3009F01CC5AF2DB0E0A45BB84AAE
:1039C0001C92E0914C57EF53EC3308F07AC00E2E66
:1039D000000CFF0BE251F34E0C949032E021611D7C
:1039E000611D611D611D611D611D611D611D611DE7
:1039F000611D611D611D611D611D611D611D611DD7
:103A0000611D611D611D611D611D611D611D611DC6
:103A1000611D611D611D611D611D611D611D611DB6
:103A2000611D2A1D541D1D1E391E401E561E611D7E
:103A30008B200D1E6B1E092010208B20611DA320E2
:103A4000611DB720E220611D611D9A21A621BC21C4
:103A5000611DC22112E0F11234C08DE497E50E948D
:103A6000892D8430D9F0883099F0893059F010923E
:103A7000365E90E080E00E94F60B87EA9CE00E94B0
:103A8000850B1FC08BE58093365E83E993E0F3CF0F
:103A900086E58093365E84E693E0EDCF8BE28093FB
:103AA000365E81EB91E0E7CF22E0F2120AC08DE4AE
:103AB00097E50E94892D019709F0ACC081E08093C1
:103AC0007A5E80E4ACE4B7E51D928A95E9F710923E
:103AD00001578091045790913558992389F0882394
:103AE00079F081E0809337580E940F0A609338582C
:103AF0007093395880933A5890933B5810920457DA
:103B00008091035790914558992389F0882379F043
:103B100081E0809347580E940F0A60934858709341
:103B2000495880934A5890934B581092035780916C
:103B3000025790915558992389F0882379F081E0B4
:103B4000809357580E940F0A6093585870935958A1
:103B500080935A5890935B58109202579CE2E92E3A
:103B600098E5F92E8701D12CC12C560184E0AA0CCE
:103B7000BB1C8A95E1F7F501E45DF74A4F018385A7
:103B8000D80119969C91992309F451C4882309F40A
:103B90004EC40E940F0AF401248535854685578559
:103BA0001B012C01221A330A440A550AB201A10151
:103BB000D8018D919C91B0E0A0E084179507A607ED
:103BC000B70708F034C4B1E0CB1609F41EC4E2E034
:103BD000CE1609F420C48091080486FB882780F95A
:103BE000F501E45DF74A1386D8011A969C911A975D
:103BF000981709F41CC412969C91811112C492303A
:103C000009F012C4F801278130852F5F3F4F2783C9
:103C100030870AC410927A5E54CF32E0F31251CF4B
:103C20008DE497E50E94892D019721F481E080932E
:103C30007B5E47CF10927B5E44CF8DE497E50E9478
:103C4000862D6B017C010E941B0AC092735ED0928C
:103C5000745EE092755EF092765E86E99CE00E946A
:103C6000480942E0C701B6010E94050C83E99CE0C7
:103C700006CF8AE08C938DE497E50E94CE0B21CF8E
:103C800043E0F4121ECF8DE497E50E94862D0E943A
:103C90006931162F072F60934A408CE89CE00E9400
:103CA0004809812F902F0E94FB0B0BCF8DE497E5E5
:103CB0000E94892D8093375E85E89CE00E94480928
:103CC0006091375E70E090E080E04AE00E94950BE2
:103CD0000E94820BF6CE60E270E08CE497E50E94D1
:103CE000A232009711F40C94D02C8C010C5417457F
:103CF000C801992760E270E0835B984A0E94A23273
:103D0000EE24E394E00E009711F40C94D72CDC0120
:103D1000AC54B7455D01602F81E00E94730E6C01C9
:103D20006A2D8E2D0E949F0E25966CAF7DAF8EAFB3
:103D30009FAF25976F2D81E08A0D0E949F0E6E9692
:103D40006CAF7DAF8EAF9FAF6E97C114D10409F0F9
:103D50009FC023EA33E240E051E425966CAD7DAD8F
:103D60008EAD9FAD25970E94882F209146403091BF
:103D7000474040914840509149400E94882F4B0154
:103D80005C01609126587091275890E080E00E9475
:103D9000272F9B01AC01C501B4010E940131609342
:103DA000CD5D7093CE5D8093CF5D9093D05D2AE022
:103DB00037ED43E25EE36091D25D7091D35D809117
:103DC000D45D9091D55D0E94232F882381F11092BC
:103DD000D15D8AE097EDA3E2BEE38093D25D90933C
:103DE000D35DA093D45DB093D55D1092D65D109253
:103DF000D75D1092D85D1092D95D1092DA5D10E017
:103E000080910857181798F480915E5890915F58E8
:103E10008C5C9D4539F080916058909161588C5C24
:103E20009D4519F4812F0E940F101F5FE9CF259641
:103E30002CAC3DAC4EAC5FAC259720923B5E3092F3
:103E40003C5E40923D5E50923E5E8EE79CE00E945A
:103E50004809C6010E94F60B8CE79CE00E944809C5
:103E600042E025966CAD7DAD8EAD9FAD25970E944D
:103E7000050C8AE79CE00E94480942E050E06E96FB
:103E80006CAD7DAD8EAD9FAD6E970E94D90C19CEF5
:103E9000EE24EA94EC0C3BE0332E3E1408F49DC073
:103EA000AE2CB12C25E1E29E800111240053134A6F
:103EB00020E030E040E450E425966CAD7DAD8EAD61
:103EC0009FAD25970E94882F209146403091474012
:103ED00040914840509149400E94882F2B013C015D
:103EE000609126587091275890E080E00E94272F1B
:103EF0009B01AC01C301B2010E940131D8011196AE
:103F00006D937D938D939C93149716962D913D916F
:103F10004D915C9119976E966CAD7DAD8EAD9FAD58
:103F20006E970E94232F882309F457C0F801158249
:103F30006E962CAC3DAC4EAC5FAC6E972682378251
:103F400040865186128613861486158616868FE55E
:103F50008A9D80018B9D100D1124045A174AD801A7
:103F6000ED91FC914681578160857185F801408F04
:103F7000518F628F738F20910757A0900557B09093
:103F8000065790904A40E89E70011124A501692DC2
:103F9000C7018259974A0E94CC0ED80112962D91E2
:103FA0003C91139714968D919C911597281739077A
:103FB000A1F0ED91FC9186819781A085B185F801F2
:103FC00080AB91ABA2ABB3AB20910757A501692D94
:103FD000C7018A57974A0E94CC0EF601EE0FFF1FC9
:103FE000EE0FFF1FEE5CF14A25962CAC3DAC4EACBB
:103FF0005FAC2597258636864786508A6E968CACB0
:104000009DACAEACBFAC6E9785A296A2A7A2B0A69F
:104010001CCF99249394F91054CD0E94A10D51CD39
:1040200060E270E08CE497E50E94A232009709F00C
:1040300044C06F2D81E00E94730E8C0101151105A3
:1040400009F456C00130110509F459C025966CAD2C
:104050007DAD8EAD9FAD25970E946E3160934C581B
:1040600070934D5882E080934E5881E0809356586B
:1040700025966CAD7DAD8EAD9FAD25970E946931C3
:104080006093785E7093795E88E69CE00E944809B0
:104090008091775E8823E1F180E69CE00E944809E8
:1040A00081E59CE00E9448098091785E9091795E5C
:1040B0000E94F60B8EE49CE0E2CC8C010C54174578
:1040C0006801602F81E00E94730E8C016F2D81E0EA
:1040D0008C0D0E94730EBC01990F880B990B0E94E6
:1040E000292F25966CAF7DAF8EAF9FAF2597A6CFBA
:1040F000109255581092B3041092775EA7CF81E0CA
:104100008093555899E09093B3048093775E9ECF47
:1041100085E49CE0B4CC8DE497E50E94892D88234A
:1041200079F099278034910514F08FE390E0809323
:10413000385E8FE39CE00E9448096091385EC2CDF2
:1041400081E090E0F4CF8DE497E50E94892D8F7196
:1041500080933A5E8AE39CE00E94480980913A5E2F
:104160008251990B0E94F60B85E39CE088CC11E00C
:10417000F112A7CC87EB95E00E94850B80E190E0DF
:104180000E94BE0A882389F0CE0101960E94960AF9
:1041900089819A8197FD09C09195819591098983BB
:1041A0009A83CE0101960E94190B89E895E00E943E
:1041B000850B68EC70E080E090E00E94DE090C94D2
:1041C00000007FCC21E0F2127CCC8FE795E00E94CA
:1041D000850B80E190E00E94BE0A811128C01982FF
:1041E0001A826FE4CE0101960E94F60A41E050E087
:1041F00049835A8365E4CE0101960E94F60A82E063
:1042000090E089839A836DE4CE0101960E94F60ABC
:1042100003E010E009831A836FEFCE0101960E943C
:10422000F60A0F5F1F4F011592E0190799F7AAE4EC
:10423000B0E0A983BA8380E190E08B839C83CE01B8
:1042400001960E94190B06E31EE587E090E0F80155
:1042500061918F017C01FFEFEF1AFF0A8FA798ABE6
:10426000CE018F960E94F60AC7018D34910579F729
:1042700090E080E00E94BE0A81111AC087E595E0B7
:104280000E9448094AE060E072E080E090E00E940D
:10429000950B81E395E00E94850B60E072E090E071
:1042A00080E00E94E30C8FE295E00E9448090CC078
:1042B000CE0101960E94960A8B819C81019649F459
:1042C0008EED94E00E94850B0E94820B8EE595E0B6
:1042D000D6CB81ED94E00E9448096B817C8190E00F
:1042E00080E04AE00E94950B09811A8117FF03C004
:1042F0001195019511090450110983EC94E00E9475
:104300004809C8010E94F60B8CEB94E00E94480912
:1043100089819A8197FF04C081EB94E00E9448094B
:104320000E94820BB80187E090E00E94E30C8FEAC4
:1043300094E0BBCF11E0F112C4CB8DE19CE00E9470
:1043400048098BEF90E40E948F0BBBCB22E0F21266
:10435000B8CB1092395E80914D57813319F481E0CA
:104360008093395E8091395E882319F087E19CE063
:1043700086CB80E19CE083CB31E082E09CE0F312CD
:10438000A0CB7DCB41E0F4129CCB88EE9BE00E9459
:10439000850B0E94410BE2EBF8E51082118212823C
:1043A0001382E15AFF4F5AE5EC3EF507B1F7109240
:1043B0002F5810923058109231581092325881CBA9
:1043C00081E0F8127ECB06EC15E0F801F490FF20B6
:1043D00061F0FAE0FF1203C08DE00E9462098F2DA8
:1043E0000E9462090F5F1F4FF0CF84EC95E047CB2E
:1043F000BFE3BF1508F46DCBEF2DF0E0E45BF84AA6
:104400008083F394F092015764CB80910804881F55
:104410008827881FE5CB8091A80483FB882780F933
:10442000DFCB933009F4EECBD8011A968C93BFEF13
:10443000CB1ADB0A005F1F4FE3E0CE16D10409F070
:1044400094CB80910A57882311F40C94D12B1092AD
:104450000A57209009572FAA822D90E006E1209E4E
:10446000F0011124E453F24A26E1833098F43489B0
:1044700031110DC0289FD001299FB00D1124A453E4
:10448000B24A50961D921D921D921C925397769699
:104490000196EBCF109108576F961FAF6F97812F42
:1044A00090E02FE5129FD0011124A255B74A25E1D3
:1044B0008C30B8F51C963C911C9731112EC0289F6A
:1044C000F001299FF00D1124E053F34A108A118A5C
:1044D000128A138AFD01EC54F109108211821282B2
:1044E00013823496108211821282138214821582F2
:1044F000168217821D921C92119712961D921C9281
:10450000139714961D921D921D921C921797189640
:104510001D921D921D921C921B970196A15ABF4F8E
:10452000C7CF2CE538E5D70117964D915C911897C8
:104530004115510589F013968D919D910D90BC9177
:10454000A02D840F951FA11DB11DF70183839483B6
:10455000A583B68317821086F0E1EF0EF11C2E15AD
:104560003F0509F720904B4030904C400CEC1DE586
:104570000BAF1CAF10E000E04FA8041508F0EAC034
:104580007801B3E0EE0CFF1CBA95E1F7E20CF31CE6
:10459000F701E058FF4F20813181428153816481CE
:1045A000758186819781D1014D905D906D907C9051
:1045B0000E949E314B015C01C301B2010E94272F72
:1045C0009B01AC01C501B4010E940131B6E1B09F6D
:1045D0009001B19F300D1124F901E453F24AEBAB85
:1045E000FCAB608B718B828B938BF70120853185BF
:1045F000428553856485758586859785D1014D9063
:104600005D906D907C90139780848DAE91846996B7
:104610009FAE6997A2842A96AFAE2A97B3842E964E
:10462000BFAE2E97C4846296CFAE6297D58466964D
:10463000DFAE6697868467968FAE67979784689695
:104640009FAE6897CD90DD90ED90FC90ABA9BCA992
:1046500050968D909D90AD90BC90539729968CAEBE
:104660009DAEAEAEBFAE29970E949A314B015C0160
:10467000C301B2010E94272F9B01AC01C501B40107
:104680000E9401314B015C012DAD69963FAD6997E8
:104690002A964FAD2A972E965FAD2E9762966FADF4
:1046A000629766967FAD669767968FAD67976896B7
:1046B0009FAD68970E949A319B01AC01C501B4017E
:1046C0000E94882F4B015C01C701B6010E94272F71
:1046D0009B01AC01C501B4010E9401319B01AC01F9
:1046E00029966CAD7DAD8EAD9FAD29970E949C3013
:1046F000EBA9FCA9608B718B828B938B608971898C
:10470000828993890E944732ABA9BCA950966D93C8
:104710007D938D939C93539750966D917D918D9140
:104720009C915397EBADFCAD218132814381548143
:104730000E94882FABA9BCA950966D937D938D9351
:104740009C9353970F5F1F4FEBADFCAD7696EBAF8D
:10475000FCAF12CFF10184819581A681B781808160
:104760009181A281B38180910757809105579091E3
:1047700006570EEA18E50BAF1CAF0CE518E50BABBE
:104780001CAB69961FAE69974C01B12CA12CE79622
:104790008CAE9DAEAEAEBFAEE7976F969FAC6F97F7
:1047A0006996AFAC69979A1409F499C4ABA9BCA9EE
:1047B0000D90BC91A02DAFABB8AF1F968C91B8E017
:1047C0008B9F80011124020D131DF801E058FF4F4B
:1047D00020813181428153816481758186819781F5
:1047E000F10180809180A280B3800E949E316B0194
:1047F0007C01C501B4010E94272F9B01AC01C701B8
:10480000B6010E940131AFA9B8AD50966D937D936A
:104810008D939C935397F80120853185428553856C
:104820006485758586859785D1014D905D906D90E5
:104830007C90139780848DAE91842A969FAE2A97A0
:10484000A2842E96AFAE2E97B3846296BFAE6297C7
:10485000C4846696CFAE6697D5846796DFAE6797B9
:10486000E6846896EFAE6897F7846A96FFAE6A971B
:10487000CD90DD90ED90FC90AFA9B8AD50968D90A5
:104880009D90AD90BC90539729968CAE9DAEAEAEE8
:10489000BFAE29970E949A314B015C01C301B2015E
:1048A0000E94272F9B01AC01C501B4010E94013178
:1048B0004B015C012DAD2A963FAD2A972E964FAD48
:1048C0002E9762965FAD629766966FAD6697679614
:1048D0007FAD679768968FAD68976A969FAD6A9728
:1048E0000E949A319B01AC01C501B4010E94882F3E
:1048F0004B015C01C701B6010E94272F9B01AC014F
:10490000C501B4010E9401319B01AC0129966CAD37
:104910007DAD8EAD9FAD29970E949C30EFA9F8AD7B
:10492000608B718B828B938B60897189828993896B
:104930000E944732AFA9B8AD50966D937D938D9389
:104940009C93539750966D917D918D919C91539727
:1049500011968D909D90AD90BC9014972D968CAE35
:104960009DAEAEAEBFAE2D97A50194010E94882FDB
:10497000EFA9F8AD608B718B828B938BF801E850B7
:10498000FF4F20813181428153816481758186810D
:104990009781E858FF4F40802E964FAE2E9751805A
:1049A00062965FAE6297828066968FAE66979380BE
:1049B00067969FAE6797A4806896AFAE6897B580FC
:1049C0006A96BFAE6A97C680A096CFAEA097D780F2
:1049D000A196DFAEA197D1018D909D90AD90BC9036
:1049E000F801F085A296FFAFA297D8011996BC9165
:1049F000A396BFAFA397F801F285A496FFAFA49743
:104A0000D8011B96BC91A596BFAFA597F801F48578
:104A1000A696FFAFA697D8011D96BC91A796BFAFEB
:104A2000A797F801F685A896FFAFA897D8011F961B
:104A3000BC91A996BFAFA997F101408051806280D7
:104A40007380ABA9BCA912960D90BC91A02D27969E
:104A5000AEAFBFAF27971F96EC91F0E03196A3E081
:104A6000EE0FFF1FAA95E1F7E20DF31DC080AA9695
:104A7000CFAEAA97D180AB96DFAEAB97E280AC9673
:104A8000EFAEAC97F380AD96FFAEAD97C480AE9617
:104A9000CFAEAE97D580AF96DFAEAF97E680E0960B
:104AA000EFAEE097F780E196FFAEE197D101CD90B0
:104AB000DD90ED90FC902196CCAEDDAEEEAEFFAE7B
:104AC00021970E949A31EBA9FCA922A133A144A10C
:104AD00055A10E94882F6B017C012E962FAD2E9739
:104AE00062963FAD629766964FAD669767965FADEB
:104AF000679768966FAD68976A967FAD6A97A0963C
:104B00008FADA097A1969FADA1970E949A31ABA9B6
:104B1000BCA996962D913D914D915C9199970E94DB
:104B2000882F9B01AC01C701B6010E949D306B012B
:104B30007C01C501B4010E94272F9B01AC01C70174
:104B4000B6010E9401316B017C01A2962FADA297A4
:104B5000A3963FADA397A4964FADA497A5965FAD3E
:104B6000A597A6966FADA697A7967FADA797A8968F
:104B70008FADA897A9969FADA9970E949A314B0136
:104B80005C01C301B2010E94272F9B01AC01C5014A
:104B9000B4010E9401314B015C01AA962FADAA9786
:104BA000AB963FADAB97AC964FADAC97AD965FADC6
:104BB000AD97AE966FADAE97AF967FADAF97E096DF
:104BC0008FADE097E1969FADE1970E949A319B01EE
:104BD000AC01C501B4010E94882F4B015C012196F4
:104BE0006CAD7DAD8EAD9FAD21970E94272F9B01AF
:104BF000AC01C501B4010E9401319B01AC01C701A8
:104C0000B6010E949C306B017C012796EEADFFAD92
:104C1000279721813281438154812D966CAD7DADE2
:104C20008EAD9FAD2D970E94882FA70196010E94FF
:104C3000882F61966CAF7DAF8EAF9FAF6197ABA9A8
:104C4000BCA914960D90BC91A02DADAFBEAF279618
:104C50004EAC5FAC279720E030E0A9014A165B0616
:104C600009F452C1F801E851FE4F508066965FAEDC
:104C70006697818067968FAE6797928068969FAEA1
:104C80006897A3806A96AFAE6A97B480A096BFAECD
:104C9000A097C580A196CFAEA197D680A296DFAE91
:104CA000A297E780A396EFAEA397E858FF4F208125
:104CB0003181428153816481758186819781D101DF
:104CC0008D909D90AD90BC90F801F085A496FFAFBB
:104CD000A497D8011996BC91A596BFAFA597F801E6
:104CE000F285A696FFAFA697D8011B96BC91A79612
:104CF000BFAFA797F801F485A896FFAFA897D80192
:104D00001D96BC91A996BFAFA997F801F685AA9602
:104D1000FFAFAA97D8011F96BC91AB96BFAFAB97D8
:104D2000F1014080518062807380ADADBEAD1F96B1
:104D3000EC91F0E0319603E0EE0FFF1F0A95E1F7EA
:104D4000E20DF31DC080AC96CFAEAC97D180AD968E
:104D5000DFAEAD97E280AE96EFAEAE97F380AF9642
:104D6000FFAEAF970481E0960FAFE0971581E19613
:104D70001FAFE197C680E296CFAEE297D780E39669
:104D8000DFAEE397D101ED90FD900D911C916596FA
:104D9000ECAEFDAE0EAF1FAF65970E949A31EBA946
:104DA000FCA9FE9620813181428153810E94882F87
:104DB0006B017C0166962FAD669767963FAD67974E
:104DC00068964FAD68976A965FAD6A97A0966FAD8B
:104DD000A097A1967FADA197A2968FADA297A3961B
:104DE0009FADA3970E949A31EBA9FCA922AD33ADE8
:104DF00044AD55AD0E94882F9B01AC01C701B6019F
:104E00000E949D306B017C01C501B4010E94272FD7
:104E10009B01AC01C701B6010E9401316B017C010D
:104E2000A4962FADA497A5963FADA597A6964FAD96
:104E3000A697A7965FADA797A8966FADA897A996D6
:104E40007FADA997AA968FADAA97AB969FADAB976A
:104E50000E949A314B015C01C301B201F8D79B015A
:104E6000AC01C501B4010E9401314B015C01AC965B
:104E70002FADAC97AD963FADAD97AE964FADAE971B
:104E8000AF965FADAF97E0966FADE097E1967FADDF
:104E9000E197E2968FADE297E3969FADE3970E948C
:104EA0009A319B01AC01C501B4010E94882F4B01CE
:104EB0005C0165966CAD7DAD8EAD9FAD6597C7D736
:104EC0009B01AC01C501B4010E9401319B01AC0101
:104ED000C701B6010E949C306B017C01ADADBEAD37
:104EE00011962D913D914D915C9114972D966CAD3D
:104EF0007DAD8EAD9FAD2D970E94882FA7019601A5
:104F00000E94882F9B01AC0161966CAD7DAD8EAD8A
:104F10009FAD61970E949C304B015C0127964EAC7F
:104F20005FAC2797CDACDEAC20E030E0A9014C149B
:104F30005D0439F4D20150962D913D914D915C91D3
:104F40005397EFA9F8AD6089718982899389E0D779
:104F50002B013C01AC019B01C501B4010E94013150
:104F60006B017C0126E636E646E85FE30E943F32AD
:104F700018160CF4ADC026E636E646E85FEBC7012E
:104F8000B60161D787FDA4C0A7019601C701B6018C
:104F90000E94853281119CC0ABADBCAD1896CD92FC
:104FA000DD92ED92FC921B9720E030E040E05FE361
:104FB000C501B4010E949D300E946931ABADBCAD0A
:104FC0006D937C9320E030E040E05FE3C301B201E9
:104FD0000E949D300E946931EBADFCAD628373830A
:104FE000D1016D917D918D919C91109107572FD793
:104FF000A50194018DD76B017C01E7966CAD7DAD69
:105000008EAD9FADE79723D79B01AC01C701B601D9
:105010007FD76B017C01612F70E090E080E019D7B1
:105020009B01AC01C701B60173D720E836E948E11E
:105030005BE40E940131EBA9FCA926813781408500
:1050400051850E949D306B017C0120E030E041E6FB
:1050500055E40E9401310E946931072E000C880B33
:10506000990BABADBCAD14960D911D912D913C915A
:105070001797060F171F281F391FFD01048315837B
:1050800026833783E6D620E030E041E655E440D77A
:105090009B01AC01C701B6010E949C30ABA9BCA921
:1050A00016966D937D938D939C93199769960FAD8A
:1050B00069970F5F69960FAF6997A15ABF4FABAB66
:1050C000BCAB0BAD1CAD015A1F4F0BAF1CAF65CB7A
:1050D000EBADFCAD108611861286138665CF8091EC
:1050E0002858882309F44DC0E0912B58F0E0319600
:1050F000B3E0EE0FFF1FBA95E1F7E20DF31D20813B
:105100003181428153816481758186819781D1018A
:105110008D909D90AD90BC900E949A316B017C0166
:10512000C501B40194D69B01AC01C701B6010E9430
:1051300001316B017C01609126587091275876955A
:10514000679590E080E083D69B01AC01C701B60172
:10515000F4D720E030E040E05FE3EFD70E946E310B
:105160006093295870932A58C10188529D4F821527
:10517000930561F0F101108281010F5F1F4F18014B
:10518000F6CF1092295810922A58EECF80911757D7
:1051900090911857A0911957B0911A57892B8A2BC3
:1051A0008B2B69F480E00E944E0E6091735E7091CB
:1051B000745E8091755E9091765E0E941B0A65E038
:1051C00070E080E090E00E94DE0980911757909196
:1051D0001857A0911957B0911A570196A11DB11DEA
:1051E0008093175790931857A0931957B0931A5755
:1051F0006091DC5D7091DD5D8091DE5D9091DF5DA1
:1052000020E030E048EC52E483D60E94693160939C
:105210001B5770931C57E9E2CE2EE7E5DE2EFDE129
:10522000EF2EF7E5FF2EAEE4AA2EADE5BA2E8BE009
:1052300097E5A7019601A0EDBCE51FE554960C91FA
:10524000549770E060E0002349F0FC016081169FF4
:10525000F0011124E255F74A60817181FA016193EE
:105260007193AF01412C512C3201002359F0FC0104
:105270006081169FF0011124EE54F74A408051805E
:1052800062807380F90141925192619271929F0103
:1052900055960196AA16BB0689F680914F589091B3
:1052A0005058A0915158B0915258809341579093C3
:1052B0004257A0934357B09344578091395E882357
:1052C00009F487C08EE2E7E1F7E5DE01119601906F
:1052D0000D928A95E1F7B12CB0927D5E8DE30E942C
:1052E000E606682F64608DE30E94D9060E940F0ACB
:1052F0002B013C0180918C57803109F05BC2809179
:105300004657811157C284E20E94E60690E09195CB
:10531000819591098C349F4F0CF04CC284E00E941F
:10532000F20684E00E94F20687E20E94E60687FF0A
:10533000FBCF0E94CB0680E80E94B40681E30E9466
:10534000B40685E00E94B40680917C5E0E94B4069B
:1053500080E40E94B4068E010F5F1F4FD8018D912B
:105360008D010E94B40629A83AA820163106B1F78B
:105370000E94A6068CE00E94F20688E20E94E606E1
:1053800083FFFBCF84E00E94F2060E940F0A2B01EC
:105390003C010E940F0A64197509860997096E314C
:1053A00071058105910508F014C20E94330D882310
:1053B00081F38091495790914A57059751F7809111
:1053C0004557882331F362E370E080E090E00E946B
:1053D000DE098090175790901857A0901957B090F9
:1053E0001A5780917B5E882309F4F9C181EE9CE015
:1053F0000E9448094AE0C501B4010E94950B8DED59
:105400009CE00E94480981E090E00E94F60B8EE249
:1054100091E40E94CE0B60911B5770911C57072E90
:10542000000C880B990B15D52AE037ED43E25CE3BD
:105430006FD542E00E94050C01E010E089ED9CE090
:105440000E944809C8010E94F60B8EE291E40E9476
:10545000CE0BD7018D919D917D010E94F60B0F5FC0
:105460001F4F0730110551F701E010E085ED9CE07A
:105470000E944809C8010E94F60B8EE291E40E9446
:10548000CE0BF60161917191819191916F010E9412
:10549000CF0B0F5F1F4F0730110541F78BEC9CE0DE
:1054A0000E9448096091415770914257809143573B
:1054B000909144574AE00E94950B89EC9CE00E9431
:1054C000850B6CE370E080E090E00E94DE0981E0F3
:1054D0000E944E0E62E370E080E090E00E94DE09E0
:1054E00080E00E944E0E20904157309042574090ED
:1054F0004357509044572BAA3CAA4DAA5EAA40900D
:105500003D5750903E5760903F5770904057809164
:10551000395790913A57A0913B57B0913C574091E1
:1055200035575091365760913757709138570091E1
:105530003157109132572091335730913457C090E2
:105540002D57D0902E57E0902F57F09030578090E5
:10555000295790902A57A0902B57B0902C57E09144
:105560000E5EF0910F5E14012E1A3F0AF10137FE14
:1055700003C0F195E195F109E83CF1050CF064C038
:10558000E091125EF091135E16012E1A3F0AF101AE
:1055900037FE03C0F195E195F109E83CF1050CF007
:1055A00053C0E091165EF091175E18012E1A3F0A63
:1055B000F10137FE03C0F195E195F109E83CF105F1
:1055C0000CF042C0E0911A5EF0911B5E1A012E1A97
:1055D0003F0AF10137FE03C0F195E195F109E83C7E
:1055E000F10594F5E0911E5EF0911F5E1C012E1AEC
:1055F0003F0AF10137FE03C0F195E195F109E83C5E
:10560000F10514F5E091225EF091235E12012E1A4D
:105610003F0AF10137FE03C0F195E195F109E83C3D
:10562000F10594F4E091265EF091275E2BA83CA84A
:105630002E1A3F0AF10137FE03C0F195E195F109F9
:10564000E83CF1050CF4ADC080920E5E90920F5EC6
:10565000A092105EB092115EC092125ED092135E64
:10566000E092145EF092155E0093165E1093175E42
:105670002093185E3093195E40931A5E50931B5E20
:1056800060931C5E70931D5E80931E5E90931F5E00
:10569000A093205EB093215E4092225E5092235EE2
:1056A0006092245E7092255E8BA89CA8ADA8BEA8CF
:1056B0008092265E9092275EA092285EB092295E2C
:1056C00000912E5E10912F5E0115110549F1C80160
:1056D000957189839A83CE0101960E948F0A90E08A
:1056E0008093305E9093315E09831A836FEFCE0111
:1056F00001960E94F60A80912E5E90912F5E209175
:105700002C5E30912D5E820F931F80932E5E9093BE
:105710002F5E2091345E3091355E8217930744F0FE
:105720008091325E9091335E80932E5E90932F5ED7
:105730008091305E9091315E880F991F992781602A
:105740008F3F910509F429C18093305E9093315EBB
:105750006091305E80912E5E90912F5E89839A8356
:10576000CE0101960E94F60A00912E5E10912F5EE6
:105770008AE2E82E8EE5F82E9EE0C92E9EE5D92E0F
:105780000D501E45C8018C0D9D1D89839A83D6013D
:105790006D916D01CE0101960E94F60AEC14FD0494
:1057A00089F7A89564E170E080E090E00E94DE094E
:1057B0000C94CC1C0E940F0A64197509860997097C
:1057C000683E73408105910508F0ABCD0E94330D12
:1057D00091CDB39473E0372EB3107ECDF4CD84EC2D
:1057E0009CE00E9448094AE0C501B4010E94950B63
:1057F00081EC9CE00E94480981E090E00E94F60B59
:105800008FE291E40E94CE0B60911B5770911C5760
:10581000072E000C880B990B1CD32AE037ED43E2CE
:105820005CE376D342E00E94050C01E010E08EEBD1
:105830009CE00E944809C8010E94F60B8FE291E4A7
:105840000E94CE0BD7018D919D917D010E94F60B98
:105850000F5F1F4F0730110551F701E010E08BEB90
:105860009CE00E944809C8010E94F60B8FE291E477
:105870000E94CE0BF60161917191819191916F011E
:105880000E94CF0B0F5F1F4F0730110541F783EBCD
:105890009CE00E9448096091415770914257809165
:1058A0004357909144574AE00E94950B80917A5E4D
:1058B000811107C00E94820B68E270E080E090E0F6
:1058C00004CE50EDE52E5CE5F52E10E000E065E13C
:1058D000B62E80EB9CE00E94480968010F5F1F4FC5
:1058E000C8010E94F60B8FE291E40E94CE0BD70113
:1058F00054968C91882309F448C0BC9CF001BD9C4F
:10590000F00D1124E053F34A6089718982899389EB
:1059100043E00E94050CB5E1EB0EF11C06301105C9
:10592000C1F630EDE32E3CE5F32E01E010E04FE54B
:10593000D42E8CEA9CE00E944809C8010E94F60B14
:105940008FE291E40E94CE0BF7018489882309F14C
:10595000F801E65FF84AE081DE9EF0011124EA5486
:10596000F74A608171818281938144E00E94050C35
:105970000F5F1F4FF5E1EF0EF11C07301105C9F65F
:1059800060E570E080E090E0A0CD60E070E0CB01E9
:10599000BFCF60E070E0CB01E8CF8EEF90E0D4CED7
:1059A0006F2D81E00E94730E6C010C94A51E602F78
:1059B00081E00E94730E6C016F2D8E2D0E949F0E50
:1059C00025966CAF7DAF8EAF9FAF25970C94A51E2B
:1059D0008F929F92AF92BF92CF92DF92EF92FF92FF
:1059E000CF93DF93EC01688179818A819B81611576
:1059F00071058105910521F464E279ED8BE597E06D
:105A00002DE133EF41E050E03AD349015A019B01C7
:105A1000AC01A7EAB1E44FD36B017C01ACEEB4EF6B
:105A2000A501940154D3C60ED71EE81EF91EF7FE39
:105A300006C081E0C81AD108E10880E8F80AC882E7
:105A4000D982EA82FB82C701B6019F77DF91CF91AD
:105A5000FF90EF90DF90CF90BF90AF909F908F908E
:105A600008958F929F92AF92BF92CF92DF92EF9262
:105A7000FF9260914D4070914E4080914F409091C7
:105A80005040611571058105910521F464E279EDBD
:105A90008BE597E02DE133EF41E050E0F0D2490192
:105AA0005A019B01AC01A7EAB1E405D36B017C016B
:105AB000ACEEB4EFA50194010AD3C60ED71EE81EC2
:105AC000F91EF7FE06C081E0C81AD108E10880E897
:105AD000F80AC0924D40D0924E40E0924F40F09272
:105AE0005040C701B6019F77FF90EF90DF90CF90B5
:105AF000BF90AF909F908F90089560934D407093AA
:105B00004E4080934F4090935040089566277727EA
:105B100025C0FC0188279927E89421912032E9F3D8
:105B2000293010F02E30C8F32B3239F02D3231F4F9
:105B3000689403C00BD0820F911D219120532A300D
:105B4000C8F31EF4909581959F4F08957AE0979F32
:105B5000902D879F802D910D112408958F929F92F3
:105B6000AF92BF92CF92DF92EF92FF920F931F936B
:105B7000CF93DF935C017B016115710519F0DB01A7
:105B80008D939C9385010F5F1F4FF501D0818D2F61
:105B900090E039D16C01892BA9F5DD32A9F50F5FB1
:105BA0001F4FD5011196DC91C1E05801F1E0AF1A09
:105BB000B10843E050E06CEF72E0C5012CD1892BB5
:105BC00061F5680182E0C80ED11C45E050E067EF46
:105BD00072E0C60120D1892B21F4680197E0C90E3B
:105BE000D11CE114F10419F0D701CD92DC9260E0F0
:105BF00070E080E89FEFC111F9C060E070E080E8DC
:105C00009FE7F4C05801BECFDB3229F485010E5F57
:105C10001F4FF501D181C0E0C8CF43E050E064EFF1
:105C200072E0C501F8D0892BE9F0F80110E000E03E
:105C300020E030E0A9015F01B0ED8B2E8D0E89E0F0
:105C40008815C0F19C2E689491F88C2F8870C2FF43
:105C500016C0811102C00F5F1F4F3196D501DC9134
:105C6000C92DE9CFE114F10429F00E5F1F4FF701B0
:105C70000083118360E070E080EC9FE7B7C0882369
:105C800011F001501109A5E0B0E015D29B01AC0163
:105C9000220F331F441F551F280D311D411D511D5B
:105CA000283999E93907490799E15907B0F2C660DF
:105CB0009C2ED3CFAEEF8A1206C0C3FD3CC09C2EF3
:105CC000689493F8CACFDF7DD534A9F580818D32F1
:105CD00039F4C061DF011296818162E070E006C094
