:10020000DCC6000004C7000002C700000C94501DAB
:10021000FEC60000FCC60000FAC60000F8C60000DA
:100220000C948F1DF4C60000F2C60000F0C600005A
:10023000EEC60000ECC60000EAC60000E8C60000FA
:10024000E6C60000E4C60000E2C60000E0C600000A
:10025000DEC60000DCC60000DAC60000D8C600001A
:100260000C94861DD4C600000C94DD1DD0C6000081
:10027000CEC60000CCC600000C94891D0C94581DFD
:10028000C6C60000C4C60000C2C600000C94801D93
:10029000BEC60000BCC60000BAC60000B8C600005A
:1002A000B6C60000B4C60000B2C60000B0C600006A
:1002B000AEC600000C948C1D0C94831DA8C60000D3
:1002C000A6C60000A4C60000A2C60000A0C600008A
:1002D0009EC600000C94E21C0C94DD1C0C94E71CE0
:1002E00096C6000094C6000092C6000090C60000AA
:1002F0008EC6000005A84CCDB2D44EB93836A9023E
:100300000C50B9918688083CA6AAAA2ABE00000013
:10031000803F4E414E494E495459494E46CDCCCC72
:100320003D0AD7233C17B7D13877CC2B329595E6C9
:10033000241FB14F0A000020410000C84200401CA9
:100340004620BCBE4CCA1B0E5AAEC59D744E6F20D3
:10035000454550524F4D20636F6E666967004C6F84
:100360006164656420454550524F4D20636F6E6651
:100370006967004E6F2074656D7065726174757287
:10038000652073656E736F72732064657465637442
:1003900065642C2064697361626C696E67207465A2
:1003A0006D7065726174757265005265666572651F
:1003B0006E636520766F6C746167652063616C693C
:1003C00062726174696F6E3A20002000204E6F6483
:1003D000653A20002047726F75703A200039313538
:1003E0004D487A003836384D487A003433334D481A
:1003F0007A0020467265713A200052464D363943E4
:100400005720004F70656E456E657267794D6F6E4F
:1004100069746F722E6F726700656D6F6E547835F8
:100420005F434D5F3643545F74656D7065726174F0
:100430007572652056004A534F4E20466F726D61AB
:1004400074204F6666004A534F4E20466F726D61AE
:1004500074206F6E005246206F6666005246206F11
:100460006E0074656D705F656E61626C65203D2025
:100470000070756C736520706572696F64203D2033
:100480000070756C736573203D2000646174616C4D
:100490006F67203D200069364C656164203D200077
:1004A000693643616C203D200069354C65616420EC
:1004B0003D2000693543616C203D200069344C6566
:1004C0006164203D2000693443616C203D20006957
:1004D000334C656164203D2000693343616C203DED
:1004E000200069324C656164203D2000693243611F
:1004F0006C203D200069314C656164203D2000691D
:100500003143616C203D2000617373756D656456E5
:10051000203D20007643616C203D200043616C69E2
:1005200062726174696F6E3A002064426D002C2023
:10053000002C204E6F64652000204D487A2C204707
:10054000726F7570200042616E6420005365747490
:10055000696E67733A000A00202868696464656EF2
:10056000292E00206279746573002C204461746127
:100570002073697A653A2000205369676E6174754B
:1005800072653A20004E6F206461746120626C6F66
:10059000636B20666F756E64202D20454550524F69
:1005A0004D206170706561727320746F20626520E8
:1005B000666F726D617474656420746F204F454D71
:1005C000205374616E646172642062757420756E6C
:1005D000757365642E000A002062797465732C209F
:1005E0006E6F7420666F726D617474656420746FD1
:1005F000204F454D205374616E64617264005369ED
:100600007A653A2000446F6E652E204E6577206330
:100610006F6E66696720736176656420746F20452C
:100620004550524F4D00536176696E672E2E2E0055
:10063000536B657463682077696C6C206E6F7720EC
:1006400072657374617274207573696E6720646576
:100650006661756C7420636F6E6669672E00526503
:1006600073657474696E672E2E2E0020000A417621
:1006700061696C61626C6520636F6D6D616E64733E
:100680003A0A6C09092D206C69737420746865201E
:1006900073657474696E67730A7209092D20726537
:1006A00073746F726520736B65746368206465662C
:1006B00061756C74730A7309092D20736176652066
:1006C00073657474696E677320746F20454550526A
:1006D0004F4D0A7609092D2073686F77206669727D
:1006E0006D776172652076657273696F6E0A7A093B
:1006F000092D207A65726F20656E657267792076A4
:10070000616C7565730A7809092D20657869742C08
:10071000206C6F636B20616E6420636F6E74696E12
:1007200075650A3F09092D2073686F772074686921
:1007300073207465787420616761696E0A0A773C7A
:10074000783E09092D207475726E2052464D20574F
:100750006972656C6573732064617461206F66668D
:100760003A2078203D2030206F72206F6E3A20783A
:10077000203D20310A623C6E3E09092D20736574CC
:1007800020722E662E2062616E64206E203D2061F4
:100790002073696E676C65206E756D6572616C3A69
:1007A0002034203D203433334D487A2C2038203DEE
:1007B000203836384D487A2C2039203D20393135C3
:1007C0004D487A20286D617920726571756972656E
:1007D000206861726477617265206368616E676525
:1007E000290A703C6E6E3E09092D207365742074D1
:1007F000686520722E662E20706F7765722E206ECF
:100800006E202D20616E20696E74656765722030E0
:10081000202D20333120726570726573656E7469A6
:100820006E67202D31382064426D20746F202B318B
:10083000332064426D2E2044656661756C743A20E5
:10084000323520282B372064426D290A673C6E6EB2
:100850006E3E092D20736574204E6574776F726B40
:100860002047726F757020206E6E6E202D20616E95
:1008700020696E746567657220284F454D20646558
:100880006661756C74203D20323130290A6E3C6EF1
:100890006E3E09092D20736574206E6F64652049D2
:1008A00044206E3D20616E20696E7465676572201C
:1008B000287374616E64617264206E6F6465206970
:1008C00064732061726520312E2E3630290A0A6445
:1008D0003C78782E783E092D2078782E78203D209F
:1008E0006120666C6F6174696E6720706F696E74E9
:1008F000206E756D62657220666F72207468652067
:10090000646174616C6F6767696E67207065726996
:100910006F640A633C6E3E09092D206E203D203035
:1009200020666F72204F46462C206E203D203120DD
:10093000666F72204F4E2C20656E61626C6520766A
:100940006F6C746167652C2063757272656E7420BC
:100950002620706F77657220666163746F722076EF
:10096000616C75657320746F2073657269616C20AA
:100970006F757470757420666F722063616C696244
:10098000726174696F6E2E200A6A3C6E3E09092DF1
:10099000207475726E204A534F4E20536572696100
:1009A0006C20666F726D6174206F6E202831292073
:1009B0006F72206F6666202830292E0A663C787890
:1009C0003E09092D207878203D20746865206C69E7
:1009D0006E65206672657175656E637920696E203B
:1009E000487A3A206E6F726D616C6C79206569741B
:1009F000686572203530206F722036300A6B3C7883
:100A00003E203C79792E793E203C7A7A2E7A3E0A35
:100A100009092D2043616C69627261746520616E01
:100A200020616E616C6F67756520696E70757420EA
:100A30006368616E6E656C3A0A0909202078203D72
:100A400020612073696E676C65206E756D657261DB
:100A50006C3A2030203D20766F6C746167652063AE
:100A6000616C6962726174696F6E2C2031203D2067
:100A70006374312063616C6962726174696F6E2C9A
:100A80002032203D206374322063616C69627261A0
:100A900074696F6E2C206574630A090920207979C6
:100AA0002E79203D206120666C6F6174696E67202D
:100AB000706F696E74206E756D62657220666F72FC
:100AC0002074686520766F6C746167652F6375723A
:100AD00072656E742063616C6962726174696F6EB5
:100AE00020636F6E7374616E740A090920207A7A2C
:100AF0002E7A203D206120666C6F6174696E6720DC
:100B0000706F696E74206E756D62657220666F72AB
:100B1000207468652070686173652063616C696228
:100B2000726174696F6E20666F72207468697320D9
:100B3000632E742E20287A206973206E6F74206EC5
:100B400065656465642C206F722069676E6F7265DD
:100B50006420696620737570706C6965642C2077F9
:100B600068656E2078203D2030290A09092020651B
:100B70002E672E206B30203235362E380A09092098
:100B80002020202020206B312039302E3920322E99
:100B900030300A613C78782E783E092D2078782E06
:100BA00078203D206120666C6F6174696E672070EB
:100BB0006F696E74206E756D62657220666F72204B
:100BC00074686520617373756D656420766F6C74ED
:100BD000616765206966206E6F20612E632E206933
:100BE000732064657465637465640A6D3C783E20A7
:100BF0003C79793E092D206D657465722070756CA5
:100C0000736520636F756E74696E673A0A0909200F
:100C1000202078203D203020666F72204F46462CE1
:100C20002078203D203120666F72204F4E2C203CD2
:100C300079793E203D20616E20696E74656765722A
:100C400020666F72207468652070756C7365206D06
:100C5000696E696D756D20706572696F6420696E6B
:100C6000206D732E202879206973206E6F74206E9A
:100C700065656465642C206F722069676E6F7265AC
:100C800064207768656E2078203D2030290A743C06
:100C9000783E09092D207475726E2074656D70653B
:100CA000726174757265206D6561737572656D65CD
:100CB0006E74206F6E206F72206F663A2078203D30
:100CC0002030206F72206F6E3A2078203D20310A4C
:100CD00000456E657267792076616C756573207367
:100CE000657420746F207A65726F00436F6E74694B
:100CF0006E75696E672E2E2E005246206F66660056
:100D00005246206F6E00656D6F6E5478355F434DAF
:100D10005F3643545F74656D70657261747572659A
:100D200020560054656D7065726174757265206F30
:100D300066660054656D7065726174757265206FCA
:100D40006E002064426D0070203D20004E6F64658F
:100D500020006F666600206D730050756C736573BC
:100D60003A20002000200043616C3A206B0047725B
:100D70006F75702000467265713A20002073006420
:100D80006174616C6F6720706572696F643A2000EE
:100D9000204D487A00005EBCE2613FDD83C29C7E4C
:100DA00020A3FD1F41009D23BE46DB65F88C11AFDB
:100DB00032CA57E9742C7066363A002C7066353AA0
:100DC000002C7066343A002C7066333A002C706642
:100DD000323A002C7066313A002C49363A002C49E0
:100DE000353A002C49343A002C49333A002C493228
:100DF0003A002C49313A002C70756C73653A002C1E
:100E000054333A002C54323A002C54313A002C45D9
:100E1000363A002C45353A002C45343A002C4533FF
:100E20003A002C45323A002C45313A002C50363AE3
:100E3000002C50353A002C50343A002C50333A00F4
:100E40002C50323A002C50313A002C56726D733AC5
:100E5000004D53473A007D002C2270756C7365225B
:100E60003A002C225433223A002C225432223A00E7
:100E70002C225431223A002C224536223A002C22D0
:100E80004535223A002C224534223A002C224533A3
:100E9000223A002C224532223A002C224531223AB5
:100EA000002C225036223A002C225035223A002CB7
:100EB000225034223A002C225033223A002C225065
:100EC00032223A002C225031223A002C2256726DE6
:100ED00073223A007B224D5347223A0020560041AC
:100EE00043206D697373696E67202D2041707061B6
:100EF00072656E7420506F7765722063616C632039
:100F0000656E61626C65642C20617373756D696ECA
:100F100067200041432070726573656E74202D2038
:100F20005265616C20506F7765722063616C63203D
:100F3000656E61626C65640020656E61626C6564FB
:100F40002E0054656D7065726174757265206D65F3
:100F500061737572656D656E742069730053656E9B
:100F6000736F72206D6179206E6F742062652072DC
:100F7000656C6961626C6500200030002C20776927
:100F80007468206164647265737365732E2E2E001D
:100F900054656D70657261747572652053656E730A
:100FA0006F727320666F756E64203D20000A00002A
:100FB000080A400CFFC000C0592111241FBECFEF0A
:100FC000CDBFDFE7DEBF11E4A0E0B0E4E2E7FBE77E
:100FD00000E00BBF02C007900D92A837B107D9F708
:100FE00026E4A8E7B1E401C01D92A53DB207E1F7F0
:100FF00017E0CDEDD7E004C02197FE010E947F3DB0
:10100000CC3DD107C9F70E9445230C94B73DF8C8E1
:10101000CF93DF93282F30E09FEF893220F5E9014D
:10102000C951DF4B98819F3FE9F0F901E254FF4B32
:10103000A08140E2A49FD0011124BC5FF901EB56CE
:10104000FF4BE081E830C0F5AD01405F5F4FE40F3A
:10105000F52FF11D4FB7F89412969C939081977FCE
:1010600090834FBF988190930346893240F5225474
:101070003F4BF9018081F4E08F9FC00111248093E0
:1010800004469093054610920E4610921046109218
:101090000F4610920D4610920C4610920B4610927D
:1010A0000A4610920946109208461092074610927E
:1010B0000646DF91CF910895F0E0E0E0CBCF8CEFD2
:1010C00093E0DDCF90910346E0910446F091054610
:1010D000292F209580FF15C0F89481818223818378
:1010E0008081892B808380E58A95F1F78181982B17
:1010F00091837894A9E4B1E01197F1F700C0000062
:101100000895F8948181822381838081892B808353
:10111000A5E8B1E01197F1F700C000008181982B9C
:1011200091837894B8E2BA95F1F7089580910346D7
:10113000E0910446F0910546F8949081982B9083B5
:101140002181382F30952323218398E19A95F1F757
:1011500090819323908390E59A95F1F7928178940A
:10116000EDE3F1E03197F1F700C00000982381E052
:1011700009F480E00895893260F590E0FC01EB56B7
:10118000FF4BE081EF3F29F182549F4BDC018C91B2
:1011900090E0DC01AA0FBB1FAA5ABF4B2D913C91D6
:1011A00021153105B1F04E2F50E0440F551F240F8B
:1011B000351FD9016D937C93E05FA5E0880F991FDF
:1011C000AA95E1F7E80FF0E0FC5F8081887F8260FC
:1011D000808308958091CE468D3011F42D9A089524
:1011E000873011F40F9A0895813109F44B9A0895CC
:1011F00000009091D246911109C0809344098091DA
:10120000430987FFFCCF80914409089580936409C6
:101210008091630987FFFCCF8091640908958091D4
:10122000CE468D3011F42D980895873011F40F9823
:101230000895813109F44B980895CF93DF93D82F07
:10124000C62FEDDF8D2F8068D3DF8C2FD1DFDF91AC
:10125000CF91C0CFCF93C82FE2DF8C2FC9DF80E0C2
:10126000C7DFC82FB7DF8C2FCF910895CF93909110
:101270005A45981791F0C82F81E0ECDF837E682FE4
:101280006C2B81E0DADF80915A45811104C087E23E
:10129000E1DF87FFF8CFC0935A45CF9108950F93B0
:1012A0001F93CF93DF93EC0184E0E0DF2097D9F028
:1012B00088818823C1F0B3DF8EEB9ADF8E01005F57
:1012C0001F4F899195DFC017D107D9F783DFC1E0A0
:1012D0008DE3C0DF8E7F682F6C2B8DE3DF91CF9184
:1012E0001F910F91AACFC0E0F3CF10921945109231
:1012F00017451092184510921545109216451092F8
:1013000014451092134588E2A5DF82FF06C08DE3E5
:10131000A1DF682F64608DE390DF80E1A7CFAF92FB
:10132000BF92CF92DF92EF92FF920F931F93CF93D2
:10133000DF936C017B018B01040F151FEB015E0134
:10134000AE18BF08C017D10759F06991D601ED91C9
:10135000FC910190F081E02DC6010995892B79F768
:10136000C501DF91CF911F910F91FF90EF90DF901A
:10137000CF90BF90AF900895FC0155894689252FE5
:1013800030E0842F90E0821B930B541710F0CF961F
:10139000089501970895FC0193898489981761F055
:1013A000A489AE0FBF2FB11D57968C9194899F5F72
:1013B0009F73948B90E008958FEF9FEF0895FC0149
:1013C00093898489981731F08489E80FF11D878902
:1013D00090E008958FEF9FEF0895FC019389248991
:1013E000892F90E0805C9F4F821B91098F73992712
:1013F0000895CF93DF93EC01E881F9810680F781AE
:10140000E02D0995EC85FD85868116828581158202
:1014100080E484838C898B8B1A8ADF91CF91089525
:101420008F929F92AF92BF92FF920F931F93CF9391
:10143000DF938C014A015B01D22FC32FDC0152964E
:101440008C91529780FF07C0ED91FC910288F3893F
:10145000E02DC8010995D11101C0D3E0FD2EE8941B
:10146000F2F8DC2FD095D07CB1E68B16B3EE9B065C
:10147000B6E1AB06B10428F0D260B694A794979475
:10148000879460E078ED88EB95E0A50194010E94D7
:10149000273BC9012034310510F480E490E03C2F53
:1014A0003B72D7FD30684D2F487C30FD41605FB7FF
:1014B000F894D8011C96ED91FC911682F7828087F2
:1014C000918735FF8FC04F7781E084878FEF8587C5
:1014D0003F7D3583D683F8012189C089868597852C
:1014E000FC0133E0239FE00DF11D112465917491FF
:1014F0002C1708F059C0272F46FF76C0793288F4A0
:1015000030E0F901E951FF4BA081AF3F51F0225487
:101510003F4BF901308120E2329FF0011124FC5F42
:10152000A18347FF2AC021E0270F293230F530E0A0
:10153000F901E951FF4BD081DF3FF9F0F901E254A5
:10154000FF4BA081F0E2AF9FD0011124BC5F2B566E
:101550003F4BF9011081F0E0E0E0183030F49D01DC
:10156000205F3F4FF901E10FF11D3FB7F89412964C
:10157000DC932081286020833FBF40FF15C023E01B
:10158000270F293288F430E0F901E951FF4B4081FF
:101590004F3F51F022543F4BD901EC91B0E2EB9F09
:1015A000F0011124FC5F4183FC0123E0C29FE00DA8
:1015B000F11D1124319625913491F901FF27EE5147
:1015C000FA4F9081832F80958923682B60835FBFBA
:1015D000DF91CF911F910F91FF90BF90AF909F909F
:1015E0008F900895148674CF342F307509F499CFF5
:1015F000793208F096CF30E0F901E951FF4BD08104
:10160000DF3F09F48ECFF901E254FF4BA081E0E205
:10161000AE9FD0011124BC5F2B563F4BF9011081C6
:10162000F0E0E0E0183030F49D01205F3F4FF90119
:10163000E10FF11D3FB7F8941296DC9320812860EA
:1016400020833FBF6ECFFC010FB607FE04C0809120
:1016500011018823A9F0A485B58514968C9114975F
:1016600085FF0EC095898689981739F015968C915B
:1016700015978F7D15968C930895E8940C94F21C21
:1016800008950F931F93CF93DF93EC018A89982FCE
:1016900091609A8B2D899E8929130AC0EC85FD855E
:1016A000948195FF05C081FD0DC080E4848312C044
:1016B000062F1D891F5F1F738E89811315C0CE01F0
:1016C000C2DFFACF85818F77806490E49483EC85C4
:1016D000FD858583EC85FD85628381E090E0DF9167
:1016E000CF911F910F910895ED89EC0FFD2FF11D02
:1016F000E95AFF4F00831D8BEC85FD858A8981FFA8
:1017000009C085818F77806690E49483EC85FD85A0
:101710008583E3CF85818062FBCF0F931F93CF93A7
:10172000DF938C01D0E0C0E0F801EC0FFD1F649165
:10173000662339F08FE595E4A4DF892B11F021961B
:10174000F3CFCE01DF91CF911F910F910895682FB4
:101750008FE595E496CFCF93DF93EC018A8980FFE4
:101760000BC0EC85FD85858185FD03C0848186FDE8
:1017700003C0CE0168DFF5CFDF91CF91089581E0FE
:1017800008950F98079A20E533EC93E0179A44E107
:10179000F9013197F1F74150D9F7482F179AF9011C
:1017A0003197F1F7179A59E0F9013197F1F7515054
:1017B000D9F7415099F7915049F7E7CF9FB7F8947F
:1017C000E0912A0BF0912B0B8091260B2091104475
:1017D0003091114440911244509113449FBF80FFB7
:1017E00008C0EC3E8CE2F80720F42F5F3F4F4F4FCC
:1017F0005F4F0F011694079416940794169407945C
:1018000016940794F00116940794E00DF11D1694B8
:101810000794102C169401181694010C16940118B4
:101820001694010C1694011816941694010C1124A8
:10183000E019F109A8EEB3E00E94173B6E0F7F1F7D
:10184000811D911D08958F929F92AF92BF92CF926A
:10185000DF92EF92FF926B017C01B0DF4B015C01E4
:10186000C114D104E104F104B1F0A8DF68197909C9
:101870008A099B09683E73408105910588F321E040
:10188000C21AD108E108F10888EE880E83E0981E9C
:10189000A11CB11CE5CFFF90EF90DF90CF90BF90DF
:1018A000AF909F908F9008952FB7F8946091104457
:1018B0007091114480911244909113442FBF089568
:1018C000CF92DF92EF92FF920F931F93CF93DF930C
:1018D000082F10E096E1899FE0011124CB5ED94BDF
:1018E0008E819F81A885B985892B8A2B8B2B99F1B5
:1018F000DBDFCA88DB88EC88FD886C197D098E09DE
:101900009F09CE80DF80E884F984C616D706E806F2
:10191000F90658F48E859F85A889B9890196A11D7D
:10192000B11D8E879F87A88BB98BBEDF26E1209FD4
:10193000F001219FF00D1124EB5EF94B628B738B4C
:10194000848B958BDF91CF911F910F91FF90EF903A
:10195000DF90CF9008958E859F85A889B9890196DB
:10196000A11DB11D8E879F87A88BB98BEBCF80E01F
:10197000A7CF81E0A5CF28E030E041E071E0909171
:10198000E343E091E143F091E243A92FA095582F62
:10199000542370930F44552341F151815A235183AD
:1019A0005081592B508350E55A95F1F75181952B71
:1019B000918310920F44A9E4B1E01197F1F700C0B0
:1019C0000000440F21503109D1F661110DC0E091A2
:1019D000E143F091E24390818091E3438095982325
:1019E0009083918189238183089551815A23518362
:1019F0005081592B5083A7E6B1E01197F1F700C051
:101A000000005181952B918310920F44B8E2BA9552
:101A1000F1F7D7CF8091E343E091E143F091E243C6
:101A20009081282F2095922390833DE7315061F1DA
:101A300090E19A95F1F792819823C1F391819223D5
:101A400091839081982B9083AFE3BBE01197F1F7DE
:101A500000C0000091E090930F4490819223908306
:101A6000A3EAB1E01197F1F700C00000928198233A
:101A700081E009F080E010920F44EBE9F9E0319742
:101A8000F1F700C00000089580E00895CF92DF9242
:101A9000EF92FF920F931F93CF93DF9380911C409F
:101AA00090E025E0959587952A95E1F780959095AA
:101AB00083709927C0EFD2E002C0D595C7958A956B
:101AC000E2F72091484030914940DE010E948E3D6E
:101AD00028E13CEF4FEF5FEF0E94FB3A8091E54336
:101AE0009091E6430197280F391F2093E7433093E5
:101AF000E84320E030E04AE754E460912C407091E4
:101B00002D4080912E4090912F400E94443A0E9497
:101B10002D3C8E01DD0F220B330B6B017C01C01AB3
:101B2000D10AE20AF30AA7019601A8EEB3E00E94E7
:101B3000173B68587341810991090E94E33920914C
:101B400018403091194040911A4050911B400E941A
:101B5000C03B0E942D3C6093EB437093EC43809319
:101B6000ED439093EE43DF91CF911F910F91FF9042
:101B7000EF90DF90CF900895CF92DF92EF92FF9297
:101B80006B017C01C0922C40D0922D40E0922E40FF
:101B9000F0922F40609148407091494090E080E081
:101BA0000E94E339A70196010E94443A0E942D3C0D
:101BB0006093E5437093E64320E034E244E759E460
:101BC000C701B6010E94443A209118403091194053
:101BD00040911A4050911B400E94C03B0E942D3CF6
:101BE0006093604470936144809362449093634433
:101BF000FF90EF90DF90CF9049CFEF92FF920F933D
:101C00001F93CF93DF93E091E043CE2FD0E07E018E
:101C1000EE0CFF1CEE0CFF1CD701A05DBF4B4D93DB
:101C20005D936D937C931397B7016050704CDB010B
:101C30000D931D932D933C9313979E012C593B4B71
:101C400091E0D9019C93A82FB0E0A355BB4BEC9336
:101C5000EF5FE093E043F0E0E05EFF4B8083DF91D5
:101C6000CF911F910F91FF90EF900895DC01ED91BE
:101C7000FC91F170FC5E80810895CF92DF92EF922B
:101C8000FF920F931F93CF93DF9300D0CDB7DEB7B2
:101C90006C017C0103E010E009831A83CE010196F8
:101CA000E5DFF70181937F010F5F1F4F07301105BB
:101CB00099F7C6010F900F90DF91CF911F910F916F
:101CC000FF90EF90DF90CF9008950F931F93CF93E5
:101CD000DF9300D000D0CDB7DEB78C0119821A8215
:101CE000CE010196C3DF8F34F9F481E090E089835F
:101CF0009A83CE010196BADF8534B1F482E090E098
:101D000089839A83CE010196B1DF8D3469F481E035
:101D10000115110551F0CE010196AFDF81E02B8155
:101D20003C812017310709F080E02496CDBFDEBF4B
:101D3000DF91CF911F910F9108951F93CF93DF9360
:101D4000EC01162F93DF8117B1F09FB7809102103D
:101D5000282F227081FDFACFF8948DE984BF20935B
:101D6000001023E184BF20930010E881F981F17015
:101D7000FC5E10839FBFCE01DF91CF911F9108952C
:101D8000CF92DF92EF92FF920F931F93CF93DF9347
:101D900000D0CDB7DEB76C017C0103E010E0098311
:101DA0001A83F70161917F01CE010196C6DF0F5FB3
:101DB0001F4F0730110599F7C6010F900F90DF9163
:101DC000CF911F910F91FF90EF90DF90CF900895EA
:101DD0000F931F93CF93DF9300D0CDB7DEB7009161
:101DE000654610916646809167469091684608174F
:101DF00019079CF4C801957189839A836FEFCE010E
:101E000001969BDF109261461092624680915F4678
:101E100090916046080F191FE6CF0F900F90DF9149
:101E2000CF911F910F910895DC01ED91FC910088F5
:101E3000F189E02D23E030E00994FC0101900020BD
:101E4000E9F73197AF01481B590BBC018FE595E4C9
:101E500066CA8AE291E4F1CFCF93DF935EDCEC01B6
:101E6000F8DF8C0F9D1FDF91CF910895009709F047
:101E7000E4CF90E080E008958F929F92AF92BF925E
:101E80000F931F93CF93DF93CDB7DEB7A197CDBF4D
:101E9000DEBF19A2423008F44AE08E010F5D1F4FE9
:101EA000842E912CB12CA12CA50194010E94273BDA
:101EB000E62FB901CA01EA30B4F4E05DD801EE932F
:101EC0008D01232B242B252B79F7CD01CFDFA19674
:101ED000CDBFDEBFDF91CF911F910F91BF90AF902B
:101EE0009F908F900895E95CE9CFCF92DF92EF92B7
:101EF000FF92CF93DF9397FF17C06B017C018DE2B8
:101F000026DCEC0166277727CB016C197D098E0949
:101F10009F094AE0B1DF8C0F9D1FDF91CF91FF90A9
:101F2000EF90DF90CF9008954AE0DF91CF91FF903E
:101F3000EF90DF90CF90A0CFBC01990F880B990B49
:101F4000D4CFCF93DF93F8DFEC0183DF8C0F9D1F9D
:101F5000DF91CF9108954F925F926F927F928F920F
:101F60009F92AF92BF92CF92DF92EF92FF920F9328
:101F70001F93CF936B017C01742EAC019B010E94D7
:101F8000303D882391F08DE291E4CF911F910F9124
:101F9000FF90EF90DF90CF90BF90AF909F908F9089
:101FA0007F906F905F904F9048CF46015701E89423
:101FB000B7F82FEF3FEF4FE75FE7C501B4010E948D
:101FC000303D81110DC02FEF3FEF4FE75FE7C501B7
:101FD000B4010E94DF3918161CF481E391E4D5CFD7
:101FE0002FEF3FEF4FE75FE4C701B6010E94E43CEB
:101FF00018161CF485E391E4C8CF2FEF3FEF4FE7AD
:102000005FECC701B6010E94DF3987FDF3CF20E006
:1020100030E0A901C701B6010E94DF3910E000E0FD
:1020200087FF07C08DE293DB8C01F7FAF094F7F895
:10203000F094C0E060E070E080E09FE37C1641F047
:1020400020E030E040E251E40E94C03BCF5FF6CF99
:10205000A70196010E94593B2B013C010E942D3C97
:102060004B015C014AE008DF7C01E00EF11ECC234D
:10207000A9F1C501B4010E94E3399B01AC01C30180
:10208000B2010E94583B4B015C0189E391E4D5DE2B
:10209000E80EF91EC15010F120E030E040E251E4BA
:1020A000C501B4010E94443A2B013C010E942D3C21
:1020B0004B01B12CA12C4AE0C501B401DDDEE80ED4
:1020C000F91EC501B4010E94E3399B01AC01C301B3
:1020D000B2010E94583B4B015C01DCCFC701CF919C
:1020E0001F910F91FF90EF90DF90CF90BF90AF9036
:1020F0009F908F907F906F905F904F900895CF93B7
:10210000DF9329DFEC01A5DE8C0F9D1FDF91CF91BE
:10211000089521CFAF92BF92CF92DF92EF92FF92BC
:102120000F931F93CF93DF9300D0CDB7DEB76C0131
:102130005B0110E000E00A151B057CF57801EC0C52
:10214000FD1C85E1F822E982FA82CE0101968EDD3E
:10215000803110F480E3FBDA0F5F1F4FE982FA82CF
:10216000CE01019683DD682F70E090E080E040E1D1
:1021700083DE83E491E461DEC80187709927892BAF
:1021800019F483E491E459DEC8018F709927892BF3
:1021900091F68DEA9FE0C1DACECF0F900F90DF91DC
:1021A000CF911F910F91FF90EF90DF90CF90BF9054
:1021B000AF900895DF92EF92FF920F931F93CF930A
:1021C000DF9320911046222379F010920E46109250
:1021D000104610920F4680E0DF91CF911F910F9132
:1021E000FF90EF90DF90089520910346E091044620
:1021F000F0910546F8943081422F40953423308386
:1022000078945DE7515009F330E13A95F1F7328166
:102210003223C1F3F8943181342331833081322B5E
:1022200030837894AFE3BBE01197F1F700C0000072
:10223000F894308134233083A3EAB1E01197F1F7A9
:1022400000C0000032817894EBE9F9E03197F1F7B2
:1022500000C00000232309F0B8CF7C01C8E0D0E023
:1022600011E081E0912F907F09F480E00E946208E4
:10227000110F2197B1F7F894E0910446F0910546CB
:10228000808120910346209528232083E0910446F5
:10229000F0910546818120910346209528232183D2
:1022A0007894D1E000E0D12CC1E00E949608182F6C
:1022B0000E9496081130E9F48130D1F5C13408F458
:1022C00084CFD0920E46D11003C081E08093104697
:1022D00080910646882309F478CFA6E0B6E4F7019A
:1022E000C70108962D9121938E179F07D9F781E09A
:1022F00073CFE02FF0E0181311C080910E46C8177D
:10230000A8F4DF01AD5FB94B13968C918D2381F456
:1023100010E0C93010F4C0930F46DC2EED5FF94B8E
:1023200083819D2F9095892383830AC08C13F0CFDE
:10233000E02FF0E0ED5FF94B83818D2B838311E07B
:10234000812F0E946208CF5FDD0F11F40F5FD1E093
:10235000083008F4AACFB2CFCF92DF92EF92FF926B
:102360000F931F93CF93DF9380E99FE0D6D96091BD
:102370005E4570E090E080E04AE07EDD80E491E43C
:102380005CDD6091644070E090E080E04AE074DDE4
:1023900080915E45882309F448C08CE79FE05CDDAE
:1023A00010E000E080915E458017110609F00CF402
:1023B0003CC0680183E0CC0CDD1C8A95E1F7F12C70
:1023C000E12CC0915C45D0915D45CC0DDD1DCE0D5D
:1023D000DF1D8881803118F48AE79FE09ED96881EB
:1023E00070E090E080E040E147DD88E79FE095D92C
:1023F0008FEFE81AF80AE8E0EE16F10411F7809181
:102400005C4590915D45C80ED91EF60186818330EA
:1024100019F48DE59FE081D91CDD65E070E080E076
:1024200090E011DA0F5F1F4FBDCF13DD82E49FE014
:1024300074D980915B45811114C08BE391E416DD62
:1024400088E39FE009DD05DD65E070E080E090E075
:10245000DF91CF911F910F91FF90EF90DF90CF9080
:10246000F2C98CE291E4EBCF0F931F93CF93DF93EC
:1024700080915A45803109F071C088E20E942A0992
:1024800082FF44C084E00E9436090E940F0980E068
:102490000E94F80880E00E94F808D82FC82F8334E3
:1024A00008F0C2E4C093144580E00E94F808082FA9
:1024B00080E00E94F808182F80E00E94F808282F7A
:1024C00030E0A90196E0440F551F9A95E1F74427A3
:1024D0005370402B4093154550931645322F2227B9
:1024E00022273370212B2093174530931845909164
:1024F000CC469417150611F0452B11F4D330B8F4DF
:10250000109214450E94EA080E94750980915A456C
:10251000803121F580911445882311F184E00E94D7
:10252000360981E0DF91CF911F910F910895C3503B
:10253000C0931945807880931345D0E0DC1728F4C8
:1025400080E00E94F808DF5FF9CF0E94EA0880E18E
:102550000E94360984E20E942A09D8CF0E94750998
:1025600080E0E0CF8CE495E077DC86E495E0D5D898
:10257000809169468B3209F425C1863509F425C15D
:102580008B3509F425C190E080E0D6DC89E395E045
:10259000C4D860916A4670E090E080E04AE06CDC6C
:1025A00081E395E0BAD880916B468F7390E0C4DCEC
:1025B0008EE295E0B2D880916D468251990BBCDCD9
:1025C00089E295E049DC8CE195E046DC84E195E028
:1025D000A4D860916E4670916F468091704690913C
:1025E000714642E050E08BDD88E095E096D860913E
:1025F000724670917346809174469091754642E0A0
:1026000050E07DDD8FEF94E088D860917A4670913C
:102610007B4680917C4690917D4642E050E06FDDA4
:1026200085EF94E07AD860917E4670917F468091E4
:1026300080469091814642E050E061DD8CEE94E06E
:102640006CD86091824670918346809184469091C7
:10265000854642E050E053DD82EE94E05ED8609122
:10266000864670918746809188469091894642E0DF
:1026700050E045DD89ED94E050D860918A46709134
:102680008B4680918C4690918D4642E050E037DD3C
:102690008FEC94E042D860918E4670918F46809185
:1026A00090469091914642E050E029DD86EC94E01E
:1026B00034D860919246709193468091944690915F
:1026C000954642E050E01BDD8CEB94E026D860910B
:1026D000964670919746809198469091994642E02F
:1026E00050E00DDD83EB94E018D860919A4670912C
:1026F0009B4680919C4690919D4642E050E0FFDCD5
:1027000089EA94E00AD860919E4670919F46809134
:10271000A0469091A14642E050E0F1DC80EA94E0CE
:102720000E948D0B6091A2467091A3468091A446B1
:102730009091A54642E050E0E2DC86E994E00E94F8
:102740008D0B6091A6467091A7468091A846909106
:10275000A94642E050E0D3DC8BE894E00E948D0B68
:102760006091AA467091AB468091AC469091AD467F
:1027700042E050E0C4DC81E894E00E948D0B80913F
:10278000AE4690E0DEDB81E794E00E948D0B809105
:10279000AF469091B046D5DB80916C4681111BC04D
:1027A00085E594E059DB82E694E00E948D0B8091F0
:1027B000B14690E0C6DB8091CB4681110FC086E325
:1027C00094E04ACB81EB91E0E0CE84E693E0DDCE6D
:1027D00083E993E0DACE8CE594E0E4CF86E494E0FC
:1027E000F0CF0F931F93CF93DF93893208F07CC013
:1027F00090E0DC01A951BF4B2C912F3F09F474C02C
:102800008C0102541F4BE801E881D0E2ED9FF001FA
:102810001124FC5F611133C0268330812323AC0176
:102820004B565F4B211111C0EA012881309749F1C5
:10283000283038F57096E20FF11D3FB7F8942081EB
:10284000611122C0277F20833FBFFA0130813F3FC3
:1028500009F44AC0E8012881363058F53091E60580
:10286000432F4770241312C0EC91E53008F0EE0FAF
:102870008091010AE095E823E093010A35C02583A1
:10288000CCCFF0E0E0E0D9CF2860DDCF387169F43B
:10289000213079F4EC91E53008F0EE0F8091410A97
:1028A000E095E823E093410A1FC0383111F4263047
:1028B00089F384599F4BFC01808185FF13C030E16F
:1028C000839FF0011124F75F91819770973061F435
:1028D000EC91853270F4803298F48830E1F28031E6
:1028E00021F202C08111F4CFDF91CF911F910F919E
:1028F0000895803471F08038B9F71092A006F4CFB3
:1029000090E1899FF0011124F75F81818F7E81839F
:10291000EBCF8091920B8E2339F3C0E22C9F900174
:1029200011243C5FE83030F5205F3F4FE20FF32F7A
:10293000F11D4FB7F8949091800B9E7F9093800B80
:1029400090918E0B90FFFCCF2091920B90E08095A0
:10295000909530E08223932328ED24BF8093920B3F
:102960008091800B81608093800B80818F77808342
:102970004FBFBACFF0E0E0E0DCCF0F931F93CF93CF
:10298000DF93CDB7DEB72897CDBFDEBF20915C4582
:1029900030915D45232B31F020911644309117443E
:1029A000232B61F410925B4510925E452896CDBFB3
:1029B000DEBFDF91CF911F910F910895182F809165
:1029C00065400E940808E09165408FEFE93228F4E5
:1029D000AE2FB0E0A951BF4B8C918093E3438CEFB5
:1029E00093E0E93240F4F0E0E254FF4B808124E0D0
:1029F000829FC00111248093E1439093E24310939E
:102A00005B45112309F496C020E030E040E85FE325
:102A100060912C4070912D4080912E4090912F40DC
:102A20000E94DF3987FF03C08FE180931C40009133
:102A30001C4090916440E0911644F091174480E06E
:102A400020E335E7981721F0219331938F5FFACF78
:102A500010920E461092104610920F4610920D469C
:102A600010920C4610920B4610920A46109209469C
:102A700010920846109207461092064610925E4544
:102A8000CE01019697DB882349F089818832C1F70E
:102A900080915E458F5F80935E45F2CF8091644068
:102AA00090915E45891710F480935E45E0915C45F6
:102AB000F0915D4580818832A1F010E080915E4503
:102AC000181778F438E0139FC001112420915C4559
:102AD00030915D45820F931F6DDB882311F01F5FDE
:102AE000EDCF0E940A0D60E08CEC0E94BB0C60E010
:102AF0008EE40E94BB0C60E080E00E94BB0C60E0B2
:102B000080E00E94BB0C60E0802F0E94BB0C0E9402
:102B10000A0D60E08CEC0E94BB0C61E088E40E942E
:102B2000BB0C64E170E080E090E00E94230C0E9406
:102B3000460D3CCF80912B4087FDF9CF8932A4F41C
:102B4000282F082E000C330BF901E951FF4B90811F
:102B50009F3F51F022543F4BD901EC91B0E2EB9FE3
:102B6000F0011124FC5F918360E03BDE80912B40FB
:102B70008932E8F690E0FC01E951FF4B20812F3FBC
:102B8000B1F2FC01E254FF4BA081E0E2AE9FD00124
:102B90001124BC5F8B569F4BFC013081F0E0E0E0DC
:102BA000383028F4CD014096FC01E30FF11D9FB7AA
:102BB000F89412962C938081877F80839FBFB7CF34
:102BC0000F931F93CF93DF93CDB7DEB72C97CDBF75
:102BD000DEBF681BF1F0062F10E0682F70E0665E24
:102BE0007A4BA801CE0101960E94A83DE1E0F0E0F9
:102BF000EC0FFD1FE00FF11F1082CE0101960E9425
:102C000045382C96CDBFDEBFDF91CF911F910F913C
:102C1000089590E080E0F5CF0F931F93CF93DF935B
:102C2000CDB7DEB72C97CDBFDEBF681BF1F0062F06
:102C300010E0682F70E0665E7A4BA801CE01019625
:102C40000E94A83DE1E0F0E0EC0FFD1FE00FF11F56
:102C50001082CE0101960E9442382C96CDBFDEBF75
:102C6000DF91CF911F910F91089560E070E0CB014B
:102C7000F4CF4F925F926F927F928F929F92AF921A
:102C8000BF92CF92DF92EF92FF92CF93DF93C82F44
:102C90008090184090901940A0901A40B0901B402E
:102CA000609148407091494090E080E00E94E33993
:102CB0006B017C0160915040709151406F5F7F4F7C
:102CC000072E000C880B990B0E94E539A501940191
:102CD0000E94443A2BED3FE049EC50E40E94443A14
:102CE000A70196010E94443A20E034E244E759E407
:102CF0000E94C03B2B013C01D0E0BE016F5F7F4FC3
:102D0000072E000C880B990B0E94E539A501940150
:102D10000E94443AA70196010E94443A20E034E21E
:102D200044E759E40E94C03B6B017C01CC0FDD1FDE
:102D3000CC0FDD1FFE01E050F04C20E030E044EB12
:102D400053E460817181828193810E94C03B9B0129
:102D5000AC01C701B6010E94593B2BED3FE049ECA5
:102D600050E40E94443A4B015C010E94E83C6B0134
:102D70007C01C301B2010E94E83C9B01AC01C70188
:102D8000B6010E94C03B6B017C01FE01E05DFB4B84
:102D9000C082D182E282F382C501B4010E94BD3BB0
:102DA0004B015C01C301B2010E94BD3B9B01AC0120
:102DB000C85BDB4BC701B6010E94443A9B01AC01E2
:102DC000C501B4010E94583B688379838A839B8341
:102DD000DF91CF91FF90EF90DF90CF90BF90AF90B9
:102DE0009F908F907F906F905F904F900895CF93BA
:102DF0008093484090934940BC0190E080E00E945D
:102E0000E33920912C4030912D4040912E4050913B
:102E10002F400E94443A0E942D3C6093E5437093FA
:102E2000E6430E94460DC0E0809150409091514091
:102E3000C817190624F48C2F1CDFCF5FF5CFCF9174
:102E400008954F925F926F927F92AF92BF92CF920E
:102E5000DF92EF92FF920F931F93CF93DF93E82FB0
:102E6000CB01BA0168017901F0E0E355FB4B108119
:102E700024E0129FE0011124FE01E05DFF4B5F01A1
:102E800020912740309128404091294050912A407C
:102E90000E94443A2B013C01609113467091144604
:102EA00090E080E00E94E3399B01AC01C301B201D4
:102EB0000E94C03BF5016083718382839383C0507D
:102EC000D04CC882D982EA82FB82812FDF91CF91D8
:102ED0001F910F91FF90EF90DF90CF90BF90AF9038
:102EE0007F906F905F904F90C4CE2F923F924F9201
:102EF0005F926F927F928F929F92AF92BF92CF928A
:102F0000DF92EF92FF920F931F93CF93DF93CDB792
:102F1000DEB7E797CDBFDEBF84E08093410461E078
:102F200080E15FDC40E052EC61E070E08FE595E429
:102F30000E94140F89E194E00E948D0B85E491E4D6
:102F40000E94360F83E094E00E942C0F86E190E00F
:102F50000E94650E882341F1CE0101960E943D0E2C
:102F600009811A8117FD20C0680123E0C20ED11C1F
:102F700039E6E32E36E4F32E87E090E05C013FEF84
:102F8000A31AB30A8EA79FA7CE018E960E94360E73
:102F9000D7018D937D01C501AC14BD0478F38EE596
:102FA00093E00430110511F48DE493E00E942C0F9E
:102FB000D9DA80916C46882309F442C08AEF93E005
:102FC0000E948D0B82EF93E00E948D0B80916946E9
:102FD0008B3221F48BEE93E00E948D0B8091694639
:102FE000863521F484EE93E00E948D0B8091694632
:102FF0008B3521F48DED93E00E948D0B84ED93E0F1
:103000000E948D0B60916A4670E090E080E04AE09B
:103010000E943C0F8CEC93E00E948D0B60916B46FC
:1030200070E090E080E04AE00E943C0F8AEC93E080
:103030000E942C0F8DE491E40E941D0F0E94290F25
:1030400080916C46882309F442C187E08093CE4684
:1030500084E08093CF4685E08093D04686E08093DD
:10306000D1461092D24610916A4680916B46809369
:10307000CC461092CD4680E88093010480E1809395
:1030800001049FB7F89480E28093020480911504B4
:10309000877F809315049FBF8091D146893288F441
:1030A00090E0FC01E951FF4B20812F3F51F0825409
:1030B0009F4BDC01EC91B0E2EB9FF0011124FC5F2F
:1030C00021830E94EA088091D2468111B5C0809187
:1030D000E4058C7F8093E4058091410984608093AE
:1030E0004109809140098162809340090E94540CFB
:1030F0006B017C016AEA8FE20E941D098FE20E9447
:103100002A098A3A59F00E94540C6C197D098E09DB
:103110009F09623371058105910560F30E94540C8B
:103120006C197D098E099F0962337105810591052E
:1031300008F0B3C00E94540C6B017C0165E58FE27E
:103140000E941D098FE20E942A09853559F00E94CC
:10315000540C6C197D098E099F0962337105810534
:10316000910560F30E94540C6C197D098E099F092A
:10317000623371058105910508F08FC0FE01339619
:103180008BE2DF011D928A95E9F781E0898384E073
:103190008A8322E02B8393E09D832E838F8380E4B8
:1031A000888725E029879A8796E09B8793E39C8709
:1031B00097E09D8728E02F8729E0298B29E12B8B39
:1031C00032E43C8B25E22D8B8E8B26E22F8B988F61
:1031D00098E2998F20E12A8F99E29B8F9CED9C8F3A
:1031E0009EE29D8F98E89E8F9FE29F8F9DE298A31D
:1031F00090E399A347E34BA340E94CA348E34DA3D5
:103200003EA33CE33FA33FE838A73DE339A72AA705
:103210002FE62BA79CA79CE69E87888B1AA38E017E
:103220000F5F1F4FF80180818823B1F061810E94F8
:103230001D090E5F1F4FF6CF8091E405837F8093B9
:10324000E40580916109846080936109809160093F
:103250008162809360094ACF90E080E00E944F092C
:1032600069E981E10E941D0984E00E9436090E94FB
:10327000540C6B017C0187E20E942A0987FD0BC078
:103280000E94540C6C197D098E099F0962337105E7
:103290008105910580F30E94540C87E691E40E9419
:1032A0004F0920916B46F4E12F9F8001112460E0CB
:1032B00070E0CB010115110541F00E94ED37980136
:1032C000110F440B550B0E94FB3A0E94230C8EE019
:1032D0008093050680910306809303061092B00048
:1032E00086E08093020681E08093000680910006CC
:1032F0008093000687E08093080660E070E0CB01D1
:1033000050E040E021E020930A0630910D0630FFA6
:10331000FCCF4A30510544F0E0911006F0911106BF
:103320006E0F7F1F811D911D4F5F5F4F4A3137E246
:10333000530749F70E94E33920E030E44CE156E4BA
:103340000E94C03B20E030EF4FE755E40E94C03BB5
:103350009B01AC0166E676E686E69FE30E94C03BF1
:103360006B017C018AEA93E00E948D0B44E050E0FF
:10337000C701B6010E947F108CE090E08093664008
:10338000909367408EEF94E5ADE1B2E480931840EE
:1033900090931940A0931A40B0931B4080E090E1B5
:1033A000809313469093144680E890E080931146F2
:1033B00090931246C0922740D0922840E092294034
:1033C000F0922A4080916E4690916F46A09170468F
:1033D000B09171461092204080934A4090934B40A8
:1033E000A0934C40B0934D4000917E4610917F4693
:1033F000209180463091814640917A4650917B469B
:1034000060917C4670917D4683E00E94FD0D0091A5
:103410008646109187462091884630918946409192
:10342000824650918346609184467091854684E03F
:103430000E94FD0D00918E4610918F46209190467E
:103440003091914640918A4650918B4660918C46CE
:1034500070918D4685E00E94FD0D00919646109179
:1034600097462091984630919946409192465091C6
:103470009346609194467091954686E00E94FD0DBA
:1034800000919E4610919F462091A0463091A14602
:1034900040919A4650919B4660919C4670919D4602
:1034A00088E00E94FD0D0091A6461091A74620914C
:1034B000A8463091A9464091A2465091A3466091FA
:1034C000A4467091A54689E00E94FD0D6091AA4630
:1034D0007091AB468091AC469091AD460E94BC0D78
:1034E0008091724690917346A0917446B091754652
:1034F0008093524090935340A0935440B0935540D2
:103500008091AE468093154681E0809316468DE00B
:103510008093194680931A468091AF469091B046A9
:10352000092E000CAA0BBB0B80931B4690931C46E4
:10353000A0931D46B0931E468CE0809365408FE0BB
:1035400080932B4082E08093410461E08FE049D971
:103550008FE580931C4082EB96E480935C459093CA
:103560005D451092B24689ED94E4809316449093A1
:10357000174483E080936440E0906146F090624697
:10358000E114F10409F4B5C087010F5F1F4F21E476
:10359000C22E26E4D22E80915F46909160468E0D19
:1035A0009F1D0817190774F4C801957189839A83C0
:1035B000CE0101960E94360ED6018D936D010F5FEC
:1035C0001F4FE9CF4090414650904246609043469D
:1035D000709044468090454690904646A09047465D
:1035E000B0904846C0904946D0904A46E0904B463D
:1035F000F0904C4600914D4610914E4620914F461A
:1036000030915046409151465091524660915346F8
:10361000709154468091554690915646A0915746D8
:10362000B09158468CAB9DABAEABBFAB80915946C9
:1036300090915A46A0915B46B0915C4688AB99AB9D
:10364000AAABBBAB409278445092794460927A44E2
:1036500070927B4480927C4490927D44A0927E4400
:10366000B0927F44C0928044D0928144E0928244E0
:10367000F0928344009384441093854420938644BD
:1036800030938744409388445093894460938A449C
:1036900070938B448CA99DA9AEA9BFA980938C443B
:1036A00090938D44A0938E44B0938F4488A999A998
:1036B000AAA9BBA980931F4690932046A0932146B8
:1036C000B09322468091B14658D98091E043882337
:1036D00041F1282F30E020935040309351408F5FCC
:1036E00090E08630F0F4FC01EC59FB4B108201961F
:1036F000F8CF412C512C3201812C912C5401C12C3A
:10370000D12C760100E010E0980140E050E0BA01D1
:103710001CAA1DAA1EAA1FAA18AA19AA1AAA1BAA7D
:1037200091CF409027405090284060902940709061
:103730002A40609113467091144690E080E00E9408
:10374000E3394B015C0120914A4030914B4040915C
:103750004C4050914D40C301B2010E94443AA50132
:1037600094010E94C03B60934A4070934B40809309
:103770004C4090934D4080E3E82E80E4F82E98E191
:10378000C92E94E4D92E10E000E080915040909131
:1037900051400817190714F5D7012D913D914D910E
:1037A0005D917D011D01B4E02B1A3108C301B20106
:1037B0000E94443AA50194010E94C03BF10160833C
:1037C000718382839383802F54DAD6011D921D92D8
:1037D0001D921D926D010F5F1F4FD7CF87EB9CE0AD
:1037E000809317469093184689EB9CE080932D4672
:1037F00090932E4681E080931D4010920A441092CF
:103800000B4410920C4410920D449EE090930506D8
:1038100090910306909303061092B00098E0909365
:103820000206809300069091000690930006909106
:1038300000069260909300061092080690910C0684
:10384000916090930C0680930A067894C0902C4067
:10385000D0902D40E0902E40F0902F406091484055
:103860007091494090E080E00E94E339A701960101
:103870000E94443A0E942D3C6093E5437093E643D6
:1038800010926A4420E034E244E759E4C701B601EB
:103890000E94443A209118403091194040911A40BA
:1038A00050911B400E94C03B0E942D3C609360449D
:1038B00070936144809362449093634405E116E4FD
:1038C000F12CF80180818823A1F18481893228F5C7
:1038D00090E0FC01E951FF4B20812F3FF1F0FC010A
:1038E000E254FF4BA081F0E2AF9FD0011124BC5FF6
:1038F0008B569F4BFC013081F0E0E0E0383028F43B
:10390000CD014096FC01E30FF11D9FB7F89412968C
:103910002C938081886080839FBF69EB7CE08091DD
:103920003046F11004C067EB7CE080911A460E949B
:10393000BB080A5E1F4FF1E0FF1239C01092DF444E
:103940001092E0441092E1441092E2448091B1461A
:10395000882389F00E94AC1180915B45882351F146
:1039600080915E4590E0892B31F483E793E00E94DB
:103970002C0F80E002D860E070E080E090E40E94CC
:10398000BC0DE796CDBFDEBFDF91CF911F910F91A8
:10399000FF90EF90DF90CF90BF90AF909F908F906F
:1039A0007F906F905F904F903F902F900895FF24ED
:1039B000F39487CF90E080E0D6CFEF93FF93EFE5CD
:1039C000F5E408C0EF93FF93EFE5F5E432C0EF9321
:1039D000E0E653C02F932FB72F938F939F93AF930E
:1039E000BF936894CF93DF9320E0C485D8E0968995
:1039F000DF01A90FB21FA95ABF4F8C9120E42C837D
:103A00008A839F5F9F738D812589291302C08F7DD3
:103A10008D83968BDF91CF9116F00C94400BBF9164
:103A2000AF919F918F912F912FBF2F91FF91EF9188
:103A300018952F932FB72F938F939F93CF93DF9347
:103A4000C485D8E08981988181FD0DC0C38981E05A
:103A50008C0F8F732489281731F0CE0FDF2F20E0D1
:103A6000D21F9F8B838BDF91CF919F918F912F914D
:103A70002FBF2F91FF91EF911895FF938F938FB7E1
:103A80008F93F8E08081848187FFFCCF85818F7BD5
:103A9000806885838F918FBF8F91FF91EF911895EB
:103AA0001F920F920FB60F92112484E00E94C10B57
:103AB0001F920F920FB60F9211248F939F93AF9383
:103AC000BF938091104490911144A0911244B09101
:103AD00013440196A11DB11D80931044909311448D
:103AE000A0931244B093134481E08093260BBF91BE
:103AF000AF919F918F910F900FBE0F901F901895CF
:103B00000F930AE00FC00F9308E00CC00F9306E07C
:103B100009C00F9304E006C00F9302E003C00F93A7
:103B200000E000C00F920FB60F920BB60F921F92DB
:103B30001124FF921F932F933F934F935F936F93A3
:103B40007F938F939F93AF93BF93CF93DF93EF9325
:103B5000FF93A6E5B0E4A00FB11DCD91DC91000F5D
:103B60000D5FA02FB0E0FC90109761F01F2D16950F
:103B700018F041F02296FBCFE991F9913097B9F313
:103B80000995F5CFA02FB0E0FC92FF91EF91DF9166
:103B9000CF91BF91AF919F918F917F916F915F91E5
:103BA0004F913F912F911F91FF901F900F900BBE4F
:103BB0000F900FBE0F900F9118951F920F920FB696
:103BC0000F9211240BB60F922F923F924F925F9259
:103BD0006F927F928F929F92AF92BF92CF92DF921D
:103BE000EF92FF920F931F932F933F934F935F9307
:103BF0006F937F938F939F93AF93BF93EF93FF93B5
:103C0000CF93DF93CDB7DEB72697CDBFDEBF81E080
:103C100080930D06409010065090110620910F449D
:103C2000E0910E44A2E0AE0F80915040909151403F
:103C3000A817190621F01CF0A1E0AE0FA81BB0E0F8
:103C4000A05EBF4B3C913093080621116FC140919B
:103C50000A4450910B4460910C4470910D444F5FA5
:103C60005F4F6F4F7F4F40930A4450930B446093D4
:103C70000C4470930D44E111E2C18091084490918D
:103C80000944809306449093074480911346909191
:103C9000144696958795481A590A409208445092BE
:103CA000094480910444909105449C0136952795E0
:103CB00036952795821B930B920157FE04C022274D
:103CC000332724193509820F931F8093044490935E
:103CD0000544609111467091124621E068177907FA
:103CE00008F020E020939044141415040CF05AC0FE
:103CF00021E030E02093024430930344E0910244F9
:103D0000F09103444091FC435091FD43E417F507C3
:103D100009F44DC02091E4432F5F2093E4432091A8
:103D2000E443233030F01092E443E093FE43F093F9
:103D3000FF432091EF4321111092EF438090FE4307
:103D40009090FF4320911E4030911F4068177907E3
:103D500008F023C181E08816910409F05CC041306D
:103D6000510509F45EC08091E9439091EA430196C0
:103D70008093E9439093EA4340911D404423D1F05E
:103D80000A97C0F010921D401092E9431092EA4346
:103D9000C9018C5F9E4FF901E817F90759F01082AD
:103DA0003196FACF1092024410920344A7CF10929A
:103DB000E443B5CF8091E9439091EA434091E743D2
:103DC0005091E8438417950739F440911D40411103
:103DD00003C041E040936B444091E5435091E6437A
:103DE00084179507F0F080911D4081111AC0109240
:103DF000E9431092EA4380914E4090914F402093C6
:103E00004E4030934F4080931E4090931F4081E07E
:103E100080936A4406C0452B21F010920044109212
:103E20000144E0911E40F0911F409F0120533F4FFD
:103E3000D9014D915D916D917C9113974F5F5F4FCB
:103E40006F4F7F4F4D935D936D937C93139780914C
:103E50000044909101440196809300449093014462
:103E60002850310929833A83D901AC901196BC902E
:103E7000119712963C90129713961C9113971496D3
:103E80006C90149715967C90159716960C91169732
:103E900017962C909201D2010E94883D6B017C0103
:103EA000FF0CCC08DC2C76019B01AC016C2D7C2D29
:103EB0008C2D9C2DC32CD12E7301122D0E94943D6C
:103EC000A981BA812C9311963C93119712964C9329
:103ED000129713965C93139714966C9314971596F8
:103EE0007C93159716968C93169717969C93A080A3
:103EF000B180C280D380E480F58006811781952D42
:103F0000990F990B9201492F592F692F792F892FDA
:103F10000E94943D2083318342835383648375835D
:103F2000868397838092FC439092FD4380910E4458
:103F30008F5F80930E442091504030915140821702
:103F4000130619F014F010920E442696CDBFDEBF72
:103F5000DF91CF91FF91EF91BF91AF919F918F91A1
:103F60007F916F915F914F913F912F911F910F9191
:103F7000FF90EF90DF90CF90BF90AF909F908F9089
:103F80007F906F905F904F903F902F900F900BBE5F
:103F90000F900FBE0F901F90189540910A445091BA
:103FA0000B4460910C4470910D448091EB439091CF
:103FB000EC43A091ED43B091EE4384179507A6071B
:103FC000B70748F480911544811105C081E08093C2
:103FD0006B448093154440910A4450910B44609186
:103FE0000C4470910D448091604490916144A09183
:103FF0006244B091634484179507A607B70708F099
:1040000010CF10920A4410920B4410920C4410925C
:104010000D4481E080931D401092E9431092EA43E1
:1040200040914E4050914F4020934E4030934F402E
:1040300040931E4050931F40EBCE1C9232C12E2E57
:10404000312C821593050CF471CF3101B1E06B1A5C
:104050007108D301AC59BB4BE6E04E1651046CF32A
:1040600081E08C93A0911E40B0911F40A983BA8338
:10407000D30193E0AA0FBB1F9A95E1F7E981FA817A
:10408000AE0FBF1FAC52BF4FAC901196BC901197B2
:104090001296CC9012971396DC9013971496EC908E
:1040A00014971596FC90159716960C9116971796DF
:1040B0001C911797C301880F991F80519C4BFC01DD
:1040C00080809180992D990F990B9401492F592F38
:1040D000692F792F892F0E94943D2C9311963C9340
:1040E000119712964C93129713965C93139714960C
:1040F0006C93149715967C93159716968C93169738
:1041000017969C93809113469091144696958795A7
:10411000881A990AF10143E0EE0FFF1F4A95E1F773
:10412000A981BA81EA0FFB1FA080B1803280138180
:10413000B481BD832581298306812780A09106440F
:10414000B091074494010E94883D6B017C01FF0CF3
:10415000CC08DC2C76019B01AC016C2D7C2D8C2DC8
:104160009C2DC32CD12EED80F980122D0E94943D00
:10417000208331834283538364837583868397834B
:10418000A0A8B1A832A813A934A93D8345A94983A1
:1041900006A927A8A0910844B091094494010E945F
:1041A000883D6B017C01FF0CCC08DC2C76019B0167
:1041B000AC016C2D7C2D8C2D9C2DC32CD12EED8033
:1041C000F980122D0E94943D20AB31AB42AB53AB32
:1041D00064AB75AB86AB97ABCF01805A9F4F8D8395
:1041E0009E83DC01AC901196BC9011971296CC90F6
:1041F00012971396DC9013971496EC9014971596DB
:10420000FC90159716960C91169717961C91940191
:10421000D4010E94883D9B01AC01550F220B322F27
:10422000A90129833A834B835C839B01AC0169819B
:10423000762F862F962F0E94943DAD81BE812C93C0
:1042400011963C93119712964C93129713965C9388
:10425000139714966C93149715967C93159716964E
:104260008C93169717969C93E057FF4FA080B180D0
:10427000C280D380E480F58006811781992D990F43
:10428000990B9401492F592F692F792F892F0E945B
:10429000943D208331834283538364837583868373
:1042A0009783F301EE0FFF1FE051FC4B40825182D8
:1042B0003DCEEF92FF920F931F93CF93DF9300D0E9
:1042C000CDB7DEB7109261451092624588EE93E05B
:1042D000A0E0B0E08093634590936445A09365456A
:1042E000B093664584E191E480935F459093604587
:1042F00080E698E080936B4590936C458FEA9FE051
:1043000080936D4590936E4582E080936F45109247
:1043100070451092714540E05BE167EB70E080E032
:104320008F5F863011F487E00BC0769567955795BF
:104330004795413099E059079DE36907710580F77A
:1043400094E090930246482F4095242F217030E04E
:1043500044E0220F331F4A95E1F731E08162822B5E
:104360008093014640E459E04093F6455093F74569
:104370009093F94586E08093FA451092FC4510929F
:10438000FD45109215461092164623E020931946DB
:1043900030931A468EE690E0A0E0B0E080931B4692
:1043A00090931C46A0931D46B0931E4610921F4644
:1043B00010922046109221461092224610922346D7
:1043C00010922446109225461092264610922B46B3
:1043D00010922C4620932F463093304680933146DE
:1043E00090933246A0933346B093344610923546AC
:1043F000109236461092374610923846109239463F
:1044000010923A4610923B4610923C4681E090E072
:104410000090664002C0880F991F0A94E2F78093CB
:1044200013469093144655E0969587955A95E1F773
:104430008093114690931246809165400E9408082F
:104440008EEF90E080936346909364468DE190E018
:1044500080935F46909360468DE090E080935D4648
:1044600090935E4684E890E080936546909366461C
:104470008DEF91E080936746909368461092614675
:104480001092624604E810E009831A83CE01019677
:104490000E94360E78019DE1E90EF11C8F3F09F470
:1044A000ECC000936146109362468DEFE81681E000
:1044B000F8065CF4E982FA82CE0101960E94360E7B
:1044C0008F3F09F4D6C00E94E80E8AE08093CE4662
:1044D0008BE08093CF468CE08093D0468DE0809334
:1044E000D1461092D2468BE28093694682ED80934A
:1044F0006A4681E180936B4621E020936C4689E116
:1045000080936D468AE097EFA9E4B4E480936E4609
:1045100090936F46A0937046B093714680E090E010
:10452000A0E7B3E48093724690937346A0937446D9
:10453000B093754680E090E0A8E4B2E480937646BC
:1045400090937746A0937846B093794686E696E2B4
:10455000A6E9B3E480937A4690937B46A0937C4689
:10456000B0937D468DEC9CECACE4B0E480937E4649
:1045700090937F46A0938046B093814646E656E2EC
:1045800066E173E440938246509383466093844689
:10459000709385468093864690938746A09388467D
:1045A000B093894640938A4650938B4660938C46DD
:1045B00070938D4680938E4690938F46A09390463D
:1045C000B093914641E75DE360E772E44093924621
:1045D0005093934660939446709395468093964685
:1045E00090939746A0939846B093994640939A46E5
:1045F00050939B4660939C4670939D4680939E4645
:1046000090939F46A093A046B093A1464093A246A4
:104610005093A3466093A4467093A5468093A64604
:104620009093A746A093A846B093A9468DEC9CEC26
:10463000ACE1B1E48093AA469093AB46A093AC461C
:10464000B093AD462093AE4684E690E08093AF46AB
:104650009093B0462093B1461092CA461092CB4632
:104660000F900F90DF91CF911F910F91FF90EF90DE
:1046700008959DE1E90EF11C18CF87018DEFE81632
:1046800081E0F80609F000CF20CFCF93DF93CDB7BC
:10469000DEB7CD5BD109CDBFDEBF88ED21E030E0D4
:1046A00084BF2093620091E084BF909363009DE2F9
:1046B00084BF9093800093E084BF9093600080E07B
:1046C00090E22091650020FDCEC021E02093030AF6
:1046D0008EEF8093260A8093270A9BE09093000A2E
:1046E00032E03093E6052093430A8093660A809374
:1046F000670A9093400A9093E705E0E0FBE027E02B
:104700009EEF85E021839487158680837096E03440
:104710003BE0F307B9F72FEF3FE02093AA0B30936C
:10472000AB0B90E89093820B1092810B2EEF30E050
:104730002093AE0B3093AF0B98ED24E194BF209300
:10474000680091E19093800B809302069EE0909325
:10475000050690E690930306809300068091B000D2
:10476000887F85608093B0008091B200887F8560EB
:104770008093B2008FED9EE280932C0B90932D0BD3
:1047800081E08093250B1092210B83E08093200B16
:1047900078940E947517AE014B5C5F4F4FAB58AFDA
:1047A000BE01665F7F4F69AF7AAF8FE595E40E94E7
:1047B000ED09892B09F49CC08FE595E40E94CB0993
:1047C000D09014448A3009F0B1C4AD2DB0E0A65E9B
:1047D000BA4B1C92E0911A45EF53EC3308F080C0BD
:1047E0000E2E000CFF0BE950FC4D0C947F3D7E28F3
:1047F0007024702470247024702470247024702419
:104800007024702470247024702470247024702408
:1048100070247024702470247024702470247024F8
:1048200070247024702470247024702470247024E8
:1048300070247024392463241525322539254E250A
:1048400070240E2705256325A626AE260E27702484
:10485000262770243A2765271D28702437284228E8
:10486000592870246028019709F02BCF83E00E941B
:10487000C10B72E0D71234C08BE195E40E94453839
:10488000843061F48BE28093694681EB91E00E9471
:104890009C0F80E99DE00E942C0F22C0883069F0B7
:1048A000893029F01092694690E080E0F0CF8BE5E6
:1048B0008093694683E993E0EACF86E58093694671
:1048C00084E693E0E4CF82E0D8120AC08BE195E45D
:1048D0000E944538019709F095C081E08093CA464F
:1048E00080E4AAE1B5E41D928A95E9F71092144498
:1048F00080916B44882369F110926B4480915B45F1
:10490000882339F180912B4087FD19C08932A4F4A6
:10491000282F082E000C330BF901E951FF4B908131
:104920009F3F51F022543F4BD901EC91B0E2EB9FF5
:10493000F0011124FC5F918361E00E94F1130E9459
:104940000A0D60E08CEC0E94BB0C61E084E40E94E4
:10495000BB0C80916A44882311F40C944735109263
:104960006A44F894209150403091514040914E401B
:1049700050914F4090E080E0821793070CF0E3C322
:10498000FC01EC59FB4B608161113AC0FC01B3E0C2
:10499000EE0FFF1FBA95E1F7E40FF51F10861186A1
:1049A00012861386148615861686178610AE11AEEB
:1049B00012AE13AE14AE15AE16AE17AEDF01A85987
:1049C000BF4F1C9211961C92119712961C9212972F
:1049D00013961C92139714961C92149715961C927A
:1049E000159716961C92169717961C92E856FF4F2D
:1049F000108211821282138214821582168217820B
:104A00000196BACF1092CA466BCF92E0D91268CF06
:104A10008BE195E40E944538019721F481E0809371
:104A2000CB465ECF1092CB465BCF8BE195E40E94E4
:104A300042386B017C010E94BC0DC092AA46D09204
:104A4000AB46E092AC46F092AD468FE79DE00E9407
:104A50008D0B42E050E0C701B6010E9489108CE73F
:104A60009DE019CF8AE08C938BE195E40E94360F8C
:104A700037CFA3E0DA1234CF8BE195E40E944238BD
:104A80000E94283C6B01CB010E94F71685E79DE050
:104A90000E948D0BC6010E94A10F22CF8BE195E4ED
:104AA0000E94453880936A468EE69DE00E948D0BF9
:104AB00060916A4670E090E080E04AE00E943C0F1E
:104AC0000E94290F0DCF60E270E08AE195E40E9418
:104AD0009D3D009711F40C949D378C010A511544AB
:104AE000C801992760E270E0855E9A4B0E949D3D67
:104AF000CC24C394C00E009711F40C949037FC01A1
:104B0000EA51F5445F01602F81E00E94E0157C01CD
:104B10006A2D8C2D0E940C162B013C016D2D81E01D
:104B20008A0D0E940C166BAF7CAF8DAF9EAFF7E085
:104B3000EF16F10408F038C0F701EF55FA4D0C9468
:104B40007F3DA825F22510262E264C266A2688268B
:104B500020912740309128404091294050912A408F
:104B6000C301B2010E94443A4B015C0160911346BB
:104B70007091144690E080E00E94E3399B01AC0103
:104B8000C501B4010E94C03B60934A4070934B4002
:104B900080934C4090934D4040926E4650926F46A9
:104BA000609270467092714687E69DE00E948D0B80
:104BB000C7010E949C0F85E69DE00E948D0B42E09C
:104BC00050E0C301B2010E94891083E69DE00E947B
:104BD0008D0B42E050E06BAD7CAD8DAD9EAD0E9483
:104BE0007F107ECE0BAD1CAD2DAD3EADB301A2014D
:104BF00083E00E94211740927A4650927B46609251
:104C00007C4670927D462BAD3CAD4DAD5EAD2093A4
:104C10007E4630937F464093804650938146C4CF72
:104C20000BAD1CAD2DAD3EADB301A20184E00E94E1
:104C30002117409282465092834660928446709239
:104C400085464BAD5CAD6DAD7EAD409386465093D1
:104C500087466093884670938946A6CF0BAD1CADFE
:104C60002DAD3EADB301A20185E00E942117409217
:104C70008A4650928B4660928C4670928D466BAD00
:104C80007CAD8DAD9EAD60938E4670938F468093C4
:104C900090469093914688CF0BAD1CAD2DAD3EADA7
:104CA000B301A20186E00E942117409292465092E1
:104CB000934660929446709295468BAD9CADADAD97
:104CC000BEAD8093964690939746A0939846B09336
:104CD00099466ACF0BAD1CAD2DAD3EADB301A2011F
:104CE00088E00E94211740929A4650929B4660921B
:104CF0009C4670929D462BAD3CAD4DAD5EAD209374
:104D00009E4630939F464093A0465093A1464CCF79
:104D10000BAD1CAD2DAD3EADB301A20189E00E94EB
:104D200021174092A2465092A3466092A4467092E8
:104D3000A5464BAD5CAD6DAD7EAD4093A6465093A0
:104D4000A7466093A8467093A9462ECF51E0D5128E
:104D5000C7CD0E94B2120E94AC11C2CD60E270E0D9
:104D60008AE195E40E949D3D0097E9F46D2D81E074
:104D70000E94E0158C010115110559F10130110552
:104D800081F18AE59DE00E948D0B82E59DE0012B7B
:104D900009F481CD42E050E0C301B2010E948910C4
:104DA00086E59DE078CDBC016A5175447B0181E0C8
:104DB0000E94E0158C016D2D81E08E0D0E94E015A2
:104DC000BC01990F880B990B0E94E5392B013C011E
:104DD000D2CF1092154681E0809316461092AE46CF
:104DE000D0CFC301B2010E94283C6B01072E000CFA
:104DF000EE08FF08C0921B46D0921C46E0921D466A
:104E0000F0921E4621E020931546209316462093EB
:104E1000AE466093AF467093B046B3CF8BE195E456
:104E20000E944538882379F099278034910514F041
:104E30008FE390E080936B468CE49DE00E948D0BA5
:104E400060916B4637CE81E090E0F4CF8BE195E442
:104E50000E9445388F7180936D4687E49DE00E94E3
:104E60008D0B80916D468251990B0E949C0F82E4BC
:104E70009DE011CD71E0D71233CD8EE596E00E9412
:104E80002C0F86E190E00E94650E882389F0CE0108
:104E900001960E943D0E89819A8197FD09C09195E6
:104EA0008195910989839A83CE0101960E94C00E53
:104EB00080E396E00E942C0F68EC70E080E090E0C8
:104EC0000E94230C0C9400000BCD81E0D81208CD79
:104ED00086E296E00E942C0F86E190E00E94650E2B
:104EE000811128C019821A826FE4CE0101960E94B6
:104EF0009D0E81E090E089839A8365E4CE0101965E
:104F00000E949D0E82E090E089839A836DE4CE0139
:104F100001960E949D0E03E010E009831A836FEF53
:104F2000CE0101960E949D0E0F5F1F4F011592E06A
:104F3000190799F787E690E089839A8386E190E0E4
:104F40008B839C83CE0101960E94C00E09E616E475
:104F500087E090E0D8016D918D017C01BFEFEB1AE5
:104F6000FB0A8DAB9EABCE01C5960E949D0EC7017C
:104F70008A36910579F790E080E00E94650E8111F4
:104F80001AC08EEF95E00E948D0B4AE060E072E05F
:104F900080E090E00E943C0F88ED95E00E942C0F8D
:104FA00060E072E090E080E00E948A1086ED95E07B
:104FB0000E948D0B0CC0CE0101960E943D0E8B818C
:104FC0009C81019649F485E895E00E942C0F0E948F
:104FD000290F85E096E05FCC88E795E00E948D0B75
:104FE0006B817C8190E080E04AE00E943C0F098167
:104FF0001A8117FF03C01195019511090450110979
:105000008AE695E00E948D0BC8010E949C0F83E602
:1050100095E00E948D0B89819A8197FF04C088E5F5
:1050200095E00E948D0B0E94290FB80187E090E067
:105030000E948A1086E595E0BBCFF2E0DF1250CCEB
:105040001092B14680911B45813319F481E0809321
:10505000B1468091B1460E94BD148091B14688232B
:1050600019F083E39DE017CC83E29DE014CC222469
:105070002394D21035CC86E09DE00E948D0B85E410
:1050800091E4F4CC12E0312ED3102ACC10926C466D
:1050900080911B45813319F481E080936C468091A7
:1050A0006C46882319F080E09DE0F5CB89EF9CE009
:1050B000F2CBCC24C3948BEE9CE0DC1011CCEBCB78
:1050C000EE24E394DE100CCC81ED9CE00E942C0FCA
:1050D0000E94E80EE8E7F4E4119211921192119205
:1050E00020E934E42E173F07B9F710921F461092BB
:1050F00020461092214610922246F2CB31E0D31284
:10510000EFCB0DE616E0F801F490FF2061F0FAE035
:10511000FF1203C08DE00E94A70B8F2D0E94A70BEA
:105120000F5F1F4FF0CF8BE696E0B5CBBFE3BD1509
:1051300008F4DECBED2DF0E0E65EFA4B8083D394ED
:10514000D0921444D5CB05E116E4F12CE12CCC240B
:10515000C394D12CA6E1BA2EF8018181882309F4E9
:1051600077C080818823D1F18481893228F590E04D
:10517000FC01E951FF4B40814F3FF1F0FC01E2544B
:10518000FF4B2081F0E22F9F900111243C5F8B5652
:105190009F4BDC018C91F0E0E0E0883020F4F901D5
:1051A0007096E80FF11D9FB7F894D90112964C93B1
:1051B0008081886080839FBF67EB7CE080911A4686
:1051C000E114F10421F069EB7CE0809130460E940B
:1051D000BB083EC0EE24E394F12CBECF858189321A
:1051E000A0F590E0FC01EB56FF4B20812F3F69F1C9
:1051F00082549F4BDC018C91E82FE295EE0FE07E0C
:10520000E20FF0E0E05FFB4F9081917F908390E0B0
:10521000FC0134E0EE0FFF1F3A95E1F7422F50E01A
:10522000160102C0220C331C2A95E2F72382880F54
:10523000991FFC01EA5AFF4B440F551F0190F08162
:10524000E02DE40FF51F10821182D80111961C92F7
:10525000BE9CF001BF9CF00D11249F012B5E394BC9
:10526000F90186859785A089B189892B8A2B8B2B9B
:10527000C1F04685578560897189F80182859385DB
:10528000A485B585840F951FA61FB71F82879387B6
:10529000A487B587D9011E961D921D921D921C925E
:1052A00051970A5E1F4FEA94EF2809F093CF789444
:1052B00000914E4010914F40F801E853FF4F20817C
:1052C0003181428153816481758186819781180182
:1052D000E0ED2E0E311CD1018D909D90AD90BC90D3
:1052E000F801F0812C96FFAF2C97D8011196BC9154
:1052F0002E96BFAF2E97F801F2816496FFAF6497A8
:10530000D8011396BC916696BFAF6697F801F481F9
:105310006896FFAF6897D8011596BC916A96BFAFA3
:105320006A97F801F6816096FFAF6097D8011796EB
:10533000BC916C96BFAF6C97F801F081A096FFAF5F
:10534000A097D8011196BC91A496BFAFA497F8017D
:10535000F281A696FFAFA697D8011396BC91AA96A4
:10536000BFAFAA97F801F481AE96FFAFAE97D80110
:105370001596BC91E296BFAFE297F801F681E496EC
:10538000FFAFE497D8011796BC912896BFAF289736
:10539000D101CD90DD90ED90FC9013972396CCAE8B
:1053A000DDAEEEAEFFAE2397CD90DD90ED90FC909C
:1053B0002796CCAEDDAEEEAEFFAE27970E945D3CE9
:1053C0006B017C01C501B4010E94E5399B01AC0170
:1053D000C701B6010E94C03B6B017C012C962FAD2A
:1053E0002C972E963FAD2E9764964FAD6497669698
:1053F0005FAD669768966FAD68976A967FAD6A975E
:1054000060968FAD60976C969FAD6C970E94593CEB
:105410004B015C01A0962FADA097A4963FADA49739
:10542000A6964FADA697AA965FADAA97AE966FAD1A
:10543000AE97E2967FADE297E4968FADE49728961B
:105440009FAD28970E94593C9B01AC01C501B40156
:105450000E94443A4B015C0123966CAD7DAD8EAD4C
:105460009FAD23970E94E5399B01AC01C501B401B2
:105470000E94C03B4B015C0127966CAD7DAD8EADAB
:105480009FAD27970E94E5399B01AC01C501B4018E
:105490000E94C03B9B01AC01C701B6010E94583B72
:1054A0000E94F23CC0904A40D0904B40E0904C406B
:1054B000F0904D406F96CCAEDDAEEEAEFFAE6F9786
:1054C000A70196010E94443AA3966CAF7DAF8EAFC0
:1054D0009FAFA397609391447093924480939344B9
:1054E00090939444D1018D909D90AD90BC90C090CC
:1054F0005040D0905140A596CEAEDFAEA5976091BA
:1055000060447091614480916244909163440E9430
:10551000E3396B017C01A596AEADBFADA5971196A1
:10552000A50194010E94213B0E94E5399B01AC0139
:10553000C701B6010E94C03BA9966CAF7DAF8EAF8C
:105540009FAFA997D0909044C757DF4FD882C958D2
:10555000D040C0905240D0905340E0905440F090E2
:105560005540C657DF4FC882D982EA82FB82CA58AB
:10557000D040C0902C40D0902D40E0902E40F09034
:105580002F40E196CCAEDDAEEEAEFFAEE19728E760
:1055900034E465962EAF3FAF659748E154E46796D3
:1055A0004EAF5FAF67976CE674E42F966EAF7FAF38
:1055B0002F9781EC94E425968EAF9FAF2597A8E4B2
:1055C000B4E4E596AEAFBFAFE597E0E3F4E46B96E5
:1055D000EEAFFFAF6B9720E330E4E3962EAF3FAF23
:1055E000E39745E954E469964EAF5FAF69972D960E
:1055F0001EAE1FAE2D9721962EAE3FAE2197A596DB
:105600002EAC3FACA5972D96CEACDFAC2D97C21437
:10561000D3040CF005C5160183E0220C331C8A95D7
:10562000E1F7200E311ED1011896BC91C257DF4F11
:10563000B883CE58D040F101F185C157DF4FF883D0
:10564000CF58D040D1011A96BC91C057DF4FB883D4
:10565000C059D040F101F385CF56DF4FF883C159CF
:10566000D040D1011C96BC91CE56DF4FB883C259B1
:10567000D040F101F585CD56DF4FF883C359D040B6
:10568000D1011E96BC91CC56DF4FB883C459D0408F
:10569000F101F785CB56DF4FF883C559D040E59629
:1056A000AEADBFADE597CD90DD90ED90FD90E59668
:1056B000AEAFBFAFE5972B96CCAEDDAEEEAEFFAE94
:1056C0002B97F101F0ADCA56DF4FF883C659D04091
:1056D000D101D996BC91C956DF4FB883C759D04084
:1056E000F101F2ADC856DF4FF883C859D040D1015F
:1056F000DB96BC91C756DF4FB883C959D040F10142
:10570000F4ADC656DF4FF883CA59D040D101DD96BB
:10571000BC91C556DF4FB883CB59D040F101F6ADEF
:10572000C456DF4FF883CC59D040D101DF96BC91ED
:10573000C356DF4FB883CD59D0406B96AEADBFADE9
:105740006B97CD90DD90ED90FD906B96AEAFBFAFB7
:105750006B97E996CCAEDDAEEEAEFFAEE997219643
:10576000AEADBFAD2197CD90DD90ED90FC90ED9664
:10577000CCAEDDAEEEAEFFAEED97F801F081C256D5
:10578000DF4FF883CE59D040D8011196BC91C15655
:10579000DF4FB883CF59D040F801F281C056DF4FB8
:1057A000F883C05AD040D8011396BC91CF55DF4F33
:1057B000B883C15AD040F801F481CE55DF4FF88349
:1057C000C25AD040D8011596BC91CD55DF4FB88351
:1057D000C35AD040F801F681CC55DF4FF883C45A44
:1057E000D040D8011796BC91CB55DF4FB883C55A2E
:1057F000D0407101E8E9EE0EF11CD701BC91CA5509
:10580000DF4FB883C65AD040F701F181C955DF4F49
:10581000F883C75AD040D7011296BC91C855DF4FC4
:10582000B883C85AD040F701F381C755DF4FF883DA
:10583000C95AD040D7011496BC91C655DF4FB883E2
:10584000CA5AD040F701F581C555DF4FF883CB5ACE
:10585000D040D7011696BC91C455DF4FB883CC5ABF
:10586000D040F701F781C355DF4FF883CD5AD040C0
:105870002196AEADBFAD21972D913D914D915C919B
:105880001397C358DF4F288339834A835B83CD57EF
:10589000D0402D913D914D915C91CF57DF4F2883A2
:1058A00039834A835B83C158D040E396AEADBFAD28
:1058B000E3972D913D914D915D91E396AEAFBFAFD2
:1058C000E397AD962CAF3DAF4EAF5FAFAD97D10133
:1058D000A859BF4F2C9111963C91119712964C915B
:1058E000129713965C91139714966C9114971596D2
:1058F0007C91159716968C91169717969C912196E8
:10590000EEADFFAD219780809180A280B380D7015A
:10591000BC91C255DF4FB883CE5AD040F701F18118
:10592000C155DF4FF883CF5AD040D7011296BC91B2
:10593000C055DF4FB883C05BD040F701F381CF542F
:10594000DF4FF883C15BD040D7011496BC91CE5491
:10595000DF4FB883C25BD040F701F581CD54DF4FF4
:10596000F883C35BD040D7011696BC91CC54DF4F6F
:10597000B883C45BD040F701F781CB54DF4FF88385
:10598000C55BD040D701BC91CA54DF4FB883C65B1A
:10599000D040F701F181C954DF4FF883C75BD04095
:1059A000D7011296BC91C854DF4FB883C85BD04072
:1059B000F701F381C754DF4FF883C95BD040D701AB
:1059C0001496BC91C654DF4FB883CA5BD040F70130
:1059D000F581C554DF4FF883CB5BD040D7011696D5
:1059E000BC91C454DF4FB883CC5BD040F701F78142
:1059F000C354DF4FF883CD5BD0402196AEADBFAD31
:105A00002197CD90DD90ED90FC9013976396CCAEEE
:105A1000DDAEEEAEFFAE6397CD90DD90ED90FC90E5
:105A2000CB57DF4FC882D982EA82FB82C558D0406B
:105A30000E945D3C6B017C01C501B4010E94E53907
:105A40009B01AC01C701B6010E94C03B6B017C0108
:105A5000C255DF4F2881CE5AD040C155DF4F388123
:105A6000CF5AD040C055DF4F4881C05BD040CF54A3
:105A7000DF4F5881C15BD040CE54DF4F6881C25B9D
:105A8000D040CD54DF4F7881C35BD040CC54DF4F42
:105A90008881C45BD040CB54DF4F9881C55BD04038
:105AA0000E94593C4B015C01CA54DF4F2881C65B00
:105AB000D040C954DF4F3881C75BD040C854DF4F56
:105AC0004881C85BD040C754DF4F5881C95BD04084
:105AD000C654DF4F6881CA5BD040C554DF4F788120
:105AE000CB5BD040C454DF4F8881CC5BD040C354E3
:105AF000DF4F9881CD5BD0400E94593C9B01AC01A7
:105B0000C501B4010E94443A4B015C0163966CAD3F
:105B10007DAD8EAD9FAD63970E94E5399B01AC01D1
:105B2000C501B4010E94C03B4B015C01CB57DF4F64
:105B3000688179818A819B81C558D0400E94E5396E
:105B40009B01AC01C501B4010E94C03B9B01AC01AB
:105B5000C701B6010E94583B0E94F23C9B01AC0178
:105B6000F101EC52FF4F80818181828183818481A8
:105B70008581868187812196EEADFFAD2197808159
:105B80009181A281B381AD966CAD7DAD8EAD9FAD9F
:105B9000AD970E94443A6B017C016996AEADBFADF2
:105BA0006997CD92DD92ED92FD926996AEAFBFAF4F
:105BB00069976796AEADBFAD67972D913D914D91B9
:105BC0005C9163962CAF3DAF4EAF5FAF6397C75705
:105BD000DF4F2880C958D040222009F4F6C1C257AF
:105BE000DF4F2881CE58D040C157DF4F3881CF5882
:105BF000D040C057DF4F4881C059D040CF56DF4F0B
:105C00005881C159D040CE56DF4F6881C259D0402B
:105C1000CD56DF4F7881C359D040CC56DF4F8881B5
:105C2000C459D040CB56DF4F9881C559D0400E940F
:105C3000593C2B962CAD3DAD4EAD5FAD2B970E94E0
:105C4000443A4B015C01CA56DF4F2881C659D04007
:105C5000C956DF4F3881C759D040C856DF4F4881F9
:105C6000C859D040C756DF4F5881C959D040C65691
:105C7000DF4F6881CA59D040C556DF4F7881CB5974
:105C8000D040C456DF4F8881CC59D040C356DF4F37
:105C90009881CD59D0400E94593CE9962CAD3DAD3C
:105CA0004EAD5FADE9970E94443A9B01AC01C5013E
:105CB000B4010E94593B4B015C01ED966CAD7DAD8A
:105CC0008EAD9FADED970E94E5399B01AC01C501FA
:105CD000B4010E94C03B4B015C01C256DF4F2881DA
