:100200007AC50000A2C50000A0C500000C946511CD
:100210009CC500009AC5000098C5000096C5000066
:100220000C94A61192C5000090C500008EC5000078
:100230008CC500008AC5000088C5000086C5000086
:1002400084C5000082C5000080C500007EC5000096
:100250007CC500007AC5000078C5000076C50000A6
:1002600074C5000072C500000C94C2116EC5000078
:100270006CC500006AC5000068C500000C946C11D4
:1002800064C5000062C5000060C500000C949411B4
:100290005CC500005AC5000058C5000056C50000E6
:1002A00054C5000052C5000050C500004EC50000F6
:1002B0004CC500004AC5000048C5000046C5000006
:1002C00044C5000042C5000040C500003EC5000016
:1002D0003CC500000C94F8100C94F3100C94FD1025
:1002E00034C5000032C5000030C500002EC5000036
:1002F0002CC500004E414E494E495459494E46CDF9
:10030000CCCC3D0AD7233C17B7D13877CC2B3295CC
:1003100095E6241FB14F0A000020410000C84200AA
:10032000401C4620BCBE4CCA1B0E5AAEC59D744A2A
:10033000534F4E20466F726D6174204F6666004ABF
:10034000534F4E20466F726D6174206F6E0052469F
:10035000206F6666005246206F6E0070756C736584
:1003600020706572696F64203D200070756C736544
:1003700073203D2000646174616C6F67203D200034
:10038000694C656164006943616C007643616C206F
:100390003D200043616C6962726174696F6E3A005E
:1003A0002064426D002C20002C204E6F64652000DC
:1003B000204D487A2C2047726F7570200042616E84
:1003C00064200053657474696E67733A004E6F2041
:1003D000454550524F4D20636F6E666967004C6F04
:1003E0006164656420454550524F4D20636F6E66D1
:1003F00069670064697361626C6564006D73002CE9
:10040000206D696E20706572696F643A2000656EB8
:1004100061626C65640050756C7365206F6E20615D
:100420006E616C6F673A20005265666572656E6337
:100430006520766F6C746167652063616C696272B8
:100440006174696F6E3A20002000204E6F64653A37
:1004500020002047726F75703A20003931354D48C1
:100460007A003836384D487A003433334D487A00B4
:1004700020467265713A200052464D363943572066
:10048000004F70656E456E657267794D6F6E697469
:100490006F722E6F726700656D6F6E5478355F44B2
:1004A000425F3643545F3370686173652056000ABB
:1004B00000202868696464656E292E0020627974C2
:1004C0006573002C20446174612073697A653A2059
:1004D00000205369676E61747572653A20004E6F33
:1004E000206461746120626C6F636B20666F756E4F
:1004F00064202D20454550524F4D2061707065613C
:10050000727320746F20626520666F726D617474FF
:10051000656420746F204F454D205374616E646193
:1005200072642062757420756E757365642E000A9E
:10053000002062797465732C206E6F7420666F7270
:100540006D617474656420746F204F454D20537441
:10055000616E646172640053697A653A2000446F89
:100560006E652E204E657720636F6E666967207317
:100570006176656420746F20454550524F4D00539D
:100580006176696E672E2E2E00536B65746368204A
:1005900077696C6C206E6F7720726573746172740A
:1005A000207573696E672064656661756C7420637D
:1005B0006F6E6669672E00526573657474696E6745
:1005C0002E2E2E0020000A417661696C61626C65F6
:1005D00020636F6D6D616E64733A0A6C09092D209A
:1005E0006C697374207468652073657474696E67D0
:1005F000730A7209092D20726573746F7265207316
:100600006B657463682064656661756C74730A73E6
:1006100009092D20736176652073657474696E67AE
:100620007320746F20454550524F4D0A7609092DAD
:100630002073686F77206669726D776172652076C6
:10064000657273696F6E0A7A09092D207A65726F77
:1006500020656E657267792076616C7565730A78BE
:1006600009092D20657869742C206C6F636B2061FB
:100670006E6420636F6E74696E75650A3F09092D9B
:100680002073686F772074686973207465787420AC
:10069000616761696E0A0A773C783E09092D20740A
:1006A00075726E2052464D20576972656C65737382
:1006B0002064617461206F66663A2078203D2030A6
:1006C000206F72206F6E3A2078203D20310A623C04
:1006D0006E3E09092D2073657420722E662E2062ED
:1006E000616E64206E203D20612073696E676C65C9
:1006F000206E756D6572616C3A2034203D20343374
:10070000334D487A2C2038203D203836384D487AF1
:100710002C2039203D203931354D487A20286D6113
:10072000792072657175697265206861726477619C
:100730007265206368616E6765290A703C6E6E3E63
:1007400009092D207365742074686520722E662E49
:1007500020706F7765722E206E6E202D20616E20C6
:10076000696E74656765722030202D2033312072E8
:100770006570726573656E74696E67202D313820FF
:1007800064426D20746F202B31332064426D2E2023
:1007900044656661756C743A20323520282B372009
:1007A00064426D290A673C6E6E6E3E092D207365AA
:1007B00074204E6574776F726B2047726F7570206E
:1007C000206E6E6E202D20616E20696E74656765E7
:1007D0007220284F454D2064656661756C74203D1C
:1007E00020323130290A6E3C6E6E3E09092D20738D
:1007F0006574206E6F6465204944206E3D20616EF3
:1008000020696E746567657220287374616E646117
:100810007264206E6F646520696473206172652064
:10082000312E2E3630290A0A643C78782E783E091B
:100830002D2078782E78203D206120666C6F6174C1
:10084000696E6720706F696E74206E756D62657277
:1008500020666F722074686520646174616C6F67D4
:1008600067696E6720706572696F640A633C6E3EEB
:1008700009092D206E203D203020666F72204F46E2
:10088000462C206E203D203120666F72204F4E2C6A
:1008900020656E61626C6520766F6C746167652C93
:1008A0002063757272656E74202620706F77657292
:1008B00020666163746F722076616C756573207455
:1008C0006F2073657269616C206F75747075742028
:1008D000666F722063616C6962726174696F6E2EFB
:1008E000200A6A3C6E3E09092D207475726E204AFA
:1008F000534F4E2053657269616C20666F726D6153
:1009000074206F6E20283129206F72206F66662058
:100910002830292E0A663C78783E09092D207878FF
:10092000203D20746865206C696E65206672657173
:1009300075656E637920696E20487A3A206E6F7211
:100940006D616C6C79206569746865722035302042
:100950006F722036300A6B3C783E203C79792E79D4
:100960003E203C7A7A2E7A3E0A09092D2043616C9A
:1009700069627261746520616E20616E616C6F677F
:10098000756520696E707574206368616E6E656C44
:100990003A0A0909202078203D20612073696E679A
:1009A0006C65206E756D6572616C3A2030203D205B
:1009B000766F6C746167652063616C6962726174E3
:1009C000696F6E2C2031203D206374312063616C8F
:1009D0006962726174696F6E2C2032203D206374ED
:1009E000322063616C6962726174696F6E2C20657C
:1009F00074630A0909202079792E79203D2061202D
:100A0000666C6F6174696E6720706F696E74206EBA
:100A1000756D62657220666F722074686520766FEE
:100A20006C746167652F63757272656E74206361A3
:100A30006C6962726174696F6E20636F6E7374614A
:100A40006E740A090920207A7A2E7A203D206120CE
:100A5000666C6F6174696E6720706F696E74206E6A
:100A6000756D62657220666F7220746865207068AB
:100A70006173652063616C6962726174696F6E2075
:100A8000666F72207468697320632E742E20287A32
:100A9000206973206E6F74206E65656465642C2018
:100AA0006F722069676E6F72656420696620737566
:100AB00070706C6965642C207768656E2078203DC5
:100AC0002030290A09092020652E672E206B30204E
:100AD0003235362E380A0909202020202020206BAC
:100AE000312039302E3920322E30300A613C78786E
:100AF0002E783E092D2078782E78203D20612066C2
:100B00006C6F6174696E6720706F696E74206E75AA
:100B10006D62657220666F72207468652061737300
:100B2000756D656420766F6C7461676520696620F9
:100B30006E6F20612E632E20697320646574656377
:100B40007465640A6D3C783E203C79793E092D201D
:100B50006D657465722070756C736520636F756E5A
:100B600074696E673A0A090920202078203D2030F8
:100B700020666F72204F46462C2078203D20312081
:100B8000666F72204F4E2C203C79793E203D2061CB
:100B90006E20696E746567657220666F7220746876
:100BA000652070756C7365206D696E696D756D205B
:100BB000706572696F6420696E206D732E202879CC
:100BC000206973206E6F74206E65656465642C20E7
:100BD0006F722069676E6F726564207768656E203A
:100BE00078203D2030290A00456E657267792076AD
:100BF000616C7565732073657420746F207A6572FB
:100C00006F00436F6E74696E75696E672E2E2E00CD
:100C10005246206F6666005246206F6E00656D6F0B
:100C20006E5478355F44425F3643545F3370686179
:100C300073652056002064426D0070203D20004EF8
:100C40006F6465200064697361626C6564006D7334
:100C5000002C206D696E20706572696F643A200007
:100C6000656E61626C65640050756C7365206F6EB3
:100C700020616E616C6F673A2000200020004361A4
:100C80006C3A206B0047726F757020004672657178
:100C90003A2000207300646174616C6F6720706596
:100CA00072696F643A2000204D487A002C7066000B
:100CB0002C49002C70756C73653A002C45002C5043
:100CC000002C56004D53473A007D002C2270756C65
:100CD0007365223A002C2245002C2250002C22560B
:100CE000007B224D5347223A000A0000080A400CBC
:100CF000FFC000C0141611241FBECFEFCDBFDFE729
:100D0000DEBF11E4A0E0B0E4EEE8F6E600E00BBFE1
:100D100002C007900D92A233B107D9F72EE5A2E3E6
:100D2000B1E401C01D92A938B207E1F716E0CBE7A4
:100D3000D6E004C02197FE010E941933CA37D107BB
:100D4000C9F70E9456170C9445335ACACF92DF92C6
:100D5000EF92FF92CF93DF936A01815096E1899FD2
:100D6000E0011124C053D24A888323EA33E240E0F1
:100D700051E4CB01B6010E941130209149403091DD
:100D80004A4040914B4050914C400E9411306B01C1
:100D90007C0160912A5870912B5890E080E00E946D
:100DA000B02F9B01AC01C701B6010E948A31698353
:100DB0007A838B839C831D828AE097EDA3E2BEE356
:100DC0008E839F83A887B9871A861B861C861D86FB
:100DD0001E86DF91CF91FF90EF90DF90CF90089526
:100DE0008091825E8D3011F42D9A0895873011F430
:100DF0000F9A0895813109F44B9A0895000090915B
:100E0000865E911109C0809344098091430987FF50
:100E1000FCCF80914409089580936409809163090F
:100E200087FFFCCF8091640908958091825E8D30A8
:100E300011F42D980895873011F40F980895813199
:100E400009F44B980895CF93DF93D82FC62FEDDF89
:100E50008D2F8068D3DF8C2FD1DFDF91CF91C0CF72
:100E6000CF93C82FE2DF8C2FC9DF80E0C7DFC82F08
:100E7000B7DF8C2FCF910895CF939091905798170B
:100E800091F0C82F81E0ECDF837E682F6C2B81E02E
:100E9000DADF80919057811104C087E2E1DF87FF9C
:100EA000F8CFC0939057CF9108950F931F93CF938E
:100EB000DF93EC0184E0E0DF2097D9F0888188237C
:100EC000C1F0B3DF8EEB9ADF8E01005F1F4F899177
:100ED00095DFC017D107D9F783DFC1E08DE3C0DF0D
:100EE0008E7F682F6C2B8DE3DF91CF911F910F9137
:100EF000AACFC0E0F3CF10924F5710924D571092E7
:100F00004E5710924B5710924C5710924A571092CE
:100F1000495788E2A5DF82FF06C08DE3A1DF682F75
:100F200064608DE390DF80E1A7CFAF92BF92CF9254
:100F3000DF92EF92FF920F931F93CF93DF936C0199
:100F40007B018B01040F151FEB015E01AE18BF087A
:100F5000C017D10759F06991D601ED91FC9101902C
:100F6000F081E02DC6010995892B79F7C501DF9144
:100F7000CF911F910F91FF90EF90DF90CF90BF9096
:100F8000AF900895FC0155894689252F30E0842FC4
:100F900090E0821B930B541710F0CF9608950197A1
:100FA0000895FC0193898489981761F0A489AE0F94
:100FB000BF2FB11D57968C9194899F5F9F73948B1F
:100FC00090E008958FEF9FEF0895FC019389848945
:100FD000981731F08489E80FF11D878990E0089512
:100FE0008FEF9FEF0895FC0193892489892F90E06A
:100FF000805C9F4F821B91098F7399270895CF932F
:10100000DF93EC01E881F9810680F781E02D0995F5
:10101000EC85FD85868116828581158280E4848336
:101020008C898B8B1A8ADF91CF9108958F929F9232
:10103000AF92BF92FF920F931F93CF93DF938C01D8
:101040004A015B01D22FC32FDC0152968C9152973B
:1010500080FF07C0ED91FC910288F389E02DC80163
:101060000995D11101C0D3E0FD2EE894F2F8DC2FF0
:10107000D095D07CB1E68B16B3EE9B06B6E1AB06FD
:10108000B10428F0D260B694A7949794879460E056
:1010900078ED88EB95E0A50194010E94F430C90138
:1010A0002034310510F480E490E03C2F3B72D7FDF2
:1010B00030684D2F487C30FD41605FB7F894D8010F
:1010C0001C96ED91FC911682F7828087918735FFFF
:1010D0008FC04F7781E084878FEF85873F7D358391
:1010E000D683F8012189C08986859785FC0133E084
:1010F000239FE00DF11D1124659174912C1708F0C8
:1011000059C0272F46FF76C0793288F430E0F901C4
:10111000EF5AFF4BA081AF3F51F026583F4BF901EA
:10112000308120E2329FF0011124FC5FA18347FF50
:101130002AC021E0270F293230F530E0F901EF5ABB
:10114000FF4BD081DF3FF9F0F901E658FF4BA0815A
:10115000F0E2AF9FD0011124BC5F2D553F4BF90148
:101160001081F0E0E0E0183030F49D01205F3F4F47
:10117000F901E10FF11D3FB7F8941296DC9320813D
:10118000286020833FBF40FF15C023E0270F29328E
:1011900088F430E0F901EF5AFF4B40814F3F51F0A6
:1011A00026583F4BD901EC91B0E2EB9FF00111249E
:1011B000FC5F4183FC0123E0C29FE00DF11D11247F
:1011C000319625913491F901FF27EE51FA4F908124
:1011D000832F80958923682B60835FBFDF91CF9138
:1011E0001F910F91FF90BF90AF909F908F900895A7
:1011F000148674CF342F307509F499CF793208F002
:1012000096CF30E0F901EF5AFF4BD081DF3F09F470
:101210008ECFF901E658FF4BA081E0E2AE9FD001EE
:101220001124BC5F2D553F4BF9011081F0E0E0E047
:10123000183030F49D01205F3F4FF901E10FF11D9F
:101240003FB7F8941296DC932081286020833FBF3B
:101250006ECFFC010FB607FE04C0809111018823F8
:10126000A1F0A485B58514968C91149785FF0DC0C7
:1012700095898689981739F015968C9115978F7DE9
:1012800015968C930895E894C3C708950F931F9300
:10129000CF93DF93EC018A89982F91609A8B2D89E7
:1012A0009E8929130AC0EC85FD85948195FF05C0B0
:1012B00081FD0DC080E4848312C0062F1D891F5F4D
:1012C0001F738E89811315C0CE01C3DFFACF8581CC
:1012D0008F77806490E49483EC85FD858583EC852D
:1012E000FD85628381E090E0DF91CF911F910F91A6
:1012F0000895ED89EC0FFD2FF11DE95AFF4F008392
:101300001D8BEC85FD858A8981FF09C085818F77DA
:10131000806690E49483EC85FD858583E3CF8581A9
:101320008062FBCF0F931F93CF93DF938C01D0E0AC
:10133000C0E0F801EC0FFD1F6491662339F081E9EC
:1013400097E5A4DF892B11F02196F3CFCE01DF9131
:10135000CF911F910F910895682F81E997E596CF5E
:10136000CF93DF93EC018A8980FF0BC0EC85FD856C
:10137000858185FD03C0848186FD03C0CE0169DFC0
:10138000F5CFDF91CF91089581E008950F98079AE6
:1013900020E533EC93E0179A44E1F9013197F1F736
:1013A0004150D9F7482F179AF9013197F1F7179A59
:1013B00059E0F9013197F1F75150D9F7415099F7B8
:1013C000915049F7E7CF9FB7F894E0912A0BF0913D
:1013D0002B0B8091260B2091F4563091F5564091BD
:1013E000F6565091F7569FBF80FF08C0EC3E8CE246
:1013F000F80720F42F5F3F4F4F4F5F4F0F011694B8
:101400000794169407941694079416940794F00181
:1014100016940794E00DF11D16940794102C169461
:1014200001181694010C169401181694010C1694C8
:10143000011816941694010C1124E019F109A8EE74
:10144000B3E00E94E4306E0F7F1F811D911D08954F
:101450008F929F92AF92BF92CF92DF92EF92FF92C4
:101460006B017C01B0DF4B015C01C114D104E104CC
:10147000F104B1F0A8DF681979098A099B09683E6F
:1014800073408105910588F321E0C21AD108E10873
:10149000F10888EE880E83E0981EA11CB11CE5CFF0
:1014A000FF90EF90DF90CF90BF90AF909F908F9084
:1014B00008952FB7F8946091F4567091F556809185
:1014C000F6569091F7562FBF089581509091085786
:1014D0002FE5929FF0011124E05AF74A45E1849FDD
:1014E000900111242C52334A20833183615026E12C
:1014F000629FB00111246053724A628373836483D4
:101500007583E25AFF4F21E02083E82FF0E0E55F8A
:10151000F84A90839F5F9093085708958F929F9207
:10152000AF92BF92CF92DF92EF92FF920F93CF9341
:101530006B017C0120E030E040E05FE30E94AC2FD3
:1015400087FF05C0C12CD12CE12C8FE3F82EC0926F
:101550000540D0920640E0920740F092084080900B
:10156000055790900657C091075720E836E948E1A3
:101570005BE4C701B6010E9411306B017C01B12C04
:10158000A12CC501B4010E94B02F9B01AC01C70181
:10159000B6010E948A310E94F7316B017C0160E83C
:1015A00076E988E990E0A50194010E94F430CA012F
:1015B000B90100914640202F30E050E040E00E9409
:1015C000F43044275527C701B601621B730B840B07
:1015D000950B2C2F30E050E040E00E94F430209337
:1015E000F8563093F9564093FA565093FB56CF91E4
:1015F0000F91FF90EF90DF90CF90BF90AF909F90B2
:101600008F900895DC01ED91FC91F170FC5E80817A
:101610000895CF92DF92EF92FF920F931F93CF9393
:10162000DF9300D0CDB7DEB76C017C0103E010E0A2
:1016300009831A83CE010196E5DFF70181937F01CB
:101640000F5F1F4F0730110599F7C6010F900F90DC
:10165000DF91CF911F910F91FF90EF90DF90CF908E
:1016600008950F931F93CF93DF9300D000D0CDB791
:10167000DEB78C0119821A82CE010196C3DF8F3446
:10168000F9F481E090E089839A83CE010196BADF74
:101690008534B1F482E090E089839A83CE0101968B
:1016A000B1DF8D3469F481E00115110551F0CE01EF
:1016B0000196AFDF81E02B813C812017310709F0D3
:1016C00080E02496CDBFDEBFDF91CF911F910F91B7
:1016D00008951F93CF93DF93EC01162F93DF8117AB
:1016E000B1F09FB780910210282F227081FDFACFB0
:1016F000F8948DE984BF2093001023E184BF2093E8
:101700000010E881F981F170FC5E10839FBFCE016B
:10171000DF91CF911F910895CF92DF92EF92FF92C8
:101720000F931F93CF93DF9300D0CDB7DEB76C013B
:101730007C0103E010E009831A83F70161917F01C6
:10174000CE010196C6DF0F5F1F4F0730110599F7D5
:10175000C6010F900F90DF91CF911F910F91FF90D5
:10176000EF90DF90CF9008950F931F93CF93DF9367
:1017700000D0CDB7DEB70091365E1091375E809114
:10178000385E9091395E081719079CF4C80195716D
:1017900089839A836FEFCE0101969BDF1092325EB0
:1017A0001092335E8091305E9091315E080F191F68
:1017B000E6CF0F900F90DF91CF911F910F91089579
:1017C000DC01ED91FC910088F189E02D23E030E00F
:1017D0000994FC0101900020E9F73197AF01481B03
:1017E000590BBC0181E997E5A0CB86EE90E4F1CFDF
:1017F000CF93DF9397DDEC01F8DF8C0F9D1FDF9116
:10180000CF910895009709F0E4CF90E080E008952B
:101810008F929F92AF92BF920F931F93CF93DF93BC
:10182000CDB7DEB7A197CDBFDEBF19A2423008F415
:101830004AE08E010F5D1F4F842E912CB12CA12CFC
:10184000A50194010E94F430E62FB901CA01EA30E3
:10185000B4F4E05DD801EE938D01232B242B252BCE
:1018600079F7CD01CFDFA196CDBFDEBFDF91CF915C
:101870001F910F91BF90AF909F908F900895E95C5A
:10188000E9CFC0CFCF92DF92EF92FF92CF93DF9359
:1018900097FF17C06B017C018DE25EDDEC016627CE
:1018A0007727CB016C197D098E099F094AE0B0DFCB
:1018B0008C0F9D1FDF91CF91FF90EF90DF90CF9025
:1018C00008954AE0DF91CF91FF90EF90DF90CF90A5
:1018D0009FCFBC01990F880B990BD4CFCF93DF9387
:1018E000F8DFEC0182DF8C0F9D1FDF91CF9108950F
:1018F0004F925F926F927F928F929F92AF92BF9220
:10190000CF92DF92EF92FF920F931F93CF936B01D1
:101910007C01742EAC019B010E940E33882391F050
:1019200089EE90E4CF911F910F91FF90EF90DF909F
:10193000CF90BF90AF909F908F907F906F905F906F
:101940004F9047CF46015701E894B7F82FEF3FEF8C
:101950004FE75FE7C501B4010E940E3381110DC04E
:101960002FEF3FEF4FE75FE7C501B4010E94AC2FB7
:1019700018161CF48DEE90E4D5CF2FEF3FEF4FE714
:101980005FE4C701B6010E94C83218161CF481EF4B
:1019900090E4C8CF2FEF3FEF4FE75FECC701B601F0
:1019A0000E94AC2F87FDF3CF20E030E0A901C701F2
:1019B000B6010E94AC2F10E000E087FF07C08DE267
:1019C000CBDC8C01F7FAF094F7F8F094C0E060E01B
:1019D00070E080E09FE37C1641F020E030E040E2E0
:1019E00051E40E948A31CF5FF6CFA70196010E9491
:1019F00026312B013C010E94F7314B015C014AE08A
:101A000007DF7C01E00EF11ECC23A9F1C501B40172
:101A10000E94B02F9B01AC01C301B2010E9425318D
:101A20004B015C0185EF90E4D4DEE80EF91EC15055
:101A300010F120E030E040E251E4C501B4010E9421
:101A400011302B013C010E94F7314B01B12CA12C2C
:101A50004AE0C501B401DCDEE80EF91EC501B4019F
:101A60000E94B02F9B01AC01C301B2010E9425313D
:101A70004B015C01DCCFC701CF911F910F91FF900B
:101A8000EF90DF90CF90BF90AF909F908F907F901E
:101A90006F905F904F900895CF93DF9329DFEC0113
:101AA000A4DE8C0F9D1FDF91CF910895AF92BF925E
:101AB000CF92DF92EF92FF920F931F93CF93DF931A
:101AC00000D0CDB7DEB76C015B0110E000E00A1575
:101AD0001B057CF57801EC0CFD1C85E1F822E98200
:101AE000FA82CE0101968EDD803110F480E334DC81
:101AF0000F5F1F4FE982FA82CE01019683DD682FC6
:101B000070E090E080E040E183DE89EF90E4B9DEB0
:101B1000C80187709927892B19F489EF90E4B1DE09
:101B2000C8018F709927892B91F689EE9CE0FADB2A
:101B3000CECF0F900F90DF91CF911F910F91FF901B
:101B4000EF90DF90CF90BF90AF9008950F931F93C9
:101B5000CF93DF9380919057803109F062C088E283
:101B60007FD982FF3BC084E087D95FD980E046D926
:101B700080E044D9D82FC82F833408F0C2E4C09342
:101B80004A5780E03BD9082F80E038D9182F80E0F1
:101B900035D9282F30E0A90196E0440F551F9A95BA
:101BA000E1F744275370402B40934B5750934C57C9
:101BB000322F222722273370212B20934D57309329
:101BC0004E579091805E9417150611F0452B11F435
:101BD000D330A0F410924A5703D98DD980919057F1
:101BE0008031F9F480914A578823E1F084E044D9A8
:101BF00081E0DF91CF911F910F910895C350C09361
:101C00004F57807880934957D0E0DC1720F480E06C
:101C1000F5D8DF5FFACFE4D880E12ED984E220D96D
:101C2000DDCF69D980E0E5CF0F931F93CF93DF938A
:101C300083EC93E0DDDD8DEB93E074DB80913A5E25
:101C40008B3209F48FC0863509F48FC08B3509F4C7
:101C50008FC090E080E03DDE80EB93E063DB60913D
:101C60003B5E70E090E080E04AE0D2DD88EA93E0FD
:101C700059DB80913C5E8F7390E02BDE85EA93E028
:101C800051DB80913E5E8251990B23DE80EA93E026
:101C9000AFDD83E993E0ACDD8BE893E043DB60915B
:101CA0003F5E7091405E8091415E9091425E42E065
:101CB00050E0F2DE07E41EE5C1E0D0E086E893E004
:101CC00031DBCE0106DE87EF90E4DBDDF8016191C8
:101CD0007191819191918F0142E050E0DDDE80E8C9
:101CE00093E020DBCE01F5DD87EF90E4CADDF8015B
:101CF000648975898689978942E050E0CDDE219616
:101D0000C730D105D9F685E793E00CDB6091775EAB
:101D10007091785E8091795E90917A5E42E050E0B9
:101D2000BBDE8BE693E0FEDA80917B5E90E0D6DD51
:101D30008BE593E0F7DA80917C5E90917D5ECEDD5D
:101D400080913D5E811117C08EE493E051DD80915A
:101D50007F5E811113C08FE293E0DF91CF911F91DD
:101D60000F9146CD81EB91E076CF84E693E073CF7F
:101D700083E993E070CF85E593E0E8CF8FE393E0CC
:101D8000ECCF94E081111BC09093460490914004E5
:101D900092FD0AC09FB7F894811114C0809152043B
:101DA000877F809352049FBF8091E60587708230C1
:101DB00029F48091010A8B7F8093010A0895909302
:101DC0004504E4CF809152048860EBCF0F931F93BA
:101DD000CF93DF93CDB7DEB72C97CDBFDEBF681BA7
:101DE000F1F0062F10E0682F70E0605B784AA801E0
:101DF000CE0101960E943633E1E0F0E0EC0FFD1FCA
:101E0000E00FF11F1082CE0101960E94122E2C9637
:101E1000CDBFDEBFDF91CF911F910F91089590E06C
:101E200080E0F5CF0F931F93CF93DF93CDB7DEB74D
:101E30002C97CDBFDEBF681BF1F0062F10E0682F96
:101E400070E0605B784AA801CE0101960E943633AB
:101E5000E1E0F0E0EC0FFD1FE00FF11F1082CE017A
:101E600001960E940F2E2C96CDBFDEBFDF91CF9141
:101E70001F910F91089560E070E0CB01F4CF2F9295
:101E80003F924F925F926F927F928F929F92AF920A
:101E9000BF92CF92DF92EF92FF920F931F93CF9357
:101EA000DF93CDB7DEB72A97CDBFDEBF89879A878C
:101EB000162F7A01222E312CB101032C000C880B35
:101EC000990B0E94B22F4B015C01612F70E090E0F2
:101ED00080E00E94B22F20E030E044EB53E40E9407
:101EE00011302B013C01B70190E080E00E94B02F3F
:101EF0009B01AC01C301B2010E941130A501940104
:101F00000E94113020E836E948E15BE40E948A3102
:101F10002B013C01E985FA8505818081081B110BA5
:101F200021813281438154816681778180859185C9
:101F30000E942531A30192010E948A316B017C012C
:101F4000B801012E000C880B990B0E94B22FA5013D
:101F500094010E948A319B01AC01C701B6010E9425
:101F600026316D837E838F8398870E9465326983D3
:101F70007A838B839C8320E030E040E85FE30E941B
:101F800026316B017C0120E030E0A90169817A8172
:101F90008B819C810E94C83287FDA2C0A701960157
:101FA000C501B4010E9411300E94F231E985FA8521
:101FB0006287738716861786E985FA8526853785B1
:101FC000020F131F06871787020D131D048715873D
:101FD00020E030E044EB53E4C301B2010E948A31B7
:101FE0002BED3FE049EC50E40E9411306B017C0185
:101FF00029813A814B815C816D817E818F819885B9
:102000000E942531A30192010E94113020E030E0AE
:1020100044EB53E40E948A312BED3FE049EC50E45D
:102020000E9411304B015C01A70196010E948A3188
:102030002B013C01E985FA85448A558A668A778AAC
:10204000A5019401C501B4010E94113020E030E0E7
:1020500040E05FE30E9411309B01AC0160E070E062
:1020600080E89FE30E9425314B015C01A7019601A6
:10207000C701B6010E94113020E030E040E05FE38C
:102080000E9411309B01AC0160E070E080E89FE3AA
:102090000E942531A30192010E9411309B01AC01E5
:1020A000C501B4010E942531E985FA85608B718BE9
:1020B000828B938B2A96CDBFDEBFDF91CF911F918C
:1020C0000F91FF90EF90DF90CF90BF90AF909F90D7
:1020D0008F907F906F905F904F903F902F900895DA
:1020E000E985FA8512861386C701B6019058A501C5
:1020F00094010E9411300E94F231E985FA856687C9
:1021000077875ACFCF92DF92FF920F931F93CF938F
:10211000DF930FE5089FF0011124EF01C05AD74A61
:10212000AA81BB811F962C911F972A8B16964D91E1
:102130005D916D917C9119974B8B5C8B6D8B7E8B38
:10214000A881B9811F962C911F972F8B16964D91C0
:102150005D916D917C911997488F598F6A8F7B8F14
:1021600020910757C0900557D0900657F0904640F1
:102170008F01A6016F2DCF018E58974A80DEEC812A
:10218000FD818A819B818E179F0729F187858AA708
:1021900086819781A085B1858BA79CA7ADA7BEA797
:1021A000E881F98187858FA786819781A085B18590
:1021B00088AB99ABAAABBBAB20910757A6016F2D9B
:1021C000C8018657974ADF91CF911F910F91FF90D9
:1021D000DF90CF9054CEDF91CF911F910F91FF9060
:1021E000DF90CF900895EF93FF93E1E9F7E508C002
:1021F000EF93FF93E1E9F7E531C0EF93E0E652C0DA
:102200002F932FB72F938F939F93AF93BF93689480
:10221000CF93DF9320E0C485D8E09689DF01A90F32
:10222000B21FA95ABF4F8C9120E42C838A839F5FF1
:102230009F738D812589291302C08F7D8D83968B95
:10224000DF91CF910EF021C8BF91AF919F918F91F7
:102250002F912FBF2F91FF91EF9118952F932FB7AB
:102260002F938F939F93CF93DF93C485D8E0898179
:10227000988181FD0DC0C38981E08C0F8F73248903
:10228000281731F0CE0FDF2F20E0D21F9F8B838BDA
:10229000DF91CF919F918F912F912FBF2F91FF9120
:1022A000EF911895FF938F938FB78F93F8E080810C
:1022B000848187FFFCCF85818F7B806885838F91A8
:1022C0008FBF8F91FF91EF9118951F920F920FB6CC
:1022D0000F92112484E05AD81F920F920FB60F92DA
:1022E00011248F939F93AF93BF938091F456909155
:1022F000F556A091F656B091F7560196A11DB11D65
:102300008093F4569093F556A093F656B093F756F3
:1023100081E08093260BBF91AF919F918F910F9099
:102320000FBE0F901F9018951F920F920FB60F922D
:1023300011248F9388E08093A90481E08093025751
:102340008F910F900FBE0F901F9018951F920F92B4
:102350000FB60F9211248F939F938091090480935D
:10236000090486FF03C091E09093045787FF03C0E0
:1023700081E0809303579F918F910F900FBE0F9034
:102380001F9018951F920F920FB60F9211240BB643
:102390000F922F923F924F925F926F927F928F9205
:1023A0009F92AF92BF92CF92DF92EF92FF920F93E4
:1023B0001F932F933F934F935F936F937F938F93CD
:1023C0009F93AF93BF93EF93FF93CF93DF93CDB7DB
:1023D000DEB72A97CDBFDEBF81E080930D068091E6
:1023E0001006909111068D839E838091F3568E5F27
:1023F00090910757891718F090910757891B90E023
:10240000FC01EE0FFF1FE80FF91FE75EFF4B808115
:10241000809308068D819E8120912A5830912B58F7
:1024200036952795821B930B8D839E838D819E818C
:10243000E091F156F091F256EE0FFF1FEF50F14B85
:102440008083918319821A821B821C822D813E8196
:102450000D811E8122241302B001029FA0011203EC
:102460007209500D611D721D30037209500D611DFE
:10247000721D112449835A836B837C8389809A80DF
:10248000AB80BC80A0910140B0910240E091F35636
:1024900008E0E09FF0011124EA0FFB1FE058FF4F16
:1024A000208031804280538064807580068117814E
:1024B0009401A50160E070E080E090E051016201CC
:1024C00073010E94223320833183428353836483C8
:1024D0007583868397834D815E81E091F35618E082
:1024E000E19FF0011124EA0FFB1FA084B184C28494
:1024F000D384E484F58406851785952F990F990B6D
:102500009A01492F592F692F792F892F0E94223341
:1025100020873187428753876487758786879787A7
:10252000E091F3568E2F90E0FC01EE0FFF1FE80FB5
:10253000F91FE75EFF4B80818111CFC08091EF4E84
:102540009091F04E9C013695279536952795AC01D4
:10255000421B530B9A018D819E81181619060CF4AB
:1025600078C08D819E81919581959109820F931FED
:102570008093EF4E9093F04E21E040912858509177
:1025800029584817590708F020E02093E55D8D8110
:102590009E81181619060CF05FC081E090E08093D0
:1025A000ED4E9093EE4E2091ED4E3091EE4E809197
:1025B000E94E9091EA4E2817390709F452C08091EC
:1025C000E64E8F5F8093E64E8091E64E882351F071
:1025D0001092E64E8091ED4E9091EE4E8093EB4E30
:1025E0009093EC4E8091EB4E9091EC4E019709F058
:1025F00016C38091E94E9091EA4E019709F465C0A7
:102600008091E74E9091E84E01968093E74E90932B
:10261000E84E20910440222339F1209103402817ED
:10262000190609F008F5109204401092E74E109236
:10263000E84E14961D921D921D921C921797CD0183
:1026400088529D4FFD01E817F90771F0108231960D
:10265000FACF8D819E818ACF1092ED4E1092EE4E70
:10266000A2CF1092E64EB0CF14964D915D916D9130
:102670007C9117974F5F5F4F6F4F7F4F14964D932D
:102680005D936D937C9317970D911D912D913C91C6
:1026900013974091F8565091F9566091FA567091FF
:1026A000FB56041715072607370778F08091474037
:1026B00090914840A0934740B09348408093014098
:1026C0009093024081E080930A578091EB4E909165
:1026D000EC4E8093E94E9093EA4E9091F3568091A0
:1026E0000957981708F445C28090F1569090F25619
:1026F000E091F3568E2F90E0FC01EE0FFF1FE80FE4
:10270000F91FE75EFF4B0180F281E02D848D958DEE
:10271000881A990A53E09522E091F156F091F25609
:10272000A091F3568A2F90E0DC01AA0FBB1FA80FDF
:10273000B91FA75EBF4B11960D90BC91A02D5E9660
:102740008D919C91E81BF90BF3702091F15630911B
:10275000F256A091F3568A2F90E0DC01AA0FBB1F1E
:10276000A80FB91FA75EBF4B11960D90BC91A02D6D
:1027700090968D919C91281B390BD901B370AF8332
:10278000B887880C991C84010F50114B4801D8015F
:102790006D917C91EE0FFF1FEF50F14B4081518105
:1027A000222457029001469F800156033209100DE2
:1027B000211D321D74033209100D211D321D1124FB
:1027C00028013901E0910140F0910240A091F356B7
:1027D00018E0A19FD0011124AE0FBF1FA850BF4F1A
:1027E000AC901196BC90119712962C90129713965C
:1027F0003C90139714960C911497098715961C9189
:1028000015971A8716960C91169717961C9117977D
:1028100073016201FF0CCC08DC2C76019201A3014C
:102820006C2D7C2D8C2D9C2D6101E984FA840E94F5
:1028300022332C9311963C93119712964C93129736
:1028400013965C93139714966C93149715967C9338
:10285000159716968C93169717969C93D4016D91A5
:102860007C91AF81B885AA0FBB1FAF50B14B4D9182
:102870005C91222457029001469F80015603320941
:10288000100D211D321D74033209100D211D321D42
:10289000112448015901A091F35618E0A19FD001DD
:1028A0001124AE0FBF1FA059BE4F2C9011963C9023
:1028B00011971296CC9012971396DC90139714965A
:1028C000EC9014971596FC90159716960C91169708
:1028D00017961C91179724013501770C4408542C46
:1028E00032019401A501642D742D842D942D510184
:1028F0000E9422332C9311963C93119712964C937D
:10290000129713965C93139714966C9314971596DD
:102910007C93159716968C93169717969C93A09177
:10292000F3568091F3562A2F30E0D901AA0FBB1F2E
:10293000A20FB31FA75EBF4B11962D913C9190E063
:10294000DC01AA0FBB1FA80FB91FA75EBF4B1196D2
:102950008D919C91D90112962D913C91DC01149698
:102960008D919C912817390709F403C18090F15685
:102970009090F256A091F3568A2F90E0DC01AA0FB6
:10298000BB1FA80FB91FA75EBF4B11960D90BC913E
:10299000A02DD4968D919C91881A990AB3E09B2220
:1029A0002091F1563091F2568091F35690E0DC017F
:1029B000AA0FBB1FA80FB91FA75EBF4B11960D90A2
:1029C000BC91A02DD6968D919C91D901A81BB90BD5
:1029D000BD0173704091F1565091F2568091F356BB
:1029E000282F30E0C901880F991F820F931F875E3F
:1029F0009F4BDC0111968D919C91DC01D8968D91B5
:102A00009C91481B590BDA01B370AF83B887880CCF
:102A1000991C84010F50114B4801D8018D919C9154
:102A2000DB01AA0FBB1FAF50B14B4D915C91BC01B4
:102A3000222457029001469F800156033209100D4F
:102A4000211D321D74033209100D211D321D112468
:102A500028013901A091F35678E0A79FD0011124F5
:102A6000AE0FBF1FA851BE4FAC901196BC901197EE
:102A700012962C90129713963C90139714960C91E3
:102A80001497098715961C9115971A8716960C911D
:102A9000169717961C91179779016201FF0CCC08C5
:102AA000DC2C76019201A3016C2D7C2D8C2D9C2DAC
:102AB0006101E984FA840E9422332C9311963C939D
:102AC000119712964C93129713965C931397149642
:102AD0006C93149715967C93159716968C9316976E
:102AE00017969C93D4016D917C91AF81B885AA0F04
:102AF000BB1FAF50B14B4D915C9122245702900106
:102B0000469F800156033209100D211D321D7403AA
:102B10003209100D211D321D112428013901809127
:102B2000F35618E0819FC0011124E80FF91FE05A05
:102B3000FD4FB081A181C280D380E480F580068101
:102B4000178153014201BB0C8808982C5401920153
:102B5000A301682D782D882D982DAB2EBA2E0E94BA
:102B60002233208331834283538364837583868336
:102B700097838091F3568F5F8093F3568091F1563F
:102B80009091F25601968093F1569093F25690915F
:102B9000F35680910757981788F01092F356E091FA
:102BA0000140F091024080819181A281B381019620
:102BB000A11DB11D80839183A283B3838091F156BF
:102BC0009091F25693708093F1569093F2562A9614
:102BD000CDBFDEBFDF91CF91FF91EF91BF91AF915C
:102BE0009F918F917F916F915F914F913F912F9125
:102BF0001F910F91FF90EF90DF90CF90BF90AF901B
:102C00009F908F907F906F905F904F903F902F900C
:102C10000F900BBE0F900FBE0F901F9018958091D4
:102C2000E94E9091EA4E51CDEF92FF920F931F9390
:102C3000CF93DF9300D0CDB7DEB7109293571092A9
:102C4000945788EE93E0A0E0B0E08093955790937E
:102C50009657A0939757B093985780ED90E4809340
:102C600091579093925780E698E080939D57909368
:102C70009E578BEE9CE080939F579093A05782E0E5
:102C80008093A1571092A2571092A35780E090E032
:102C9000A8ECB2E48093D15D9093D25DA093D35D14
:102CA000B093D45D1092E45D1092E55D8093E75D92
:102CB0009093E85DA093E95DB093EA5D1092FA5DB0
:102CC0001092FB5D8093FD5D9093FE5DA093FF5D90
:102CD000B093005E1092105E1092115EE4EDFCE580
:102CE00081839283A383B483148A75962DE5E03D96
:102CF000F207B1F780E698E5FC01E25AFF4F108237
:102D0000815A9F4F4CE5843D9407B1F7E0E3F8E525
:102D100024E130E092E081E02083318392831382CA
:102D20001482158216821782108611868287138676
:102D3000709648E5E036F40779F710922C58109217
:102D40002D5810922E5880E090E180932A5890934D
:102D50002B5880E091E080932858909329588EEF6B
:102D600090E08093345E9093355E8DE190E08093A7
:102D7000305E9093315E8DE090E080932E5E909374
:102D80002F5E84E890E08093365E9093375E8DEFFF
:102D900091E08093385E9093395E1092325E10928B
:102DA000335E04E810E009831A83CE0101960E9485
:102DB000020B78019DE1E90EF11C8F3F09F46EC012
:102DC0000093325E1093335E2DEFE21621E0F2069F
:102DD0005CF4E982FA82CE0101960E94020B8F3FD9
:102DE00009F458C00E94B40B8AE08093825E8BE0A5
:102DF0008093835E8CE08093845E8DE08093855E1B
:102E00001092865E8BE280933A5E82ED80933B5E09
:102E10008BE180933C5E81E080933D5E99E19093ED
:102E20003E5E4AE959E96AEC72E440933F5E509392
:102E3000405E6093415E7093425E40E050E068E423
:102E400072E44093435E5093445E6093455E70939A
:102E5000465E4DEC5CEC6CE171E44093775E509320
:102E6000785E6093795E70937A5E80937B5E84E691
:102E700090E080937C5E90937D5E10927E5E1092D7
:102E80007F5E0F900F90DF91CF911F910F91FF9078
:102E9000EF9008954DE1E40EF11C96CF87018DEF80
:102EA000E81681E0F80609F07ECF9ECFCF93DF933E
:102EB000CDB7DEB7CA57D109CDBFDEBF88ED21E05F
:102EC00030E084BF2093620091E084BF9093630060
:102ED0009DE284BF9093800093E084BF9093600054
:102EE00080E090E22091650020FD10C221E0209357
:102EF000030A8EEF8093260A8093270A9BE0909323
:102F0000000A32E03093E6052093430A8093660A74
:102F10008093670A9093400A9093E705E0E0FBE016
:102F200027E09EEF85E02183948715868083709645
:102F3000E0340BE0F007B9F72FEF3FE02093AA0B46
:102F40003093AB0B90E89093820B1092810B2EEF95
:102F500030E02093AE0B3093AF0B98ED24E194BF9B
:102F60002093680091E19093800B809302069EE08D
:102F70009093050690E69093030680930006809157
:102F8000B000887F85608093B0008091B200887F18
:102F900085608093B2008FED9EE280932C0B90931E
:102FA0002D0B81E08093250B1092210B83E0809301
:102FB000200B789484E08093410481E00E94C10E4C
:102FC00040E052EC61E070E081E997E50E94E00B9F
:102FD00087E994E00E9492098BEF90E40E94020C32
:102FE00081E894E00E94F80BE7E42E2EEEE53E2EF9
:102FF0008FE59EE5F10100E010E020EA31E44DECC0
:103000005CEC6CE470E40193119321933193448B55
:10301000558B668B778B8E179F07A9F780E190E021
:103020000E94310B882341F1CE0101960E94090BC9
:1030300009811A8117FD20C0680123E0C20ED11C4E
:103040007AE3E72E7EE5F72E87E090E05C013FEF24
:10305000A31AB30A8BAB9CABCE01C3960E94020BA2
:10306000D7018D937D01C501AC14BD0478F38EEDBD
:1030700093E00430110511F48DEC93E00E94F80BFD
:103080000E94140E80913D5E882309F442C088E7B7
:1030900094E00E94920980E794E00E949209809156
:1030A0003A5E8B3221F489E694E00E949209809185
:1030B0003A5E863521F482E694E00E94920980917E
:1030C0003A5E8B3521F48BE594E00E94920982E50B
:1030D00094E00E94920960913B5E70E090E080E095
:1030E0004AE00E94080C8AE494E00E9492096091F0
:1030F0003C5E70E090E080E04AE00E94080C88E4CA
:1031000094E00E94F80B83E091E40E94E90B0E9496
:10311000F50B80913D5E882309F449C187E08093D7
:10312000825E84E08093835E85E08093845E86E0A7
:103130008093855E1092865E10913B5E80913C5E2E
:103140008093805E1092815E80E88093010480E12C
:10315000809301049FB7F89480E2809302048091E9
:103160001504877F809315049FBF2091855E822F71
:1031700090E0293280F4FC01EF5AFF4B20812F3F71
:1031800051F086589F4BDC01EC91B0E2EB9FF001CF
:103190001124FC5F21830E94F0068091865E8111DC
:1031A000BBC08091E4058C7F8093E4058091410948
:1031B0008460809341098091400981628093400935
:1031C0000E94590A6B017C016AEA8FE20E94230780
:1031D0008FE20E9430078A3A59F00E94590A6C190E
:1031E0007D098E099F09623371058105910560F3A0
:1031F0000E94590A6C197D098E099F096233710575
:103200008105910508F0B9C00E94590A6B017C0143
:1032100065E58FE20E9423078FE20E943007853523
:1032200059F00E94590A6C197D098E099F09623371
:1032300071058105910560F30E94590A6C197D0999
:103240008E099F09623371058105910508F095C0CB
:10325000FE0133968BE2DF011D928A95E9F781E04A
:10326000898384E08A8322E02B8393E09D832E83ED
:103270008F8380E4888725E029879A8796E09B875B
:1032800093E39C8797E09D8728E02F8729E0298B8F
:1032900029E12B8B32E43C8B25E22D8B8E8B26E2B1
:1032A0002F8B988F98E2998F20E12A8F99E29B8F3C
:1032B0009CED9C8F9EE29D8F98E89E8F9FE29F8F52
:1032C0009DE298A390E399A347E34BA340E94CA365
:1032D00048E34DA33EA33CE33FA33FE838A73DE3CB
:1032E00039A72AA72FE62BA79CA79CE69E87888B49
:1032F0001AA38E010F5F1F4FF80180818823E1F030
:1033000061810E9423070E5F1F4FF6CF019709F0DE
:10331000E9CD83E00E94C6098091E405837F809314
:10332000E40580916109846080936109809160095E
:1033300081628093600944CF90E080E00E9455074D
:1033400069E981E10E94230784E00E943C070E9412
:10335000590A6B017C0187E20E94300787FD0BC090
:103360000E94590A6C197D098E099F096233710503
:103370008105910580F30E94590A8DE191E40E9434
:10338000550780913C5EF4E18F9FC00111246C01D0
:10339000092E000CEE08FF08892B09F455C10E9484
:1033A000BA2DA70196010E94C8300E94280A8EE01B
:1033B0008093050680910306809303061092B00067
:1033C00086E08093020681E08093000680910006EB
:1033D0008093000687E08093080660E070E0CB01F0
:1033E00050E040E0E1E0E0930A0620910D0620FF66
:1033F000FCCF4A30510544F020911006309111065F
:10340000620F731F811D911D4F5F5F4F4A3107E2AD
:10341000500749F70E94B02F20E030E44CE156E419
:103420000E948A3120E030EF4FE755E40E948A3154
:103430009B01AC0166E676E686E69FE30E948A3150
:103440006B017C0188E294E00E94920944E050E024
:10345000C701B6010E944C0D40913F5E5091405E05
:103460006091415E7091425E81E00E94A6064091AB
:103470003F5E5091405E6091415E7091425E82E09D
:103480000E94A60640913F5E5091405E6091415E71
:103490007091425E83E00E94A60680904940909021
:1034A0004A40A0904B40B0904C408BAE9CAEADAE2D
:1034B000BEAE60912A5870912B5890E080E00E9437
:1034C000B02F2B013C0104ED1CE520E0D101589602
:1034D0008D909D90AD90BC905B97F1016191719141
:1034E000819191911F01F1E0F20FFFABD8012C9374
:1034F00020E030E040E450E40E9411302BAD3CADC0
:103500004DAD5EAD0E941130A30192010E948A313F
:10351000F801618372838383948315828682978204
:10352000A086B186128613861486158616860B5ED3
:103530001F4F2FA9263051F661E081E00E94650AF5
:1035400062E082E00E94650A63E083E00E94650A0F
:1035500061E084E00E94650A62E085E00E94650AFD
:1035600063E086E00E94650A82E3809346408AE039
:10357000809303406091775E7091785E8091795E70
:1035800090917A5E0E948E0AC0924940D0924A4041
:10359000E0924B40F0924C4086E194E00E94920908
:1035A00080917B5E882309F453C08EE094E00E94F2
:1035B00092098FEF93E00E94920980917C5E909136
:1035C0007D5E0E94690C8CEF93E00E94F80B809165
:1035D0007B5E809359588823F1F189E08093B3048E
:1035E00080917C5E90917D5E80935058909351586D
:1035F00082E08093525881E080935A58C090325EA6
:10360000D090335EC114D10409F472C186010F5FFA
:103610001F4F62E1E62E6EE5F62E8091305E9091AE
:10362000315E8C0D9D1D08171907C4F4C8019571F2
:1036300089839A83CE0101960E94020BD7018D9354
:103640007D010F5F1F4FE9CF60E070E0CB01ADCE91
:1036500083EF93E0BACF1092B304C2CF4090125ED2
:103660005090135E6090145E7090155E8090165EB0
:103670009090175EA090185EB090195EC0901A5E90
:10368000D0901B5EE0901C5EF0901D5E00911E5E6F
:1036900010911F5E2091205E3091215E4091225E4C
:1036A0005091235E6091245E7091255E8091265E2C
:1036B0009091275EA091285EB091295E8FAB98AF64
:1036C000A9AFBAAF80912A5E90912B5EA0912C5E3B
:1036D000B0912D5E409257B7509258B7609259B74B
:1036E00070925AB78092B6589092B758A092B85834
:1036F000B092B958C0921559D0921659E092175904
:10370000F092185900937459109375592093765973
:10371000309377594093D3595093D4596093D559E6
:103720007093D6592FA838AC49AC5AAC2092325A73
:103730003092335A4092345A5092355A80933358CB
:1037400090933458A0933558B093365885E18093C0
:10375000005788E090E08093FE569093FF5688EEE5
:1037600091E080930557909306571092FD569091E3
:103770000957AEEBB8E580E041E02C91222309F433
:103780004DC0282F30E0F901EE0FFF1FE20FF31FAD
:103790008F01075E1F4BF8012081BD016C55710937
:1037A0002F3F99F4FB0120813181F9015489511196
:1037B0000CC08787448B208130E0275F3F4BF901A5
:1037C0002081F80120838F5F9F5FFD01EA55F10999
:1037D00020813181FB016081718126173707F1F06B
:1037E000E82FF0E0BF01660F771FE60FF71FBF015C
:1037F000675E7F4BFB0150815F3F81F4F901548983
:1038000051110CC08787448B208130E0275F3F4BEC
:10381000F90120818F5FFB0120839F5FA15ABF4F79
:10382000FDE5A233BF0709F0A8CF90930957809315
:10383000FD569091FC56A0E6B8E541E0FD01E25A44
:10384000FF4F2081222319F1282F30E0F901EE0FDC
:10385000FF1FE20FF31FBF01675E7F4BFB0120815B
:103860002F3FA9F42D913C911197F90154895111E1
:103870000EC08787448B208130E0245F3F4BF901E5
:103880002081FB0120838F5FA183B2839F5FA15AB8
:10389000BF4FFCE5A43DBF0789F68093FD5690938A
:1038A000FC5690912C589923A9F080932F58209181
:1038B000184091E0980F9093FD5690E0FC01EE0FB8
:1038C000FF1FE80FF91FE75EFF4B208310922D5872
:1038D00010922E588091FD568093075710E08091EA
:1038E00008571817E0F4812F0E9482101F5FF7CF4E
:1038F00080E090E0DC011FAA18AE19AE1AAE40E0DD
:1039000050E0BA0100E010E09801C12CD12C760102
:10391000812C912C5401412C512C3201DBCE109181
:10392000075720E836E948E15BE460910540709173
:10393000064080910740909108400E94113020E09D
:1039400030E044EF53E40E948A310E94F7316B016A
:103950007C012091464030E050E040E06BE070E5B3
:1039600080E090E00E94F430C701B601621B730B47
:10397000840B950B212F30E050E040E00E94F430A2
:103980002093F8563093F9564093FA565093FB56CD
:1039900010920A5781E08093044095E190930506C8
:1039A00090910306909303061092B0009091FE56FA
:1039B0009093020680930006909100069093000673
:1039C00090910006926090930006109208069091E4
:1039D0000C06916090930C0680930A0678941092DE
:1039E0001757109218571092195710921A5760E0F3
:1039F00070E080E090E40E948E0A8E010D5C1F4F03
:103A00000DAB1EAB81E997E50E94F307892B09F402
:103A100096C081E997E50E94D107F09001578A305E
:103A200009F029C5AF2DB0E0A05BB84A1C92E09127
:103A30005057EF53EC3308F07AC00E2E000CFF0BFA
:103A4000EC5DF24E0C9419332222971D971D971DA1
:103A5000971D971D971D971D971D971D971D971DC6
:103A6000971D971D971D971D971D971D971D971DB6
:103A7000971D971D971D971D971D971D971D971DA6
:103A8000971D971D971D971D971D971D971D601DCD
:103A90008A1D531E6F1E761E8C1E971DC720431E47
:103AA000A11E45204C20C720971DDF20971DF32025
:103AB0001E21971D971DD621E221F921971D002275
:103AC00012E0F11234C081E597E50E94122E843095
:103AD000D9F0883099F0893059F010923A5E90E030
:103AE00080E00E94690C87EA9CE00E94F80B1FC0EE
:103AF0008BE580933A5E83E993E0F3CF86E580938C
:103B00003A5E84E693E0EDCF8BE280933A5E81EB00
:103B100091E0E7CF22E0F2120AC081E597E50E942A
:103B2000122E019709F0ACC081E080937E5E80E4A4
:103B3000A0E5B7E51D928A95E9F7109201578091AB
:103B4000045790913958992389F0882379F081E0BE
:103B500080933B580E94590A60933C5870933D589B
:103B600080933E5890933F5810920457809103578A
:103B700090914958992389F0882379F081E08093C6
:103B80004B580E94590A60934C5870934D5880933B
:103B90004E5890934F58109203578091025790912E
:103BA0005958992389F0882379F081E080935B58F4
:103BB0000E94590A60935C5870935D5880935E58D8
:103BC00090935F581092025720E3E22E28E5F22EE0
:103BD0008701D12CC12C560194E0AA0CBB1C9A95EC
:103BE000E1F7F501E05DF74A4F018385D8011996A9
:103BF0009C91992309F45EC4882309F45BC40E9454
:103C0000590AF40124853585468557851B012C0109
:103C1000221A330A440A550AB201A101D8018D9132
:103C20009C91B0E0A0E084179507A607B70708F0BD
:103C300041C4B1E0CB1609F42BC4E2E0CE1609F47E
:103C40002DC48091080486FB882780F9F501E05D8A
:103C5000F74A1386D8011A969C911A97981709F477
:103C600029C412969C9181111FC4923009F01FC47F
:103C7000F801278130852F5F3F4F2783308717C496
:103C800010927E5E54CF32E0F31251CF81E597E57A
:103C90000E94122E019721F481E080937F5E47CF2E
:103CA00010927F5E44CF81E597E50E940F2E6B0155
:103CB0007C010E948E0AC092775ED092785EE0927C
:103CC000795EF0927A5E86E99CE00E94920942E079
:103CD000C701B6010E94780C83E99CE006CF8AE018
:103CE0008C9381E597E50E94410C21CF43E0F412CB
:103CF0001ECF81E597E50E940F2E0E94F231162F0C
:103D0000072F609346408CE89CE00E949209812F27
:103D1000902F0E946E0C0BCF81E597E50E94122E2A
:103D200080933B5E85E89CE00E94920960913B5E37
:103D300070E090E080E04AE00E94080C0E94F50BE1
:103D4000F6CE60E270E080E597E50E942B330097A5
:103D500011F40C94592D8C0100551745C801992771
:103D600060E270E08F5A984A0E942B33EE24E3946D
:103D7000E00E009711F40C94602DDC01A055B745BE
:103D80005D01602F81E00E94E60E6C016A2D8E2D90
:103D90000E94120F29966CAF7DAF8EAF9FAF29970F
:103DA0006F2D81E08A0D0E94120FA2966CAF7DAF3D
:103DB0008EAF9FAFA297C114D10409F0A5C023EA2A
:103DC00033E240E051E429966CAD7DAD8EAD9FAD00
:103DD00029970E9411304B015C0100ED1DE57DE744
:103DE000272E79E5372EE0E6EE2EE8E5FE2E20912F
:103DF000494030914A4040914B4050914C40C50160
:103E0000B4010E9411302B013C0160912A5870913D
:103E10002B5890E080E00E94B02F9B01AC01C301C1
:103E2000B2010E948A31F801618372838383948393
:103E30002AE037ED43E25EE36681778180859185F4
:103E40000E94AC2F882331F1D80115961C928AE08C
:103E500097EDA3E2BEE3F80186839783A087B1873D
:103E600012861386148615861686712C8091085743
:103E7000781680F4F701828193810817190729F0D9
:103E8000848195810817190719F4872D0E948210E3
:103E90007394ECCF0A5E1F4FBFE5EB0EF11C2E149E
:103EA0003F0409F0A4CF29962CAC3DAC4EAC5FACDE
:103EB000299720923F5E3092405E4092415E509240
:103EC000425E8EE79CE00E949209C6010E94690C46
:103ED0008CE79CE00E94920942E029966CAD7DAD92
:103EE0008EAD9FAD29970E94780C8AE79CE00E94D6
:103EF000920942E050E0A2966CAD7DAD8EAD9FADD3
:103F0000A2970E944C0D13CEEE24EA94EC0C6BE0C9
:103F1000362E3E1408F49DC0AE2CB12C25E1E29E55
:103F2000800111240C52134A20E030E040E450E4B8
:103F300029966CAD7DAD8EAD9FAD29970E94113055
:103F40002091494030914A4040914B4050914C4023
:103F50000E9411302B013C0160912A5870912B581E
:103F600090E080E00E94B02F9B01AC01C301B20140
:103F70000E948A31D80111966D937D938D939C9305
:103F8000149716962D913D914D915C911997A2969B
:103F90006CAD7DAD8EAD9FADA2970E94AC2F8823F6
:103FA00009F457C0F8011582A2962CAC3DAC4EAC7A
:103FB0005FACA2972682378240865186128613868E
:103FC0001486158616868FE58A9D80018B9D100DBF
:103FD0001124005A174AD801ED91FC91468157816E
:103FE00060857185F801408F518F628F738F2091AA
:103FF0000757A0900557B090065790904640E89E0E
:1040000070011124A501692DC7018E58974A0E949D
:104010003F0FD80112962D913C91139714968D91D4
:104020009C91159728173907A1F0ED91FC91868195
:104030009781A085B185F80180AB91ABA2ABB3AB02
:1040400020910757A501692DC7018657974A0E94FD
:104050003F0FF601EE0FFF1FEE0FFF1FEA5CF14A64
:1040600029962CAC3DAC4EAC5FAC299725863686A4
:104070004786508AA2968CAC9DACAEACBFACA297E2
:1040800085A296A2A7A2B0A61CCF99249394F9105A
:104090004ECD0E94140E4BCD60E270E080E597E5B6
:1040A0000E942B33009709F044C06F2D81E00E94DD
:1040B000E60E8C010115110509F456C001301105F9
:1040C00009F459C029966CAD7DAD8EAD9FAD299791
:1040D0000E94F731609350587093515882E080935A
:1040E000525881E080935A5829966CAD7DAD8EADC3
:1040F0009FAD29970E94F23160937C5E70937D5E44
:1041000088E69CE00E94920980917B5E8823E1F121
:1041100080E69CE00E94920981E59CE00E94920961
:1041200080917C5E90917D5E0E94690C8EE49CE0A3
:10413000DCCC8C01005517456801602F81E00E949E
:10414000E60E8C016F2D81E08C0D0E94E60EBC0105
:10415000990F880B990B0E94B22F29966CAF7DAFF7
:104160008EAF9FAF2997A6CF109259581092B304E3
:1041700010927B5EA7CF81E08093595899E090938D
:10418000B30480937B5E9ECF85E49CE0AECC81E55A
:1041900097E50E94122E882379F0992780349105A3
:1041A00014F08FE390E080933C5E8FE39CE00E94EC
:1041B000920960913C5EBCCD81E090E0F4CF81E556
:1041C00097E50E94122E8F7180933E5E8AE39CE0F9
:1041D0000E94920980913E5E8251990B0E94690C67
:1041E00085E39CE082CC11E0F112A1CC87EB95E055
:1041F0000E94F80B80E190E00E94310B882389F047
:10420000CE0101960E94090B89819A8197FD09C010
:1042100091958195910989839A83CE0101960E9497
:104220008C0B89E895E00E94F80B68EC70E080E068
:1042300090E00E94280A0C94000079CC21E0F21250
:1042400076CC8FE795E00E94F80B80E190E00E9429
:10425000310B811128C019821A826FE4CE010196B8
:104260000E94690B41E050E049835A8365E4CE0126
:1042700001960E94690B82E090E089839A836DE445
:10428000CE0101960E94690B03E010E009831A83B6
:104290006FEFCE0101960E94690B0F5F1F4F011552
:1042A00052E0150799F78AE490E089839A8380E1C8
:1042B00090E08B839C83CE0101960E948C0B0AE3D5
:1042C0001EE587E090E0D8016D918D017C01BFEF84
:1042D000EB1AFB0A8BAB9CABCE01C3960E94690B19
:1042E000C7018D34910579F790E080E00E94310B91
:1042F00081111AC087E595E00E9492094AE060E0CA
:1043000072E080E090E00E94080C81E395E00E945A
:10431000F80B60E072E090E080E00E94560D8FE2C2
:1043200095E00E9492090CC0CE0101960E94090BF3
:104330008B819C81019649F48EED94E00E94F80BEC
:104340000E94F50B8EE595E0D0CB81ED94E00E94C4
:1043500092096B817C8190E080E04AE00E94080C29
:1043600009811A8117FF03C01195019511090450A5
:10437000110983EC94E00E949209C8010E94690C23
:104380008CEB94E00E94920989819A8197FF04C086
:1043900081EB94E00E9492090E94F50BB80187E03E
:1043A00090E00E94560D8FEA94E0BBCFF1E0FF123F
:1043B000BECB8DE19CE00E9492098BEF90E40E94BD
:1043C000020CB5CB42E0242EF210B1CB10923D5E30
:1043D00080915157813319F481E080933D5E809143
:1043E0003D5E882319F087E19CE07FCB80E19CE073
:1043F0007CCB3324339482E09CE0F31098CB75CBD4
:1044000044244394F41093CB88EE9BE00E94F80B75
:104410000E94B40BE6EBF8E510821182128213823F
:10442000E15AFF4F30EF832E3AE5932E8E169F060A
:1044300099F71092335810923458109235581092C0
:10444000365875CB99249394F91071CB06EC15E08E
:10445000F801F490FF2061F0FAE0FF1203C08DE054
:104460000E94AC098F2D0E94AC090F5F1F4FF0CF47
:1044700084EC95E03ACBBFE3BF1508F460CBEF2D99
:10448000F0E0E05BF84A8083F394F092015757CB59
:1044900080910804881F8827881FD8CB8091A804A2
:1044A00083FB882780F9D2CB933009F4E1CBD80184
:1044B0001A968C93BFEFCB1ADB0A005F1F4FE3E025
:1044C000CE16D10409F087CB80910A57882311F4C6
:1044D0000C94542C10920A57209009572BAE822D21
:1044E00090E006E1209ED0011124A053B24A26E1BB
:1044F000833098F454963C91549731110BC0289F07
:10450000F001299FF00D1124E053F24A108A118A1C
:10451000128A138A56960196EBCF10910857A396EC
:104520001FAFA397812F90E02FE5129FD001112498
:10453000AE54B74A25E18C30B8F51C963C911C97D7
:1045400031112EC0289FF001299FF00D1124EC524B
:10455000F34A108A118A128A138AFD01EC54F10978
:10456000108211821282138234961082118212827A
:10457000138214821582168217821D921C92119743
:1045800012961D921C92139714961D921D921D92C5
:104590001C92179718961D921D921D921C921B97A4
:1045A0000196A15ABF4FC7CF20E638E5D70117962D
:1045B0004D915C9118974115510589F013968D9195
:1045C0009D910D90BC91A02D840F951FA11DB11D33
:1045D000F70183839483A583B68317821086F0E165
:1045E000EF0EF11C2E153F0509F720904740309043
:1045F000484000ED1DE521960EAF1FAF219710E05A
:1046000000E04BAC041508F0F4C0780183E0EE0C38
:10461000FF1C8A95E1F7E20CF31CF701E058FF4F0D
:1046200020813181428153816481758186819781A6
:10463000D1014D905D906D907C900E9427324B018E
:104640005C01C301B2010E94B02F9B01AC01C50106
:10465000B4010E948A31B6E1B09F9001B19F300D44
:104660001124F901E053F24AEFABF8AF608B718B84
:10467000828B938BF7012085318542855385648534
:10468000758586859785D1014D905D906D907C9064
:104690001397808422968FAE229791846D969FAE59
:1046A0006D97A2842E96AFAE2E97B3846296BFAE5E
:1046B0006297C4846696CFAE6697D5846A96DFAE5D
:1046C0006A9786846B968FAE6B9797846C969FAE35
:1046D0006C97CD90DD90ED90FC90AFA9B8AD509661
:1046E0008D909D90AD90BC9053972D968CAE9DAEC5
:1046F000AEAEBFAE2D970E9423324B015C01C301C9
:10470000B2010E94B02F9B01AC01C501B4010E940F
:104710008A314B015C0122962FAD22976D963FADF9
:104720006D972E964FAD2E9762965FAD6297669607
:104730006FAD66976A967FAD6A976B968FAD6B97F4
:104740006C969FAD6C970E9423329B01AC01C50112
:10475000B4010E9411304B015C01C701B6010E94F7
:10476000B02F9B01AC01C501B4010E948A319B01AD
:10477000AC012D966CAD7DAD8EAD9FAD2D970E9499
:104780002531EFA9F8AD608B718B828B938B60899B
:104790007189828993890E94D032AFA9B8AD5096B1
:1047A0006D937D938D939C93539750966D917D91CE
:1047B0008D919C9153972196EEADFFAD219721816C
:1047C0003281438154810E941130AFA9B8AD509617
:1047D0006D937D938D939C9353970F5F1F4F2196FD
:1047E000EEADFFAD219776962196EEAFFFAF219704
:1047F00008CFF10184819581A681B7818081918163
:10480000A281B381809107578091055790910657F7
:1048100002EB18E521960EAF1FAF219700E618E5D1
:104820000FAB18AF6D961FAE6D974C01B12CA12C3C
:10483000EB968CAE9DAEAEAEBFAEEB97A3969FACA3
:10484000A3976D96AFAC6D979A1409F4B5C4AFA950
:10485000B8AD0D90BC91A02DABAFBCAF1F968C91A5
:10486000B8E08B9F80011124020D131DF801E05860
:10487000FF4F20813181428153816481758186811E
:104880009781F10180809180A280B3800E942732BD
:104890006B017C01C501B4010E94B02F9B01AC01EA
:1048A000C701B6010E948A31ABADBCAD50966D9385
:1048B0007D938D939C935397F80120853185428594
:1048C00053856485758586859785D1014D905D906A
:1048D0006D907C901397808422968FAE229791845E
:1048E0002E969FAE2E97A2846296AFAE6297B38447
:1048F0006696BFAE6697C4846A96CFAE6A97D58433
:104900006B96DFAE6B97E6846C96EFAE6C97F78490
:104910006E96FFAE6E97CD90DD90ED90FC90ABADB6
:10492000BCAD50968D909D90AD90BC9053972D96B8
:104930008CAE9DAEAEAEBFAE2D970E9423324B0122
:104940005C01C301B2010E94B02F9B01AC01C50103
:10495000B4010E948A314B015C0122962FAD22974F
:104960002E963FAD2E9762964FAD629766965FADDD
:1049700066976A966FAD6A976B967FAD6B976C96EC
:104980008FAD6C976E969FAD6E970E9423329B0100
:10499000AC01C501B4010E9411304B015C01C7019B
:1049A000B6010E94B02F9B01AC01C501B4010E9469
:1049B0008A319B01AC012D966CAD7DAD8EAD9FAD66
:1049C0002D970E942531EBADFCAD608B718B828BF6
:1049D000938B60897189828993890E94D032ABADB3
:1049E000BCAD50966D937D938D939C935397509649
:1049F0006D917D918D919C91539711968D909D9085
:104A0000AD90BC90149761968CAE9DAEAEAEBFAE2D
:104A10006197A50194010E941130EBADFCAD608B54
:104A2000718B828B938BF801E850FF4F208131818D
:104A3000428153816481758186819781E858FF4F57
:104A4000408062964FAE6297518066965FAE6697E1
:104A500082806A968FAE6A9793806B969FAE6B97B3
:104A6000A4806C96AFAE6C97B5806E96BFAE6E9715
:104A7000C680A496CFAEA497D780A596DFAEA597A3
:104A8000D1018D909D90AD90BC90F801F085A696D7
:104A9000FFAFA697D8011996BC91A796BFAFA7976D
:104AA000F801F285A896FFAFA897D8011B96BC9194
:104AB000A996BFAFA997F801F485AA96FFAFAA9768
:104AC000D8011D96BC91AB96BFAFAB97F801F685A8
:104AD000AC96FFAFAC97D8011F96BC91AD96BFAF17
:104AE000AD97F1014080518062807380AFA9B8AD6D
:104AF00012960D90BC91A02D2B96AEAFBFAF2B9709
:104B00001F96EC91F0E03196B3E0EE0FFF1FBA95DF
:104B1000E1F7E20DF31DC080AE96CFAEAE97D18027
:104B2000AF96DFAEAF97E280E096EFAEE097F3800E
:104B3000E196FFAEE197C480E296CFAEE297D580D2
:104B4000E396DFAEE397E680E496EFAEE497F78076
:104B5000E596FFAEE597D101CD90DD90ED90FC900C
:104B60002596CCAEDDAEEEAEFFAE25970E94233289
:104B7000EFA9F8AD22A133A144A155A10E941130A3
:104B80006B017C0162962FAD629766963FAD66978A
:104B90006A964FAD6A976B965FAD6B976C966FADEB
:104BA0006C976E967FAD6E97A4968FADA497A596E1
:104BB0009FADA5970E942332AFA9B8AD96962D91CF
:104BC0003D914D915C9199970E9411309B01AC01F0
:104BD000C701B6010E9426316B017C01C501B401F9
:104BE0000E94B02F9B01AC01C701B6010E948A311F
:104BF0006B017C01A6962FADA697A7963FADA79710
:104C0000A8964FADA897A9965FADA997AA966FAD44
:104C1000AA97AB967FADAB97AC968FADAC97AD96A0
:104C20009FADAD970E9423324B015C01C301B201DD
:104C30000E94B02F9B01AC01C501B4010E948A31D2
:104C40004B015C01AE962FADAE97AF963FADAF97DF
:104C5000E0964FADE097E1965FADE197E2966FADDC
:104C6000E297E3967FADE397E4968FADE497E59600
:104C70009FADE5970E9423329B01AC01C501B401B1
:104C80000E9411304B015C0125966CAD7DAD8EAD5F
:104C90009FAD25970E94B02F9B01AC01C501B401C7
:104CA0000E948A319B01AC01C701B6010E942531E7
:104CB0006B017C012B96EEADFFAD2B9721813281EC
:104CC0004381548161966CAD7DAD8EAD9FAD619792
:104CD0000E941130A70196010E94113065966CAFB9
:104CE0007DAF8EAF9FAF6597AFA9B8AD14960D900D
:104CF000BC91A02D2396AEAFBFAF23972B964EACA1
:104D00005FAC2B9720E030E0A9014A165B0609F45E
:104D100057C1F801E851FE4F50806A965FAE6A971E
:104D200081806B968FAE6B9792806C969FAE6C97DE
:104D3000A3806E96AFAE6E97B480A496BFAEA497D4
:104D4000C580A596CFAEA597D680A696DFAEA697CE
:104D5000E780A796EFAEA797E858FF4F20813181F3
:104D6000428153816481758186819781D1018D90C3
:104D70009D90AD90BC90F801F085A896FFAFA897E4
:104D8000D8011996BC91A996BFAFA997F801F285F1
:104D9000AA96FFAFAA97D8011B96BC91AB96BFAF5E
:104DA000AB97F801F485AC96FFAFAC97D8011D9690
:104DB000BC91AD96BFAFAD97F801F685AE96FFAF4B
:104DC000AE97D8011F96BC91AF96BFAFAF97F101D8
:104DD00040805180628073802396AEADBFAD239733
:104DE0001F96EC91F0E03196A3E0EE0FFF1FAA951D
:104DF000E1F7E20DF31DC080E096CFAEE097D180E1
:104E0000E196DFAEE197E280E296EFAEE297F380C3
:104E1000E396FFAEE3970481E4960FAFE497158124
:104E2000E5961FAFE597C680E696CFAEE697D780AA
:104E3000E796DFAEE797D101ED90FD900D911C91C3
:104E40006996ECAEFDAE0EAF1FAF69970E9423329C
:104E5000EFA9F8ADFE9620813181428153810E94F5
:104E600011306B017C016A962FAD6A976B963FAD4E
:104E70006B976C964FAD6C976E965FAD6E97A496E0
:104E80006FADA497A5967FADA597A6968FADA69773
:104E9000A7969FADA7970E942332EFA9F8AD22AD48
:104EA00033AD44AD55AD0E9411309B01AC01C7013B
:104EB000B6010E9426316B017C01C501B4010E943C
:104EC000B02F9B01AC01C701B6010E948A316B0172
:104ED0007C01A8962FADA897A9963FADA997AA9651
:104EE0004FADAA97AB965FADAB97AC966FADAC9755
:104EF000AD967FADAD97AE968FADAE97AF969FADA9
:104F0000AF970E9423324B015C01C301B2010E94A2
:104F1000B02F9B01AC01C501B4010E948A314B0145
:104F20005C01E0962FADE097E1963FADE197E29608
:104F30004FADE297E3965FADE397E4966FADE497EC
:104F4000E5967FADE597E6968FADE697E7969FAD40
:104F5000E7970E9423329B01AC01C501B4010E9476
:104F600011304B015C0169966CAD7DAD8EAD9FAD8E
:104F70006997F6D79B01AC01C501B4010E948A3143
:104F80009B01AC01C701B6010E9425316B017C0178
:104F90002396AEADBFAD239711962D913D914D91C6
:104FA0005C91149761966CAD7DAD8EAD9FAD6197B0
:104FB0000E941130A70196010E9411309B01AC01A3
:104FC00065966CAD7DAD8EAD9FAD65970E94253128
:104FD0004B015C012B964EAC5FAC2B972396CEAC6D
:104FE000DFAC239720E030E0A9014C145D0439F4D4
:104FF000D20150962D913D914D915C915397EBAD1F
:10500000FCAD60897189828993890E9411302B01DE
:105010003C01AC019B01C501B4010E948A316B01C6
:105020007C0126E636E646E85FE30E94C8321816A1
:105030000CF4B9C026E636E646E85FEBC701B601D8
:105040008BD787FDB0C0A7019601C701B6010E94AA
:105050000E338111A8C02196AEADBFAD2197189631
:10506000CD92DD92ED92FC921B9720E030E040E083
:105070005FE3C501B4010E9426310E94F2312196FE
:10508000AEADBFAD21976D937C9320E030E040E062
:105090005FE3C301B2010E9426310E94F2312196E2
:1050A000EEADFFAD219762837383D1016D917D9148
:1050B0008D919C911091075753D7A5019401B1D7B9
:1050C0006B017C01EB966CAD7DAD8EAD9FADEB972A
:1050D00047D79B01AC01C701B601A3D76B017C0187
:1050E000612F70E090E080E03DD79B01AC01C701EB
:1050F000B60197D720E836E948E15BE40E948A319F
:10510000EFA9F8AD26813781408551850E9426316F
:105110006B017C0120E030E041E655E40E948A31D9
:105120000E94F231072E000C880B990B2196AEAD30
:10513000BFAD219714960D911D912D913C9117971C
:10514000060F171F281F391FFD01048315832683AF
:10515000378308D720E030E041E655E462D79B0171
:10516000AC01C701B6010E942531AFA9B8AD1696B2
:105170006D937D938D939C9319976D960FAD6D975D
:105180000F5F6D960FAF6D97A15ABF4FAFABB8AF22
:1051900021960EAD1FAD2197015A1F4F21960EAFDC
:1051A0001FAF21974BCB2196EEADFFAD2197108617
:1051B00011861286138659CF80912C58882309F4C2
:1051C0004FC0E0912F58F0E0319613E0EE0FFF1F33
:1051D0001A95E1F7E20DF31D20813181428153815F
:1051E0006481758186819781D1018D909D90AD906C
:1051F000BC900E9423326B017C01C501B401B0D682
:105200009B01AC01C701B6010E948A316B017C0190
:1052100060912A5870912B587695679590E080E0C0
:105220009FD69B01AC01C701B6010E94263120E048
:1052300030E040E05FE30E9426310E94F731609346
:105240002D5870932E58C10188529D4F8215930599
:1052500061F0F101108281010F5F1F4F1801F6CF3D
:1052600010922D5810922E58EECF80911757909192
:105270001857A0911957B0911A57892B8A2B8B2B4D
:1052800069F480E00E94C10E6091775E7091785E53
:105290008091795E90917A5E0E948E0A65E070E05E
:1052A00080E090E00E94280A80911757909118574B
:1052B000A0911957B0911A570196A11DB11D809365
:1052C000175790931857A0931957B0931A57ABE1FB
:1052D0008A2EA7E59A2E740110E000E0B6E1DB2EDD
:1052E000D09EF001D19EF00D1124E053F24A608966
:1052F00071898289938920E030E048EC52E491D6AC
:105300000E94F231D7016D937D937D010F5F1F4F96
:105310000330110529F7EDE2CE2EE7E5DE2EF1E2AE
:10532000EF2EF7E5FF2E8BE097E5A7019601A4EDA0
:10533000BCE51FE554960C91549770E060E00023A3
:1053400049F0FC016081169FF0011124EE54F74AE8
:1053500060817181FA0161937193AF01412C512CED
:105360003201002359F0FC016081169FF0011124E5
:10537000EA54F74A4080518062807380F90141927B
:105380005192619271929F0155960196FDE5A23569
:10539000BF0781F68091535890915458A091555869
:1053A000B09156588093455790934657A0934757CE
:1053B000B093485780913D5E882309F487C082E30B
:1053C000E7E1F7E5DE01119601900D928A95E1F78C
:1053D000B12CB092815E8DE30E943007682F64602B
:1053E0008DE30E9423070E94590A2B013C01809102
:1053F0009057803109F061C280914A5781115DC296
:1054000084E20E94300790E09195819591098C3457
:105410009F4F0CF052C284E00E943C0784E00E943F
:105420003C0787E20E94300787FFFBCF0E941507E9
:1054300080E80E94FE0685E30E94FE0685E00E9449
:10544000FE068091805E0E94FE0680E40E94FE06B9
:105450008E010F5F1F4FD8018D918D010E94FE06B6
:105460002DA83EA820163106B1F70E94F0068CE068
:105470000E943C0788E20E94300783FFFBCF84E054
:105480000E943C070E94590A2B013C010E94590AC4
:1054900064197509860997096E31710581059105B1
:1054A00008F01AC20E94A60D882381F380914D57FF
:1054B00090914E57059751F780914957882331F3C2
:1054C00062E370E080E090E00E94280A4090175765
:1054D000509018576090195770901A5780917F5EBE
:1054E000882309F4FFC181EE9CE00E9492094AE002
:1054F000C301B2010E94080C01E010E08DED9CE0B8
:105500000E949209C8010E94690C8EE291E40E94F7
:10551000410CD4016D917D914D01072E000C880B3B
:10552000990B20D52AE037ED43E25CE37AD542E0DF
:105530000E94780C0F5F1F4F04301105F9F601E04F
:1055400010E089ED9CE00E949209C8010E94690C5C
:105550008EE291E40E94410CF701819191917F01CB
:105560000E94690C0F5F1F4F0730110551F701E0D2
:1055700010E085ED9CE00E949209C8010E94690C30
:105580008EE291E40E94410CD6016D917D918D9146
:105590009D916D010E94420C0F5F1F4F0730110556
:1055A00041F78BEC9CE00E94920960914557709105
:1055B000465780914757909148574AE00E94080CFF
:1055C00089EC9CE00E94F80B6CE370E080E090E0D6
:1055D0000E94280A81E00E94C10E62E370E080E030
:1055E00090E00E94280A80E00E94C10E209045575A
:1055F0003090465740904757509048572FAA38AEA2
:1056000049AE5AAE40904157509042576090435730
:105610007090445780913D5790913E57A0913F57CD
:10562000B09140574091395750913A5760913B574C
:1056300070913C570091355710913657209137574C
:1056400030913857C0903157D0903257E09033574F
:10565000F090345780902D5790902E57A0902F5750
:10566000B0903057E091125EF091135E14012E1A43
:105670003F0AF10137FE03C0F195E195F109E83CDD
:10568000F1050CF064C0E091165EF091175E160112
:105690002E1A3F0AF10137FE03C0F195E195F10999
:1056A000E83CF1050CF053C0E0911A5EF0911B5EEE
:1056B00018012E1A3F0AF10137FE03C0F195E1955A
:1056C000F109E83CF1050CF042C0E0911E5EF0915A
:1056D0001F5E1A012E1A3F0AF10137FE03C0F19531
:1056E000E195F109E83CF10594F5E091225EF09135
:1056F000235E1C012E1A3F0AF10137FE03C0F1950B
:10570000E195F109E83CF10514F5E091265EF09190
:10571000275E12012E1A3F0AF10137FE03C0F195F0
:10572000E195F109E83CF10594F4E0912A5EF091ED
:105730002B5E2FA838AC2E1A3F0AF10137FE03C0AA
:10574000F195E195F109E83CF1050CF4ADC08092CA
:10575000125E9092135EA092145EB092155EC0929B
:10576000165ED092175EE092185EF092195E00937A
:105770001A5E10931B5E20931C5E30931D5E409357
:105780001E5E50931F5E6093205E7093215E809337
:10579000225E9093235EA093245EB093255E409298
:1057A000265E5092275E6092285E7092295E8FA8D6
:1057B00098ACA9ACBAAC80922A5E90922B5EA09273
:1057C0002C5EB0922D5E0091325E1091335E011519
:1057D000110549F1C801957189839A83CE0101961B
:1057E0000E94020B90E08093345E9093355E0983B3
:1057F0001A836FEFCE0101960E94690B8091325E91
:105800009091335E2091305E3091315E820F931F14
:105810008093325E9093335E2091385E3091395E92
:105820008217930744F08091365E9091375E8093A3
:10583000325E9093335E8091345E9091355E880F36
:10584000991F992781608F3F910509F42FC180939B
:10585000345E9093355E6091345E8091325E9091BB
:10586000335E89839A83CE0101960E94690B009171
:10587000325E1091335E8EE2E82E8EE5F82E92E1D4
:10588000C92E9EE5D92E01511E45C8018C0D9D1DC6
:1058900089839A83D6016D916D01CE0101960E9494
:1058A000690BEC14FD0489F7A89564E170E080E0D1
:1058B00090E00E94280A0C94021D0E94590A641963
:1058C000750986099709683E73408105910508F0BE
:1058D000A5CD0E94A60D8BCDB39473E0372EB310E7
:1058E00078CDEECD84EC9CE00E9492094AE0C301A1
:1058F000B2010E94080C01E010E081EC9CE00E94E3
:105900009209C8010E94690C8FE291E40E94410C47
:10591000F401619171914F01072E000C880B990BD6
:1059200021D32AE037ED43E25CE37BD342E00E94DF
:10593000780C0F5F1F4F04301105F9F601E010E0FD
:105940008EEB9CE00E949209C8010E94690C8FE2D4
:1059500091E40E94410CD7018D919D917D010E949F
:10596000690C0F5F1F4F0730110551F701E010E080
:105970008BEB9CE00E949209C8010E94690C8FE2A7
:1059800091E40E94410CF601619171918191919194
:105990006F010E94420C0F5F1F4F0730110541F746
:1059A00083EB9CE00E9492096091455770914657A5
:1059B00080914757909148574AE00E94080C809187
:1059C0007E5E811107C00E94F50B68E270E080E006
:1059D00090E0FECD54EDE52E5CE5F52E10E000E004
:1059E00065E1B62E80EB9CE00E94920968010F5F92
:1059F0001F4FC8010E94690C8FE291E40E94410C84
:105A0000D70154968C91882309F448C0BC9CF001BE
:105A1000BD9CF00D1124EC52F34A60897189828992
:105A2000938943E00E94780CB5E1EB0EF11C06303F
:105A30001105C1F634EDE32E3CE5F32E01E010E054
:105A40004FE5D42E8CEA9CE00E949209C8010E9486
:105A5000690C8FE291E40E94410CF701848988234C
:105A600009F1F801E65FF84AE081DE9EF0011124B9
:105A7000E654F74A608171818281938144E00E94FB
:105A8000780C0F5F1F4FF5E1EF0EF11C0730110589
:105A9000C9F660E570E080E090E09ACD60E070E0EB
:105AA000CB01BFCF60E070E0CB01E8CF8EEF90E09C
:105AB000CECE6F2D81E00E94E60E6C010C94DB1EB1
:105AC000602F81E00E94E60E6C016F2D8E2D0E94EA
:105AD000120F29966CAF7DAF8EAF9FAF29970C94B4
:105AE000DB1E8F929F92AF92BF92CF92DF92EF9286
:105AF000FF92CF93DF93EC01688179818A819B814A
:105B0000611571058105910521F464E279ED8BE55C
:105B100097E02DE133EF41E050E03AD349015A01DB
:105B20009B01AC01A7EAB1E44FD36B017C01ACEE61
:105B3000B4EFA501940154D3C60ED71EE81EF91E7A
:105B4000F7FE06C081E0C81AD108E10880E8F80A2B
:105B5000C882D982EA82FB82C701B6019F77DF91B2
:105B6000CF91FF90EF90DF90CF90BF90AF909F903C
:105B70008F9008958F929F92AF92BF92CF92DF92B3
:105B8000EF92FF9260914D4070914E4080914F4056
:105B900090915040611571058105910521F464E2F1
:105BA00079ED8BE597E02DE133EF41E050E0F0D265
:105BB00049015A019B01AC01A7EAB1E405D36B018D
:105BC0007C01ACEEB4EFA50194010AD3C60ED71E3A
:105BD000E81EF91EF7FE06C081E0C81AD108E108E8
:105BE00080E8F80AC0924D40D0924E40E0924F407B
:105BF000F0925040C701B6019F77FF90EF90DF9081
:105C0000CF90BF90AF909F908F90089560934D403C
:105C100070934E4080934F40909350400895662774
:105C2000772725C0FC0188279927E8942191203205
:105C3000E9F3293010F02E30C8F32B3239F02D3231
:105C400031F4689403C00BD0820F911D2191205331
:105C50002A30C8F31EF4909581959F4F08957AE0FD
:105C6000979F902D879F802D910D112408958F92DD
:105C70009F92AF92BF92CF92DF92EF92FF920F93DB
:105C80001F93CF93DF935C017B016115710519F0C0
:105C9000DB018D939C9385010F5F1F4FF501D08130
:105CA0008D2F90E039D16C01892BA9F5DD32A9F552
:105CB0000F5F1F4FD5011196DC91C1E05801F1E053
:105CC000AF1AB10843E050E06CEF72E0C5012CD18F
:105CD000892B61F5680182E0C80ED11C45E050E0D7
